{
  "_format": "hh3-artifact-1",
  "contractName": "TokenExchange",
  "sourceName": "contracts/TokenExchange.sol",
  "abi": [
    {
      "inputs": [
        {
          "internalType": "address",
          "name": "factoryAddress",
          "type": "address"
        }
      ],
      "stateMutability": "nonpayable",
      "type": "constructor"
    },
    {
      "inputs": [
        {
          "internalType": "address",
          "name": "owner",
          "type": "address"
        }
      ],
      "name": "OwnableInvalidOwner",
      "type": "error"
    },
    {
      "inputs": [
        {
          "internalType": "address",
          "name": "account",
          "type": "address"
        }
      ],
      "name": "OwnableUnauthorizedAccount",
      "type": "error"
    },
    {
      "inputs": [],
      "name": "ReentrancyGuardReentrantCall",
      "type": "error"
    },
    {
      "anonymous": false,
      "inputs": [
        {
          "indexed": true,
          "internalType": "address",
          "name": "recipient",
          "type": "address"
        },
        {
          "indexed": false,
          "internalType": "uint256",
          "name": "amount",
          "type": "uint256"
        }
      ],
      "name": "FeesWithdrawn",
      "type": "event"
    },
    {
      "anonymous": false,
      "inputs": [
        {
          "indexed": true,
          "internalType": "address",
          "name": "previousOwner",
          "type": "address"
        },
        {
          "indexed": true,
          "internalType": "address",
          "name": "newOwner",
          "type": "address"
        }
      ],
      "name": "OwnershipTransferred",
      "type": "event"
    },
    {
      "anonymous": false,
      "inputs": [
        {
          "indexed": false,
          "internalType": "uint256",
          "name": "oldFee",
          "type": "uint256"
        },
        {
          "indexed": false,
          "internalType": "uint256",
          "name": "newFee",
          "type": "uint256"
        }
      ],
      "name": "PlatformFeeUpdated",
      "type": "event"
    },
    {
      "anonymous": false,
      "inputs": [
        {
          "indexed": true,
          "internalType": "address",
          "name": "buyer",
          "type": "address"
        },
        {
          "indexed": true,
          "internalType": "address",
          "name": "creatorToken",
          "type": "address"
        },
        {
          "indexed": false,
          "internalType": "uint256",
          "name": "tokensAmount",
          "type": "uint256"
        },
        {
          "indexed": false,
          "internalType": "uint256",
          "name": "nativeAmount",
          "type": "uint256"
        },
        {
          "indexed": false,
          "internalType": "uint256",
          "name": "fee",
          "type": "uint256"
        }
      ],
      "name": "TokensPurchased",
      "type": "event"
    },
    {
      "anonymous": false,
      "inputs": [
        {
          "indexed": true,
          "internalType": "address",
          "name": "seller",
          "type": "address"
        },
        {
          "indexed": true,
          "internalType": "address",
          "name": "creatorToken",
          "type": "address"
        },
        {
          "indexed": false,
          "internalType": "uint256",
          "name": "tokensAmount",
          "type": "uint256"
        },
        {
          "indexed": false,
          "internalType": "uint256",
          "name": "nativeAmount",
          "type": "uint256"
        },
        {
          "indexed": false,
          "internalType": "uint256",
          "name": "fee",
          "type": "uint256"
        }
      ],
      "name": "TokensSold",
      "type": "event"
    },
    {
      "inputs": [],
      "name": "accumulatedFees",
      "outputs": [
        {
          "internalType": "uint256",
          "name": "",
          "type": "uint256"
        }
      ],
      "stateMutability": "view",
      "type": "function"
    },
    {
      "inputs": [
        {
          "internalType": "address",
          "name": "creatorToken",
          "type": "address"
        }
      ],
      "name": "buyTokens",
      "outputs": [],
      "stateMutability": "payable",
      "type": "function"
    },
    {
      "inputs": [
        {
          "internalType": "address",
          "name": "creatorToken",
          "type": "address"
        },
        {
          "internalType": "uint256",
          "name": "nativeAmount",
          "type": "uint256"
        }
      ],
      "name": "calculateBuyAmount",
      "outputs": [
        {
          "internalType": "uint256",
          "name": "tokensAmount",
          "type": "uint256"
        },
        {
          "internalType": "uint256",
          "name": "fee",
          "type": "uint256"
        }
      ],
      "stateMutability": "view",
      "type": "function"
    },
    {
      "inputs": [
        {
          "internalType": "address",
          "name": "creatorToken",
          "type": "address"
        },
        {
          "internalType": "uint256",
          "name": "tokenAmount",
          "type": "uint256"
        }
      ],
      "name": "calculateSellAmount",
      "outputs": [
        {
          "internalType": "uint256",
          "name": "nativeAmount",
          "type": "uint256"
        },
        {
          "internalType": "uint256",
          "name": "fee",
          "type": "uint256"
        }
      ],
      "stateMutability": "view",
      "type": "function"
    },
    {
      "inputs": [
        {
          "internalType": "address",
          "name": "",
          "type": "address"
        }
      ],
      "name": "creatorEarnings",
      "outputs": [
        {
          "internalType": "uint256",
          "name": "",
          "type": "uint256"
        }
      ],
      "stateMutability": "view",
      "type": "function"
    },
    {
      "inputs": [
        {
          "internalType": "address payable",
          "name": "recipient",
          "type": "address"
        },
        {
          "internalType": "uint256",
          "name": "amount",
          "type": "uint256"
        }
      ],
      "name": "emergencyWithdraw",
      "outputs": [],
      "stateMutability": "nonpayable",
      "type": "function"
    },
    {
      "inputs": [],
      "name": "factory",
      "outputs": [
        {
          "internalType": "contract CreatorTokenFactory",
          "name": "",
          "type": "address"
        }
      ],
      "stateMutability": "view",
      "type": "function"
    },
    {
      "inputs": [],
      "name": "getContractBalance",
      "outputs": [
        {
          "internalType": "uint256",
          "name": "",
          "type": "uint256"
        }
      ],
      "stateMutability": "view",
      "type": "function"
    },
    {
      "inputs": [],
      "name": "owner",
      "outputs": [
        {
          "internalType": "address",
          "name": "",
          "type": "address"
        }
      ],
      "stateMutability": "view",
      "type": "function"
    },
    {
      "inputs": [],
      "name": "platformFee",
      "outputs": [
        {
          "internalType": "uint256",
          "name": "",
          "type": "uint256"
        }
      ],
      "stateMutability": "view",
      "type": "function"
    },
    {
      "inputs": [],
      "name": "renounceOwnership",
      "outputs": [],
      "stateMutability": "nonpayable",
      "type": "function"
    },
    {
      "inputs": [
        {
          "internalType": "address",
          "name": "creatorToken",
          "type": "address"
        },
        {
          "internalType": "uint256",
          "name": "tokenAmount",
          "type": "uint256"
        }
      ],
      "name": "sellTokens",
      "outputs": [],
      "stateMutability": "nonpayable",
      "type": "function"
    },
    {
      "inputs": [
        {
          "internalType": "uint256",
          "name": "newFee",
          "type": "uint256"
        }
      ],
      "name": "setPlatformFee",
      "outputs": [],
      "stateMutability": "nonpayable",
      "type": "function"
    },
    {
      "inputs": [
        {
          "internalType": "address",
          "name": "newOwner",
          "type": "address"
        }
      ],
      "name": "transferOwnership",
      "outputs": [],
      "stateMutability": "nonpayable",
      "type": "function"
    },
    {
      "inputs": [
        {
          "internalType": "address payable",
          "name": "recipient",
          "type": "address"
        }
      ],
      "name": "withdrawFees",
      "outputs": [],
      "stateMutability": "nonpayable",
      "type": "function"
    },
    {
      "stateMutability": "payable",
      "type": "receive"
    }
  ],
  "bytecode": "0x60803461012657601f6110e038819003918201601f19168301916001600160401b0383118484101761012a5780849260209460405283398101031261012657516001600160a01b03811690819003610126573315610113575f8054336001600160a01b03198216811783556040519290916001600160a01b0316907f8be0079c531659141344cd1fd0a4f28419497f9722a3daafe3b4186f6b6457e09080a360018055606460035581156100d15750600280546001600160a01b031916919091179055604051610fa1908161013f8239f35b62461bcd60e51b815260206004820152601760248201527f496e76616c696420666163746f727920616464726573730000000000000000006044820152606490fd5b631e4fbdf760e01b5f525f60045260245ffd5b5f80fd5b634e487b7160e01b5f52604160045260245ffdfe6080604052600436101561001a575b3615610018575f80fd5b005b5f5f3560e01c806312e8e2c314610b9f578063164e68de14610ae257806326232a2e14610ac5578063573a5b6b14610a0b578063587f5ed7146109ee5780636f9fb98a146109d3578063715018a61461097c5780638da5cb5b1461095557806395ccea67146108f4578063c45a0155146108cc578063c464fe6514610565578063ec8ac4d814610259578063f2f2c5c41461018b578063f2fde38b146101055763fa3c30a8146100ca575061000e565b34610102576020366003190112610102576020906040906001600160a01b036100f1610c53565b168152600583522054604051908152f35b80fd5b50346101025760203660031901126101025761011f610c53565b610127610f25565b6001600160a01b031680156101775781546001600160a01b03198116821783556001600160a01b03167f8be0079c531659141344cd1fd0a4f28419497f9722a3daafe3b4186f6b6457e08380a380f35b631e4fbdf760e01b82526004829052602482fd5b5034610102576040366003190112610102576101a5610c53565b906024356101b4811515610d5c565b60206101cf60646101c760035485610da8565b048093610dcf565b6040516360d1f85760e11b8152600481019190915293849060249082906001600160a01b03165afa91821561024d5791610214575b6040809350519182526020820152f35b90506020823d602011610245575b8161022f60209383610ca9565b81010312610241576040915190610204565b5f80fd5b3d9150610222565b604051903d90823e3d90fd5b5060203660031901126101025761026e610c53565b610276610f4b565b34156105205760025460405163c78418b960e01b81526001600160a01b03928316600482018190529290911690602081602481855afa9081156104e85760249160209186916104f3575b506001600160a01b0316926102d6841515610e3e565b60405192838092637096920b60e11b82528660048301525afa80156104e8576103069185916104b9575b50610e99565b61271061031560035434610da8565b046103208134610dcf565b6040516360d1f85760e11b815234600482015292602084602481885afa9384156104ae57869461047a575b50610357841515610ed9565b61036383600454610f18565b6004558580808085855af1610376610cdf565b5015610435578552600560205261039260408620918254610f18565b9055823b15610426576040516340c10f1960e01b8152336004820152602481018390528490818160448183895af1801561042a57610411575b50506040805192835234602084015282015233907f377aadedb6b2a771959584d10a6a36eccb5f56b4eb3a48525f76108d2660d8d49080606081015b0390a36001805580f35b8161041b91610ca9565b61042657835f6103cb565b8380fd5b6040513d84823e3d90fd5b60405162461bcd60e51b815260206004820152601a60248201527f5472616e7366657220746f2063726561746f72206661696c65640000000000006044820152606490fd5b9093506020813d6020116104a6575b8161049660209383610ca9565b810103126102415751925f61034b565b3d9150610489565b6040513d88823e3d90fd5b6104db915060203d6020116104e1575b6104d38183610ca9565b810190610e81565b5f610300565b503d6104c9565b6040513d86823e3d90fd5b6105139150823d8411610519575b61050b8183610ca9565b810190610e1f565b5f6102c0565b503d610501565b60405162461bcd60e51b815260206004820152601960248201527f4d7573742073656e64206e61746976652063757272656e6379000000000000006044820152606490fd5b50346102415760403660031901126102415761057f610c53565b60243561058a610f4b565b610595811515610d5c565b60025460405163c78418b960e01b81526001600160a01b03938416600482018190529390911690602081602481855afa80156107d8576020915f916108af575b506001600160a01b03166105ea811515610e3e565b602460405180948193637096920b60e11b835260048301525afa80156107d85761061a915f916104b95750610e99565b6040516370a0823160e01b8152336004820152602081602481865afa80156107d85782905f90610879575b61065192501015610ddc565b604051631562a7f160e31b815260048101829052602081602481865afa9081156107d8575f91610847575b50610688811515610ed9565b606461069660035483610da8565b046106a18183610dcf565b804710610802576040516323b872dd60e01b8152336004820152306024820152604481018590526020816064815f8a5af180156107d8576106e9915f916107e3575b50610d1e565b843b1561024157604051632770a7eb60e21b8152306004820152602481018590525f81604481838a5af180156107d8576107c3575b50858080809361073086600454610f18565b600455335af161073e610cdf565b5015610785576040805193845260208401929092529082015233907fa0fe9740856690637d999c103293d3c823fc3b81443c34c6004bb582ab4b6166908060608101610407565b60405162461bcd60e51b815260206004820152601660248201527513985d1a5d99481d1c985b9cd9995c8819985a5b195960521b6044820152606490fd5b6107d09196505f90610ca9565b5f945f61071e565b6040513d5f823e3d90fd5b6107fc915060203d6020116104e1576104d38183610ca9565b5f6106e3565b60405162461bcd60e51b815260206004820152601d60248201527f496e73756666696369656e7420636f6e74726163742062616c616e63650000006044820152606490fd5b90506020813d602011610871575b8161086260209383610ca9565b8101031261024157515f61067c565b3d9150610855565b50506020813d6020116108a7575b8161089460209383610ca9565b8101031261024157816106519151610645565b3d9150610887565b6108c69150823d84116105195761050b8183610ca9565b5f6105d5565b34610241575f366003190112610241576002546040516001600160a01b039091168152602090f35b34610241576040366003190112610241576100185f808080610914610c53565b60243590610920610f25565b6001600160a01b0316610934811515610c69565b61093f821515610d5c565b61094b82471015610ddc565b5af16106e3610cdf565b34610241575f366003190112610241575f546040516001600160a01b039091168152602090f35b34610241575f36600319011261024157610994610f25565b5f80546001600160a01b0319811682556001600160a01b03167f8be0079c531659141344cd1fd0a4f28419497f9722a3daafe3b4186f6b6457e08280a3005b34610241575f36600319011261024157602047604051908152f35b34610241575f366003190112610241576020600454604051908152f35b3461024157604036600319011261024157610a24610c53565b6020602435610a34811515610d5c565b604051631562a7f160e31b8152600481019190915291829060249082906001600160a01b03165afa80156107d8575f90610a92575b604090610a856064610a7d60035484610da8565b048092610dcf565b9082519182526020820152f35b506020813d602011610abd575b81610aac60209383610ca9565b810103126102415760409051610a69565b3d9150610a9f565b34610241575f366003190112610241576020600354604051908152f35b3461024157602036600319011261024157610afb610c53565b610b03610f25565b6001600160a01b0316610b17811515610c69565b6004548015610b645760207fc0819c13be868895eb93e40eaceb96de976442fa1d404e5c55f14bb65a8c489a915f600455610b5b5f80808085895af16106e3610cdf565b604051908152a2005b60405162461bcd60e51b81526020600482015260136024820152724e6f206665657320746f20776974686472617760681b6044820152606490fd5b3461024157602036600319011261024157600435610bbb610f25565b6103e88111610bfb577fd347e206f25a89b917fc9482f1a2d294d749baa4dc9bde7fb495ee11fe49164360406003548151908152836020820152a1600355005b60405162461bcd60e51b815260206004820152602a60248201527f46656520746f6f206869676820286d617820313025203d203130303020626173604482015269697320706f696e74732960b01b6064820152608490fd5b600435906001600160a01b038216820361024157565b15610c7057565b60405162461bcd60e51b8152602060048201526011602482015270125b9d985b1a59081c9958da5c1a595b9d607a1b6044820152606490fd5b90601f8019910116810190811067ffffffffffffffff821117610ccb57604052565b634e487b7160e01b5f52604160045260245ffd5b3d15610d19573d9067ffffffffffffffff8211610ccb5760405191610d0e601f8201601f191660200184610ca9565b82523d5f602084013e565b606090565b15610d2557565b60405162461bcd60e51b815260206004820152600f60248201526e151c985b9cd9995c8819985a5b1959608a1b6044820152606490fd5b15610d6357565b60405162461bcd60e51b815260206004820152601d60248201527f416d6f756e74206d7573742062652067726561746572207468616e20300000006044820152606490fd5b81810292918115918404141715610dbb57565b634e487b7160e01b5f52601160045260245ffd5b91908203918211610dbb57565b15610de357565b60405162461bcd60e51b8152602060048201526014602482015273496e73756666696369656e742062616c616e636560601b6044820152606490fd5b9081602091031261024157516001600160a01b03811681036102415790565b15610e4557565b60405162461bcd60e51b8152602060048201526014602482015273151bdad95b881b9bdd081c9959da5cdd195c995960621b6044820152606490fd5b90816020910312610241575180151581036102415790565b15610ea057565b60405162461bcd60e51b815260206004820152601160248201527010dc99585d1bdc881a5cc818985b9b9959607a1b6044820152606490fd5b15610ee057565b60405162461bcd60e51b815260206004820152601060248201526f105b5bdd5b9d081d1bdbc81cdb585b1b60821b6044820152606490fd5b91908201809211610dbb57565b5f546001600160a01b03163303610f3857565b63118cdaa760e01b5f523360045260245ffd5b600260015414610f5c576002600155565b633ee5aeb560e01b5f5260045ffdfea2646970667358221220eaf35d556f3c0fe57f2cba51ce8bc38037d0a0514aed419ff2ca1df11619155664736f6c634300081c0033",
  "linkReferences": {},
  "deployedLinkReferences": {},
  "immutableReferences": {},
  "inputSourceName": "project/contracts/TokenExchange.sol",
  "buildInfoId": "solc-0_8_28-db7206a583287d3833a8509314ad2a678e5fbf9a"
}