{
  "_format": "hh3-artifact-1",
  "contractName": "CreatorTokenFactory",
  "sourceName": "contracts/CreatorTokenFactory.sol",
  "abi": [
    {
      "inputs": [],
      "stateMutability": "nonpayable",
      "type": "constructor"
    },
    {
      "inputs": [
        {
          "internalType": "address",
          "name": "owner",
          "type": "address"
        }
      ],
      "name": "OwnableInvalidOwner",
      "type": "error"
    },
    {
      "inputs": [
        {
          "internalType": "address",
          "name": "account",
          "type": "address"
        }
      ],
      "name": "OwnableUnauthorizedAccount",
      "type": "error"
    },
    {
      "anonymous": false,
      "inputs": [
        {
          "indexed": true,
          "internalType": "address",
          "name": "contractAddress",
          "type": "address"
        },
        {
          "indexed": false,
          "internalType": "bool",
          "name": "authorized",
          "type": "bool"
        }
      ],
      "name": "ContractAuthorized",
      "type": "event"
    },
    {
      "anonymous": false,
      "inputs": [
        {
          "indexed": true,
          "internalType": "address",
          "name": "creator",
          "type": "address"
        },
        {
          "indexed": true,
          "internalType": "address",
          "name": "tokenAddress",
          "type": "address"
        },
        {
          "indexed": false,
          "internalType": "string",
          "name": "reason",
          "type": "string"
        },
        {
          "indexed": false,
          "internalType": "uint256",
          "name": "timestamp",
          "type": "uint256"
        }
      ],
      "name": "CreatorBanned",
      "type": "event"
    },
    {
      "anonymous": false,
      "inputs": [
        {
          "indexed": true,
          "internalType": "address",
          "name": "creator",
          "type": "address"
        },
        {
          "indexed": true,
          "internalType": "address",
          "name": "tokenAddress",
          "type": "address"
        },
        {
          "indexed": false,
          "internalType": "string",
          "name": "name",
          "type": "string"
        },
        {
          "indexed": false,
          "internalType": "string",
          "name": "symbol",
          "type": "string"
        },
        {
          "indexed": false,
          "internalType": "uint256",
          "name": "initialPrice",
          "type": "uint256"
        },
        {
          "indexed": false,
          "internalType": "uint256",
          "name": "timestamp",
          "type": "uint256"
        }
      ],
      "name": "CreatorTokenCreated",
      "type": "event"
    },
    {
      "anonymous": false,
      "inputs": [
        {
          "indexed": true,
          "internalType": "address",
          "name": "creator",
          "type": "address"
        },
        {
          "indexed": true,
          "internalType": "address",
          "name": "tokenAddress",
          "type": "address"
        },
        {
          "indexed": false,
          "internalType": "uint256",
          "name": "timestamp",
          "type": "uint256"
        }
      ],
      "name": "CreatorUnbanned",
      "type": "event"
    },
    {
      "anonymous": false,
      "inputs": [
        {
          "indexed": false,
          "internalType": "uint256",
          "name": "oldInterval",
          "type": "uint256"
        },
        {
          "indexed": false,
          "internalType": "uint256",
          "name": "newInterval",
          "type": "uint256"
        }
      ],
      "name": "DefaultPriceUpdateIntervalChanged",
      "type": "event"
    },
    {
      "anonymous": false,
      "inputs": [
        {
          "indexed": true,
          "internalType": "address",
          "name": "previousOwner",
          "type": "address"
        },
        {
          "indexed": true,
          "internalType": "address",
          "name": "newOwner",
          "type": "address"
        }
      ],
      "name": "OwnershipTransferred",
      "type": "event"
    },
    {
      "inputs": [
        {
          "internalType": "uint256",
          "name": "",
          "type": "uint256"
        }
      ],
      "name": "allTokens",
      "outputs": [
        {
          "internalType": "address",
          "name": "",
          "type": "address"
        }
      ],
      "stateMutability": "view",
      "type": "function"
    },
    {
      "inputs": [
        {
          "internalType": "address",
          "name": "",
          "type": "address"
        }
      ],
      "name": "authorizedContracts",
      "outputs": [
        {
          "internalType": "bool",
          "name": "",
          "type": "bool"
        }
      ],
      "stateMutability": "view",
      "type": "function"
    },
    {
      "inputs": [
        {
          "internalType": "address",
          "name": "creator",
          "type": "address"
        },
        {
          "internalType": "string",
          "name": "reason",
          "type": "string"
        }
      ],
      "name": "banCreator",
      "outputs": [],
      "stateMutability": "nonpayable",
      "type": "function"
    },
    {
      "inputs": [
        {
          "internalType": "string",
          "name": "name",
          "type": "string"
        },
        {
          "internalType": "string",
          "name": "symbol",
          "type": "string"
        },
        {
          "internalType": "uint256",
          "name": "initialPrice",
          "type": "uint256"
        }
      ],
      "name": "createCreatorToken",
      "outputs": [
        {
          "internalType": "address",
          "name": "",
          "type": "address"
        }
      ],
      "stateMutability": "nonpayable",
      "type": "function"
    },
    {
      "inputs": [
        {
          "internalType": "address",
          "name": "",
          "type": "address"
        }
      ],
      "name": "creators",
      "outputs": [
        {
          "internalType": "address",
          "name": "tokenAddress",
          "type": "address"
        },
        {
          "internalType": "address",
          "name": "creatorAddress",
          "type": "address"
        },
        {
          "internalType": "bool",
          "name": "isActive",
          "type": "bool"
        },
        {
          "internalType": "bool",
          "name": "isBanned",
          "type": "bool"
        },
        {
          "internalType": "uint256",
          "name": "createdAt",
          "type": "uint256"
        },
        {
          "internalType": "uint256",
          "name": "bannedAt",
          "type": "uint256"
        },
        {
          "internalType": "string",
          "name": "reason",
          "type": "string"
        }
      ],
      "stateMutability": "view",
      "type": "function"
    },
    {
      "inputs": [],
      "name": "defaultPriceUpdateInterval",
      "outputs": [
        {
          "internalType": "uint256",
          "name": "",
          "type": "uint256"
        }
      ],
      "stateMutability": "view",
      "type": "function"
    },
    {
      "inputs": [
        {
          "internalType": "uint256",
          "name": "offset",
          "type": "uint256"
        },
        {
          "internalType": "uint256",
          "name": "limit",
          "type": "uint256"
        }
      ],
      "name": "getAllTokens",
      "outputs": [
        {
          "internalType": "address[]",
          "name": "",
          "type": "address[]"
        }
      ],
      "stateMutability": "view",
      "type": "function"
    },
    {
      "inputs": [
        {
          "internalType": "address",
          "name": "creator",
          "type": "address"
        }
      ],
      "name": "getCreatorInfo",
      "outputs": [
        {
          "internalType": "address",
          "name": "tokenAddress",
          "type": "address"
        },
        {
          "internalType": "bool",
          "name": "isActive",
          "type": "bool"
        },
        {
          "internalType": "bool",
          "name": "isBanned",
          "type": "bool"
        },
        {
          "internalType": "uint256",
          "name": "createdAt",
          "type": "uint256"
        },
        {
          "internalType": "uint256",
          "name": "bannedAt",
          "type": "uint256"
        },
        {
          "internalType": "string",
          "name": "reason",
          "type": "string"
        }
      ],
      "stateMutability": "view",
      "type": "function"
    },
    {
      "inputs": [
        {
          "internalType": "address",
          "name": "creator",
          "type": "address"
        }
      ],
      "name": "getCreatorToken",
      "outputs": [
        {
          "internalType": "address",
          "name": "",
          "type": "address"
        }
      ],
      "stateMutability": "view",
      "type": "function"
    },
    {
      "inputs": [
        {
          "internalType": "address",
          "name": "tokenAddress",
          "type": "address"
        }
      ],
      "name": "getTokenCreator",
      "outputs": [
        {
          "internalType": "address",
          "name": "",
          "type": "address"
        }
      ],
      "stateMutability": "view",
      "type": "function"
    },
    {
      "inputs": [],
      "name": "getTotalTokens",
      "outputs": [
        {
          "internalType": "uint256",
          "name": "",
          "type": "uint256"
        }
      ],
      "stateMutability": "view",
      "type": "function"
    },
    {
      "inputs": [
        {
          "internalType": "address",
          "name": "creator",
          "type": "address"
        }
      ],
      "name": "isCreatorActive",
      "outputs": [
        {
          "internalType": "bool",
          "name": "",
          "type": "bool"
        }
      ],
      "stateMutability": "view",
      "type": "function"
    },
    {
      "inputs": [],
      "name": "owner",
      "outputs": [
        {
          "internalType": "address",
          "name": "",
          "type": "address"
        }
      ],
      "stateMutability": "view",
      "type": "function"
    },
    {
      "inputs": [],
      "name": "renounceOwnership",
      "outputs": [],
      "stateMutability": "nonpayable",
      "type": "function"
    },
    {
      "inputs": [
        {
          "internalType": "address",
          "name": "contractAddress",
          "type": "address"
        },
        {
          "internalType": "bool",
          "name": "authorized",
          "type": "bool"
        }
      ],
      "name": "setAuthorizedContract",
      "outputs": [],
      "stateMutability": "nonpayable",
      "type": "function"
    },
    {
      "inputs": [
        {
          "internalType": "uint256",
          "name": "newInterval",
          "type": "uint256"
        }
      ],
      "name": "setDefaultPriceUpdateInterval",
      "outputs": [],
      "stateMutability": "nonpayable",
      "type": "function"
    },
    {
      "inputs": [
        {
          "internalType": "address",
          "name": "",
          "type": "address"
        }
      ],
      "name": "tokenToCreator",
      "outputs": [
        {
          "internalType": "address",
          "name": "",
          "type": "address"
        }
      ],
      "stateMutability": "view",
      "type": "function"
    },
    {
      "inputs": [
        {
          "internalType": "address",
          "name": "newOwner",
          "type": "address"
        }
      ],
      "name": "transferOwnership",
      "outputs": [],
      "stateMutability": "nonpayable",
      "type": "function"
    },
    {
      "inputs": [
        {
          "internalType": "address",
          "name": "creator",
          "type": "address"
        }
      ],
      "name": "unbanCreator",
      "outputs": [],
      "stateMutability": "nonpayable",
      "type": "function"
    }
  ],
  "bytecode": "0x6080806040523460785733156065575f8054336001600160a01b0319821681178355916001600160a01b03909116907f8be0079c531659141344cd1fd0a4f28419497f9722a3daafe3b4186f6b6457e09080a362278d0060055561282c908161007d8239f35b631e4fbdf760e01b5f525f60045260245ffd5b5f80fdfe6080806040526004361015610012575f80fd5b5f3560e01c908163131fa12314610f35575080631e88da3114610b64578063634282af14610b22578063715018a614610acb5780638da5cb5b14610aa4578063933166e114610a0157806393ac7c8f1461096157806397d5c1ac146108715780639a043832146106fe5780639d96cce1146104dd578063c78418b91461023f578063d392bbc41461047f578063d5b9221b14610442578063e12d2416146103d9578063e2a247db1461029c578063f08b82e61461027f578063f27f80111461023f578063f2fa7392146101765763f2fde38b146100ed575f80fd5b3461017257602036600319011261017257610106610ffb565b61010e6111d0565b6001600160a01b0316801561015f575f80546001600160a01b03198116831782556001600160a01b0316907f8be0079c531659141344cd1fd0a4f28419497f9722a3daafe3b4186f6b6457e09080a3005b631e4fbdf760e01b5f525f60045260245ffd5b5f80fd5b346101725760403660031901126101725761018f610ffb565b60243590811515809203610172576101a56111d0565b6001600160a01b03169081156101fa5760207f3213ab8ec2ed122402f038736b41878b69ae9f61f49a7edd0666bce891d29fc991835f526004825260405f2060ff1981541660ff8316179055604051908152a2005b60405162461bcd60e51b815260206004820152601860248201527f496e76616c696420636f6e7472616374206164647265737300000000000000006044820152606490fd5b34610172576020366003190112610172576001600160a01b03610260610ffb565b165f526003602052602060018060a01b0360405f205416604051908152f35b34610172575f366003190112610172576020600254604051908152f35b34610172576020366003190112610172576102b5610ffb565b6102bd6111d0565b60018060a01b0316805f5260016020526102e360ff600160405f20015460a01c1661118b565b805f52600160205260ff600160405f20015460a81c161561039c575f8181526001602081905260408220908101805460ff60a81b1916905560038101829055600401805461033090611011565b601f811161037d575b5055805f52600160205260018060a01b0360405f205416907fa03081bd34eac131d67a865c76a37770773f81b111297544e390a86569f08c7e6020604051428152a3005b8183526020832061039691601f0160051c81019061110d565b83610339565b60405162461bcd60e51b815260206004820152601560248201527410dc99585d1bdc881a5cc81b9bdd0818985b9b9959605a1b6044820152606490fd5b34610172576020366003190112610172576001600160a01b036103fa610ffb565b16805f52600160205260ff600160405f20015460a01c1680610424575b6020906040519015158152f35b505f526001602052602060ff600160405f20015460a81c1615610417565b34610172576020366003190112610172576001600160a01b03610463610ffb565b165f526004602052602060ff60405f2054166040519015158152f35b34610172576020366003190112610172576001600160a01b036104a0610ffb565b16805f5260016020526104bf60ff600160405f20015460a01c1661118b565b5f526001602052602060018060a01b0360405f205416604051908152f35b34610172576040366003190112610172576104f6610ffb565b60243567ffffffffffffffff811161017257610516903690600401610f8d565b9061051f6111d0565b60018060a01b031690815f52600160205261054660ff600160405f20015460a01c1661118b565b815f52600160205260ff600160405f20015460a81c166106b9575f828152600160208190526040909120908101805460ff60a81b1916600160a81b1790554260038201558151929060040167ffffffffffffffff84116106a5576105b4846105ae8354611011565b83611123565b602093601f81116001146106455780919293945f9161063a575b508160011b915f199060031b1c19161790555b805f5260016020527f0df753b7d47780691e5434029c1b6e9dca0aa6448cbf4f0eb7f7c6fe4c21d26a61062f60018060a01b0360405f205416936040519182916040835260408301906110e9565b4260208301520390a3005b9050840151856105ce565b601f19811694825f52805f20905f5b87811061068d57508260019495969710610675575b5050811b0190556105e1565b8601515f1960f88460031b161c191690558580610669565b9091602060018192858a015181550193019101610654565b634e487b7160e01b5f52604160045260245ffd5b60405162461bcd60e51b815260206004820152601960248201527f43726561746f7220697320616c72656164792062616e6e6564000000000000006044820152606490fd5b3461017257604036600319011261017257600254600435818110156108355761072960243582611166565b9180831161082d575b508082039182116108195761074682611173565b916107546040519384610f6b565b80835261076081611173565b602084019290601f19013684375f5b8281106107c3578385604051918291602083019060208452518091526040830191905f5b8181106107a1575050500390f35b82516001600160a01b0316845285945060209384019390920191600101610793565b6107d56107d08284611166565b610fe3565b9054865160039290921b1c6001600160a01b031691908110156108055760019160208260051b880101520161076f565b634e487b7160e01b5f52603260045260245ffd5b634e487b7160e01b5f52601160045260245ffd5b915082610732565b60405162461bcd60e51b81526020600482015260146024820152734f6666736574206f7574206f6620626f756e647360601b6044820152606490fd5b34610172576020366003190112610172576001600160a01b03610892610ffb565b165f52600160205260405f20604051906108ab82610f4f565b60018060a01b03815416825261095d60018201549260018060a01b0384166020820152604081019260ff8560a01c161515845260ff606083019560a81c161515855260028101549060808301918252610912600460038301549260a0860193845201611049565b928360c082015260018060a01b03905116945115159551151591519051916040519687968752602087015260408601526060850152608084015260c060a084015260c08301906110e9565b0390f35b346101725760203660031901126101725760043561097d6111d0565b80156109bc5760407f5cec9dfdaeb4de65b38793c76192b463c035d60450f182a3416db6a916edcf6d91600554908060055582519182526020820152a1005b60405162461bcd60e51b815260206004820152601f60248201527f496e74657276616c206d7573742062652067726561746572207468616e2030006044820152606490fd5b34610172576020366003190112610172576001600160a01b03610a22610ffb565b165f52600160205260405f2060018060a01b0381541661095d600183015492600281015490610a58600460038301549201611049565b9160ff604051968796875260018060a01b0381166020880152818160a01c161515604088015260a81c1615156060860152608085015260a084015260e060c084015260e08301906110e9565b34610172575f366003190112610172575f546040516001600160a01b039091168152602090f35b34610172575f36600319011261017257610ae36111d0565b5f80546001600160a01b0319811682556001600160a01b03167f8be0079c531659141344cd1fd0a4f28419497f9722a3daafe3b4186f6b6457e08280a3005b346101725760203660031901126101725760043560025481101561017257610b4b602091610fe3565b905460405160039290921b1c6001600160a01b03168152f35b346101725760603660031901126101725760043567ffffffffffffffff811161017257610b95903690600401610f8d565b60243567ffffffffffffffff811161017257610bb5903690600401610f8d565b9060443590335f52600160205260ff600160405f20015460a01c16610ef0578115610e9f5760055460405190611600908183019083821067ffffffffffffffff8311176106a55783926111f7843960a082526080610c27610c1960a08501886110e9565b8481036020860152896110e9565b92876040820152336060820152015203905ff08015610e945760018060a01b03169160405193610c5685610f4f565b8385526020850194338652600460408201916001835260608101975f89526080820142815260a08301915f835260209a60405196610c948d89610f6b565b5f80895260c087019889523381526001808f526040909120965187546001600160a01b0319166001600160a01b0391821617885593519087018054925193516001600160b01b0319909316919094161791151560a01b60ff60a01b169190911790151560a81b60ff60a81b1617905551600283015551600382015591518051919092019167ffffffffffffffff82116106a5578190610d3d82610d378654611011565b86611123565b8890601f8311600114610e31575f92610e26575b50508160011b915f199060031b1c19161790555b60025492680100000000000000008410156106a557610e0c7fb670e0e115c324a66dd3321378417fc26a0e3b82ff60df23008340d5342a9dd792610db0866001899801600255610fe3565b81546001600160a01b03600392831b90811b199091169089901b179091555f87815290895260409081902080546001600160a01b031916331790555160808082529093610dff918501906110e9565b90838203898501526110e9565b9260408201524260608201528033930390a3604051908152f35b015190508880610d51565b5f8581528a81209350601f198516905b8b828210610e7e575050908460019594939210610e66575b505050811b019055610d65565b01515f1960f88460031b161c19169055888080610e59565b6001859682939686015181550195019301610e41565b6040513d5f823e3d90fd5b60405162461bcd60e51b8152602060048201526024808201527f496e697469616c207072696365206d75737420626520677265617465722074686044820152630616e20360e41b6064820152608490fd5b60405162461bcd60e51b815260206004820152601b60248201527f43726561746f7220616c726561647920686173206120746f6b656e00000000006044820152606490fd5b34610172575f366003190112610172576020906005548152f35b60e0810190811067ffffffffffffffff8211176106a557604052565b90601f8019910116810190811067ffffffffffffffff8211176106a557604052565b81601f820112156101725780359067ffffffffffffffff82116106a55760405192610fc2601f8401601f191660200185610f6b565b8284526020838301011161017257815f926020809301838601378301015290565b6002548110156108055760025f5260205f2001905f90565b600435906001600160a01b038216820361017257565b90600182811c9216801561103f575b602083101461102b57565b634e487b7160e01b5f52602260045260245ffd5b91607f1691611020565b9060405191825f82549261105c84611011565b80845293600181169081156110c75750600114611083575b5061108192500383610f6b565b565b90505f9291925260205f20905f915b8183106110ab575050906020611081928201015f611074565b6020919350806001915483858901015201910190918492611092565b90506020925061108194915060ff191682840152151560051b8201015f611074565b805180835260209291819084018484015e5f828201840152601f01601f1916010190565b818110611118575050565b5f815560010161110d565b9190601f811161113257505050565b611081925f5260205f20906020601f840160051c8301931061115c575b601f0160051c019061110d565b909150819061114f565b9190820180921161081957565b67ffffffffffffffff81116106a55760051b60200190565b1561119257565b60405162461bcd60e51b815260206004820152601660248201527510dc99585d1bdc88191bd95cc81b9bdd08195e1a5cdd60521b6044820152606490fd5b5f546001600160a01b031633036111e357565b63118cdaa760e01b5f523360045260245ffdfe60806040523461045757611600803803806100198161045b565b928339810160a0828203126104575781516001600160401b0381116104575781610044918401610480565b602083015190916001600160401b03821161045757610064918401610480565b60408301516060840151919390916001600160a01b03811691908290036104575760800151835190936001600160401b03821161035a5760035490600182811c9216801561044d575b602083101461033c5781601f8493116103df575b50602090601f8311600114610379575f9261036e575b50508160011b915f199060031b1c1916176003555b83516001600160401b03811161035a57600454600181811c91168015610350575b602082101461033c57601f81116102d9575b50602094601f8211600114610276579481929394955f9261026b575b50508160011b915f199060031b1c1916176004555b801561025857600580546001600160a01b03198116831790915560405191906001600160a01b03167f8be0079c531659141344cd1fd0a4f28419497f9722a3daafe3b4186f6b6457e05f80a38115610216575081156101c2576006554260085560095560405161112e90816104d28239f35b60405162461bcd60e51b815260206004820152602660248201527f55706461746520696e74657276616c206d75737420626520677265617465722060448201526507468616e20360d41b6064820152608490fd5b62461bcd60e51b815260206004820152601c60248201527f5072696365206d7573742062652067726561746572207468616e2030000000006044820152606490fd5b631e4fbdf760e01b5f525f60045260245ffd5b015190505f8061013b565b601f1982169560045f52805f20915f5b8881106102c1575083600195969798106102a9575b505050811b01600455610150565b01515f1960f88460031b161c191690555f808061029b565b91926020600181928685015181550194019201610286565b60045f527f8a35acfbc15ff81a39ae7d344fd709f28e8600b4aa8c65c6b64bfe7fe36bd19b601f830160051c81019160208410610332575b601f0160051c01905b818110610327575061011f565b5f815560010161031a565b9091508190610311565b634e487b7160e01b5f52602260045260245ffd5b90607f169061010d565b634e487b7160e01b5f52604160045260245ffd5b015190505f806100d7565b60035f9081528281209350601f198516905b8181106103c757509084600195949392106103af575b505050811b016003556100ec565b01515f1960f88460031b161c191690555f80806103a1565b9293602060018192878601518155019501930161038b565b60035f529091507fc2575a0e9e593c00f959f8c92f12db2869c3395a3b0502d05e2516446f71f85b601f840160051c81019160208510610443575b90601f859493920160051c01905b81811061043557506100c1565b5f8155849350600101610428565b909150819061041a565b91607f16916100ad565b5f80fd5b6040519190601f01601f191682016001600160401b0381118382101761035a57604052565b81601f82011215610457578051906001600160401b03821161035a576104af601f8301601f191660200161045b565b928284526020838301011161045757815f9260208093018386015e830101529056fe60806040526004361015610011575f80fd5b5f3560e01c806306fdde0314610dea578063095ea7b314610d6857806318160ddd14610d4b57806323b872dd14610c6c578063313ce56714610c5157806340c10f1914610b315780634baa17aa14610b095780635ffde7be14610aec5780636949faeb14610acf57806370a0823114610a98578063715018a614610a3d5780637ff9b59614610a205780638d6cc56d146108d05780638da5cb5b146108a857806395d89b41146107ab5780639dc29fac14610605578063a9059cbb146105d4578063aa2fe91b14610597578063ab153f8814610558578063abb1dc44146103f3578063adec07c71461030f578063c1a3f0ae146102c8578063dd62ed3e14610278578063ed58bad8146101b65763f2fde38b1461012c575f80fd5b346101b25760203660031901126101b257610145610e39565b61014d6110b1565b6001600160a01b0316801561019f57600580546001600160a01b0319811683179091556001600160a01b03167f8be0079c531659141344cd1fd0a4f28419497f9722a3daafe3b4186f6b6457e05f80a3005b631e4fbdf760e01b5f525f60045260245ffd5b5f80fd5b346101b25760403660031901126101b2576101cf610e39565b602435908115158092036101b2576101e56110b1565b6001600160a01b031690811561023a5760207f9041c22ed79d1c19c69cc22fd9e38c93da4f2dd8cd32580594e232a8a18541cb91835f526007825260405f2060ff1981541660ff8316179055604051908152a2005b60405162461bcd60e51b8152602060048201526016602482015275496e76616c6964206d696e746572206164647265737360501b6044820152606490fd5b346101b25760403660031901126101b257610291610e39565b610299610e4f565b6001600160a01b039182165f908152600160209081526040808320949093168252928352819020549051908152f35b346101b25760203660031901126101b25760206103076102fe6004356102ef811515610f3b565b670de0b6b3a764000090610fd6565b60065490610fe9565b604051908152f35b346101b25760203660031901126101b25760043561032b6110b1565b80156103ae5760095490818114610372577fc06aa69f9b7f4011f8b65090e845fd0cbb4040ba7554d3a0f69455572ed8b501918160409260095582519182526020820152a1005b60405162461bcd60e51b8152602060048201526014602482015273496e74657276616c206973207468652073616d6560601b6044820152606490fd5b60405162461bcd60e51b815260206004820152601f60248201527f496e74657276616c206d7573742062652067726561746572207468616e2030006044820152606490fd5b346101b2575f3660031901126101b25761040b610e65565b604051905f6004548060011c9060018116801561054e575b60208310811461053a5782865290811561051e57506001146104c8575b50829003601f01601f191682019167ffffffffffffffff8311818410176104b45761049292604052600254906006546104a060018060a01b03600554169260405196879660a0885260a0880190610e15565b908682036020880152610e15565b926040850152606084015260808301520390f35b634e487b7160e01b5f52604160045260245ffd5b60045f9081529091507f8a35acfbc15ff81a39ae7d344fd709f28e8600b4aa8c65c6b64bfe7fe36bd19b5b82821061050857506020915083010183610440565b60018160209254838589010152019101906104f3565b90506020925060ff191682850152151560051b83010183610440565b634e487b7160e01b5f52602260045260245ffd5b91607f1691610423565b346101b25760203660031901126101b257602061030761058860043561057f811515610f3b565b60065490610fd6565b670de0b6b3a764000090610fe9565b346101b25760203660031901126101b2576001600160a01b036105b8610e39565b165f526007602052602060ff60405f2054166040519015158152f35b346101b25760403660031901126101b2576105fa6105f0610e39565b6024359033611007565b602060405160018152f35b346101b25760403660031901126101b25761061e610e39565b60243590335f52600760205260ff60405f2054161561076d576001600160a01b0316801561072857610651821515610f3b565b805f525f6020528160405f2054106106ec578061069b575f5160206110d95f395f51905f526020836106865f95600254610f87565b6002555b8060025403600255604051908152a3005b805f525f60205260405f20548281106106d3576020835f945f5160206110d95f395f51905f529385875286845203604086205561068a565b9063391434e360e21b5f5260045260245260445260645ffd5b60405162461bcd60e51b8152602060048201526014602482015273496e73756666696369656e742062616c616e636560601b6044820152606490fd5b60405162461bcd60e51b815260206004820152601d60248201527f43616e6e6f74206275726e2066726f6d207a65726f20616464726573730000006044820152606490fd5b60405162461bcd60e51b81526020600482015260166024820152752737ba1030baba3437b934bd32b2103a3790313ab93760511b6044820152606490fd5b346101b2575f3660031901126101b2576040515f6004548060011c9060018116801561089e575b60208310811461053a57828552908115610882575060011461082c575b50819003601f01601f191681019067ffffffffffffffff8211818310176104b45760408290526020808352829161082891830190610e15565b0390f35b60045f9081529091507f8a35acfbc15ff81a39ae7d344fd709f28e8600b4aa8c65c6b64bfe7fe36bd19b5b82821061086c575060209150820101826107ef565b6001816020925483858801015201910190610857565b90506020925060ff191682840152151560051b820101826107ef565b91607f16916107d2565b346101b2575f3660031901126101b2576005546040516001600160a01b039091168152602090f35b346101b25760203660031901126101b2576004356108ec6110b1565b80156109db57600654908181146109a25761090c60085460095490610f87565b4210610953577f15819dd2fd9f6418b142e798d08a18d0bf06ea368f4480b7b0d3f75bd966bc489181606092600655426008556040519182526020820152426040820152a1005b60405162461bcd60e51b815260206004820152602160248201527f50726963652075706461746520636f6f6c646f776e206e6f7420656c617073656044820152601960fa1b6064820152608490fd5b60405162461bcd60e51b81526020600482015260116024820152705072696365206973207468652073616d6560781b6044820152606490fd5b60405162461bcd60e51b815260206004820152601c60248201527f5072696365206d7573742062652067726561746572207468616e2030000000006044820152606490fd5b346101b2575f3660031901126101b2576020600654604051908152f35b346101b2575f3660031901126101b257610a556110b1565b600580546001600160a01b031981169091555f906001600160a01b03167f8be0079c531659141344cd1fd0a4f28419497f9722a3daafe3b4186f6b6457e08280a3005b346101b25760203660031901126101b2576001600160a01b03610ab9610e39565b165f525f602052602060405f2054604051908152f35b346101b2575f3660031901126101b2576020600854604051908152f35b346101b2575f3660031901126101b2576020600954604051908152f35b346101b2575f3660031901126101b2576040610b23610fa8565b825191151582526020820152f35b346101b25760403660031901126101b257610b4a610e39565b60243590335f52600760205260ff60405f20541615610c13576001600160a01b0316908115610bce575f5160206110d95f395f51905f52602082610b905f941515610f3b565b610b9c81600254610f87565b60025584158414610bb95780600254036002555b604051908152a3005b84845283825260408420818154019055610bb0565b60405162461bcd60e51b815260206004820152601b60248201527f43616e6e6f74206d696e7420746f207a65726f206164647265737300000000006044820152606490fd5b60405162461bcd60e51b8152602060048201526016602482015275139bdd08185d5d1a1bdc9a5e9959081d1bc81b5a5b9d60521b6044820152606490fd5b346101b2575f3660031901126101b257602060405160128152f35b346101b25760603660031901126101b257610c85610e39565b610c8d610e4f565b6001600160a01b0382165f818152600160209081526040808320338452909152902054909260443592915f198110610ccb575b506105fa9350611007565b838110610d30578415610d1d573315610d0a576105fa945f52600160205260405f2060018060a01b0333165f526020528360405f209103905584610cc0565b634a1406b160e11b5f525f60045260245ffd5b63e602df0560e01b5f525f60045260245ffd5b8390637dc7a0d960e11b5f523360045260245260445260645ffd5b346101b2575f3660031901126101b2576020600254604051908152f35b346101b25760403660031901126101b257610d81610e39565b602435903315610d1d576001600160a01b0316908115610d0a57335f52600160205260405f20825f526020528060405f20556040519081527f8c5be1e5ebec7d5bd14f71427d1e84f3dd0314c0f7b2291e5b200ac8c7c3b92560203392a3602060405160018152f35b346101b2575f3660031901126101b257610828610e05610e65565b6040519182916020835260208301905b805180835260209291819084018484015e5f828201840152601f01601f1916010190565b600435906001600160a01b03821682036101b257565b602435906001600160a01b03821682036101b257565b604051905f6003548060011c90600181168015610f31575b60208310811461053a57828652908115610f155750600114610ebf575b50829003601f01601f1916820167ffffffffffffffff8111838210176104b457604052565b60035f9081529091507fc2575a0e9e593c00f959f8c92f12db2869c3395a3b0502d05e2516446f71f85b5b828210610eff5750602091508301015f610e9a565b6001816020925483858901015201910190610eea565b90506020925060ff191682850152151560051b8301015f610e9a565b91607f1691610e7d565b15610f4257565b60405162461bcd60e51b815260206004820152601d60248201527f416d6f756e74206d7573742062652067726561746572207468616e20300000006044820152606490fd5b91908201809211610f9457565b634e487b7160e01b5f52601160045260245ffd5b610fb760085460095490610f87565b428111610fc657506001905f90565b90428203918211610f94575f9190565b81810292918115918404141715610f9457565b8115610ff3570490565b634e487b7160e01b5f52601260045260245ffd5b6001600160a01b031690811561109e576001600160a01b031691821561108b57815f525f60205260405f205481811061107257815f5160206110d95f395f51905f5292602092855f525f84520360405f2055845f525f825260405f20818154019055604051908152a3565b8263391434e360e21b5f5260045260245260445260645ffd5b63ec442f0560e01b5f525f60045260245ffd5b634b637e8f60e11b5f525f60045260245ffd5b6005546001600160a01b031633036110c557565b63118cdaa760e01b5f523360045260245ffdfeddf252ad1be2c89b69c2b068fc378daa952ba7f163c4a11628f55a4df523b3efa26469706673582212209b7cba6ffaa808db598bd271466b6d68bc211c5c29c2841661776e7aa2c84e0464736f6c634300081c0033a2646970667358221220b2658c81c6daa87a880cde8193684c8752b8db16f07df4309d53a3364053d32664736f6c634300081c0033",
  "linkReferences": {},
  "deployedLinkReferences": {},
  "immutableReferences": {},
  "inputSourceName": "project/contracts/CreatorTokenFactory.sol",
  "buildInfoId": "solc-0_8_28-442613ed5c2aace2aa61cda19a9c777d74d35645"
}