{
  "_format": "hh3-artifact-1",
  "contractName": "PredictionMarket",
  "sourceName": "contracts/PredictionMarket.sol",
  "abi": [
    {
      "inputs": [
        {
          "internalType": "address",
          "name": "factoryAddress",
          "type": "address"
        }
      ],
      "stateMutability": "nonpayable",
      "type": "constructor"
    },
    {
      "inputs": [
        {
          "internalType": "address",
          "name": "owner",
          "type": "address"
        }
      ],
      "name": "OwnableInvalidOwner",
      "type": "error"
    },
    {
      "inputs": [
        {
          "internalType": "address",
          "name": "account",
          "type": "address"
        }
      ],
      "name": "OwnableUnauthorizedAccount",
      "type": "error"
    },
    {
      "inputs": [],
      "name": "ReentrancyGuardReentrantCall",
      "type": "error"
    },
    {
      "anonymous": false,
      "inputs": [
        {
          "indexed": true,
          "internalType": "uint256",
          "name": "predictionId",
          "type": "uint256"
        },
        {
          "indexed": true,
          "internalType": "address",
          "name": "bettor",
          "type": "address"
        },
        {
          "indexed": false,
          "internalType": "uint256",
          "name": "optionIndex",
          "type": "uint256"
        },
        {
          "indexed": false,
          "internalType": "uint256",
          "name": "amount",
          "type": "uint256"
        }
      ],
      "name": "BetPlaced",
      "type": "event"
    },
    {
      "anonymous": false,
      "inputs": [
        {
          "indexed": false,
          "internalType": "string",
          "name": "parameter",
          "type": "string"
        },
        {
          "indexed": false,
          "internalType": "uint256",
          "name": "oldValue",
          "type": "uint256"
        },
        {
          "indexed": false,
          "internalType": "uint256",
          "name": "newValue",
          "type": "uint256"
        }
      ],
      "name": "ConfigUpdated",
      "type": "event"
    },
    {
      "anonymous": false,
      "inputs": [
        {
          "indexed": true,
          "internalType": "uint256",
          "name": "predictionId",
          "type": "uint256"
        },
        {
          "indexed": false,
          "internalType": "uint256",
          "name": "endsAt",
          "type": "uint256"
        }
      ],
      "name": "CooldownStarted",
      "type": "event"
    },
    {
      "anonymous": false,
      "inputs": [
        {
          "indexed": true,
          "internalType": "uint256",
          "name": "predictionId",
          "type": "uint256"
        },
        {
          "indexed": false,
          "internalType": "uint256",
          "name": "timestamp",
          "type": "uint256"
        }
      ],
      "name": "OutcomeConfirmed",
      "type": "event"
    },
    {
      "anonymous": false,
      "inputs": [
        {
          "indexed": true,
          "internalType": "uint256",
          "name": "predictionId",
          "type": "uint256"
        },
        {
          "indexed": false,
          "internalType": "string",
          "name": "reason",
          "type": "string"
        },
        {
          "indexed": false,
          "internalType": "uint256",
          "name": "timestamp",
          "type": "uint256"
        }
      ],
      "name": "OutcomeDisputed",
      "type": "event"
    },
    {
      "anonymous": false,
      "inputs": [
        {
          "indexed": true,
          "internalType": "uint256",
          "name": "predictionId",
          "type": "uint256"
        },
        {
          "indexed": true,
          "internalType": "address",
          "name": "reporter",
          "type": "address"
        },
        {
          "indexed": false,
          "internalType": "uint256",
          "name": "reportCount",
          "type": "uint256"
        },
        {
          "indexed": false,
          "internalType": "uint256",
          "name": "timestamp",
          "type": "uint256"
        }
      ],
      "name": "OutcomeReported",
      "type": "event"
    },
    {
      "anonymous": false,
      "inputs": [
        {
          "indexed": true,
          "internalType": "address",
          "name": "previousOwner",
          "type": "address"
        },
        {
          "indexed": true,
          "internalType": "address",
          "name": "newOwner",
          "type": "address"
        }
      ],
      "name": "OwnershipTransferred",
      "type": "event"
    },
    {
      "anonymous": false,
      "inputs": [
        {
          "indexed": true,
          "internalType": "uint256",
          "name": "predictionId",
          "type": "uint256"
        },
        {
          "indexed": false,
          "internalType": "uint256",
          "name": "timestamp",
          "type": "uint256"
        }
      ],
      "name": "PredictionClosed",
      "type": "event"
    },
    {
      "anonymous": false,
      "inputs": [
        {
          "indexed": true,
          "internalType": "uint256",
          "name": "predictionId",
          "type": "uint256"
        },
        {
          "indexed": true,
          "internalType": "address",
          "name": "creator",
          "type": "address"
        },
        {
          "indexed": true,
          "internalType": "address",
          "name": "creatorToken",
          "type": "address"
        },
        {
          "indexed": false,
          "internalType": "string",
          "name": "title",
          "type": "string"
        },
        {
          "indexed": false,
          "internalType": "uint256",
          "name": "closesAt",
          "type": "uint256"
        }
      ],
      "name": "PredictionCreated",
      "type": "event"
    },
    {
      "anonymous": false,
      "inputs": [
        {
          "indexed": true,
          "internalType": "uint256",
          "name": "predictionId",
          "type": "uint256"
        },
        {
          "indexed": false,
          "internalType": "uint256",
          "name": "winningOption",
          "type": "uint256"
        },
        {
          "indexed": false,
          "internalType": "enum PredictionMarket.PredictionStatus",
          "name": "status",
          "type": "uint8"
        },
        {
          "indexed": false,
          "internalType": "uint256",
          "name": "timestamp",
          "type": "uint256"
        }
      ],
      "name": "PredictionResolved",
      "type": "event"
    },
    {
      "anonymous": false,
      "inputs": [
        {
          "indexed": true,
          "internalType": "uint256",
          "name": "predictionId",
          "type": "uint256"
        },
        {
          "indexed": true,
          "internalType": "address",
          "name": "winner",
          "type": "address"
        },
        {
          "indexed": false,
          "internalType": "uint256",
          "name": "amount",
          "type": "uint256"
        }
      ],
      "name": "RewardClaimed",
      "type": "event"
    },
    {
      "anonymous": false,
      "inputs": [
        {
          "indexed": true,
          "internalType": "uint256",
          "name": "predictionId",
          "type": "uint256"
        },
        {
          "indexed": false,
          "internalType": "uint256",
          "name": "timestamp",
          "type": "uint256"
        }
      ],
      "name": "UnderReview",
      "type": "event"
    },
    {
      "inputs": [
        {
          "internalType": "uint256",
          "name": "predictionId",
          "type": "uint256"
        }
      ],
      "name": "claimRefund",
      "outputs": [],
      "stateMutability": "nonpayable",
      "type": "function"
    },
    {
      "inputs": [
        {
          "internalType": "uint256",
          "name": "predictionId",
          "type": "uint256"
        }
      ],
      "name": "claimReward",
      "outputs": [],
      "stateMutability": "nonpayable",
      "type": "function"
    },
    {
      "inputs": [
        {
          "internalType": "uint256",
          "name": "predictionId",
          "type": "uint256"
        }
      ],
      "name": "closePrediction",
      "outputs": [],
      "stateMutability": "nonpayable",
      "type": "function"
    },
    {
      "inputs": [
        {
          "internalType": "uint256",
          "name": "predictionId",
          "type": "uint256"
        }
      ],
      "name": "confirmOutcome",
      "outputs": [],
      "stateMutability": "nonpayable",
      "type": "function"
    },
    {
      "inputs": [],
      "name": "cooldownDuration",
      "outputs": [
        {
          "internalType": "uint256",
          "name": "",
          "type": "uint256"
        }
      ],
      "stateMutability": "view",
      "type": "function"
    },
    {
      "inputs": [
        {
          "internalType": "address",
          "name": "creatorToken",
          "type": "address"
        },
        {
          "internalType": "string",
          "name": "title",
          "type": "string"
        },
        {
          "internalType": "string",
          "name": "description",
          "type": "string"
        },
        {
          "internalType": "string[]",
          "name": "optionDescriptions",
          "type": "string[]"
        },
        {
          "internalType": "uint256",
          "name": "duration",
          "type": "uint256"
        },
        {
          "internalType": "uint256",
          "name": "creatorFee",
          "type": "uint256"
        }
      ],
      "name": "createPrediction",
      "outputs": [
        {
          "internalType": "uint256",
          "name": "",
          "type": "uint256"
        }
      ],
      "stateMutability": "nonpayable",
      "type": "function"
    },
    {
      "inputs": [],
      "name": "factory",
      "outputs": [
        {
          "internalType": "contract CreatorTokenFactory",
          "name": "",
          "type": "address"
        }
      ],
      "stateMutability": "view",
      "type": "function"
    },
    {
      "inputs": [
        {
          "internalType": "uint256",
          "name": "predictionId",
          "type": "uint256"
        },
        {
          "internalType": "string",
          "name": "reason",
          "type": "string"
        }
      ],
      "name": "flagFraud",
      "outputs": [],
      "stateMutability": "nonpayable",
      "type": "function"
    },
    {
      "inputs": [
        {
          "internalType": "uint256",
          "name": "predictionId",
          "type": "uint256"
        },
        {
          "internalType": "uint256",
          "name": "optionIndex",
          "type": "uint256"
        }
      ],
      "name": "getBetOption",
      "outputs": [
        {
          "internalType": "string",
          "name": "description",
          "type": "string"
        },
        {
          "internalType": "uint256",
          "name": "totalAmount",
          "type": "uint256"
        },
        {
          "internalType": "uint256",
          "name": "totalBettors",
          "type": "uint256"
        }
      ],
      "stateMutability": "view",
      "type": "function"
    },
    {
      "inputs": [
        {
          "internalType": "uint256",
          "name": "predictionId",
          "type": "uint256"
        }
      ],
      "name": "getPredictionInfo",
      "outputs": [
        {
          "internalType": "address",
          "name": "creator",
          "type": "address"
        },
        {
          "internalType": "address",
          "name": "creatorToken",
          "type": "address"
        },
        {
          "internalType": "string",
          "name": "title",
          "type": "string"
        },
        {
          "internalType": "enum PredictionMarket.PredictionStatus",
          "name": "status",
          "type": "uint8"
        },
        {
          "internalType": "uint256",
          "name": "totalPool",
          "type": "uint256"
        },
        {
          "internalType": "uint256",
          "name": "closesAt",
          "type": "uint256"
        },
        {
          "internalType": "uint256",
          "name": "optionsCount",
          "type": "uint256"
        }
      ],
      "stateMutability": "view",
      "type": "function"
    },
    {
      "inputs": [
        {
          "internalType": "uint256",
          "name": "predictionId",
          "type": "uint256"
        },
        {
          "internalType": "address",
          "name": "user",
          "type": "address"
        }
      ],
      "name": "getUserBets",
      "outputs": [
        {
          "components": [
            {
              "internalType": "address",
              "name": "bettor",
              "type": "address"
            },
            {
              "internalType": "uint256",
              "name": "optionIndex",
              "type": "uint256"
            },
            {
              "internalType": "uint256",
              "name": "amount",
              "type": "uint256"
            },
            {
              "internalType": "bool",
              "name": "claimed",
              "type": "bool"
            }
          ],
          "internalType": "struct PredictionMarket.Bet[]",
          "name": "",
          "type": "tuple[]"
        }
      ],
      "stateMutability": "view",
      "type": "function"
    },
    {
      "inputs": [
        {
          "internalType": "uint256",
          "name": "",
          "type": "uint256"
        },
        {
          "internalType": "address",
          "name": "",
          "type": "address"
        }
      ],
      "name": "hasReported",
      "outputs": [
        {
          "internalType": "bool",
          "name": "",
          "type": "bool"
        }
      ],
      "stateMutability": "view",
      "type": "function"
    },
    {
      "inputs": [],
      "name": "minReportsRequired",
      "outputs": [
        {
          "internalType": "uint256",
          "name": "",
          "type": "uint256"
        }
      ],
      "stateMutability": "view",
      "type": "function"
    },
    {
      "inputs": [],
      "name": "nextPredictionId",
      "outputs": [
        {
          "internalType": "uint256",
          "name": "",
          "type": "uint256"
        }
      ],
      "stateMutability": "view",
      "type": "function"
    },
    {
      "inputs": [],
      "name": "owner",
      "outputs": [
        {
          "internalType": "address",
          "name": "",
          "type": "address"
        }
      ],
      "stateMutability": "view",
      "type": "function"
    },
    {
      "inputs": [
        {
          "internalType": "uint256",
          "name": "predictionId",
          "type": "uint256"
        },
        {
          "internalType": "uint256",
          "name": "optionIndex",
          "type": "uint256"
        },
        {
          "internalType": "uint256",
          "name": "amount",
          "type": "uint256"
        }
      ],
      "name": "placeBet",
      "outputs": [],
      "stateMutability": "nonpayable",
      "type": "function"
    },
    {
      "inputs": [
        {
          "internalType": "uint256",
          "name": "",
          "type": "uint256"
        }
      ],
      "name": "predictions",
      "outputs": [
        {
          "internalType": "uint256",
          "name": "id",
          "type": "uint256"
        },
        {
          "internalType": "address",
          "name": "creator",
          "type": "address"
        },
        {
          "internalType": "address",
          "name": "creatorToken",
          "type": "address"
        },
        {
          "internalType": "string",
          "name": "title",
          "type": "string"
        },
        {
          "internalType": "string",
          "name": "description",
          "type": "string"
        },
        {
          "internalType": "uint256",
          "name": "createdAt",
          "type": "uint256"
        },
        {
          "internalType": "uint256",
          "name": "closesAt",
          "type": "uint256"
        },
        {
          "internalType": "uint256",
          "name": "resolvedAt",
          "type": "uint256"
        },
        {
          "internalType": "enum PredictionMarket.PredictionStatus",
          "name": "status",
          "type": "uint8"
        },
        {
          "internalType": "uint256",
          "name": "winningOption",
          "type": "uint256"
        },
        {
          "internalType": "uint256",
          "name": "cooldownEndsAt",
          "type": "uint256"
        },
        {
          "internalType": "uint256",
          "name": "reportCount",
          "type": "uint256"
        },
        {
          "internalType": "uint256",
          "name": "totalPool",
          "type": "uint256"
        },
        {
          "internalType": "uint256",
          "name": "creatorFee",
          "type": "uint256"
        }
      ],
      "stateMutability": "view",
      "type": "function"
    },
    {
      "inputs": [],
      "name": "renounceOwnership",
      "outputs": [],
      "stateMutability": "nonpayable",
      "type": "function"
    },
    {
      "inputs": [
        {
          "internalType": "uint256",
          "name": "predictionId",
          "type": "uint256"
        }
      ],
      "name": "reportOutcome",
      "outputs": [],
      "stateMutability": "nonpayable",
      "type": "function"
    },
    {
      "inputs": [],
      "name": "reportThresholdPercentage",
      "outputs": [
        {
          "internalType": "uint256",
          "name": "",
          "type": "uint256"
        }
      ],
      "stateMutability": "view",
      "type": "function"
    },
    {
      "inputs": [
        {
          "internalType": "uint256",
          "name": "predictionId",
          "type": "uint256"
        },
        {
          "internalType": "uint256",
          "name": "winningOptionIndex",
          "type": "uint256"
        }
      ],
      "name": "resolvePrediction",
      "outputs": [],
      "stateMutability": "nonpayable",
      "type": "function"
    },
    {
      "inputs": [
        {
          "internalType": "uint256",
          "name": "newDuration",
          "type": "uint256"
        }
      ],
      "name": "setCooldownDuration",
      "outputs": [],
      "stateMutability": "nonpayable",
      "type": "function"
    },
    {
      "inputs": [
        {
          "internalType": "uint256",
          "name": "newPercentage",
          "type": "uint256"
        },
        {
          "internalType": "uint256",
          "name": "newMinReports",
          "type": "uint256"
        }
      ],
      "name": "setReportThreshold",
      "outputs": [],
      "stateMutability": "nonpayable",
      "type": "function"
    },
    {
      "inputs": [
        {
          "internalType": "address",
          "name": "newOwner",
          "type": "address"
        }
      ],
      "name": "transferOwnership",
      "outputs": [],
      "stateMutability": "nonpayable",
      "type": "function"
    },
    {
      "inputs": [
        {
          "internalType": "uint256",
          "name": "",
          "type": "uint256"
        },
        {
          "internalType": "address",
          "name": "",
          "type": "address"
        },
        {
          "internalType": "uint256",
          "name": "",
          "type": "uint256"
        }
      ],
      "name": "userBets",
      "outputs": [
        {
          "internalType": "address",
          "name": "bettor",
          "type": "address"
        },
        {
          "internalType": "uint256",
          "name": "optionIndex",
          "type": "uint256"
        },
        {
          "internalType": "uint256",
          "name": "amount",
          "type": "uint256"
        },
        {
          "internalType": "bool",
          "name": "claimed",
          "type": "bool"
        }
      ],
      "stateMutability": "view",
      "type": "function"
    }
  ],
  "bytecode": "0x60803461013657601f61278938819003918201601f19168301916001600160401b0383118484101761013a5780849260209460405283398101031261013657516001600160a01b03811690819003610136573315610123575f8054336001600160a01b03198216811783556040519290916001600160a01b0316907f8be0079c531659141344cd1fd0a4f28419497f9722a3daafe3b4186f6b6457e09080a36001805561025860025560076003556005600455600160095581156100e15750600580546001600160a01b03191691909117905560405161263a908161014f8239f35b62461bcd60e51b815260206004820152601760248201527f496e76616c696420666163746f727920616464726573730000000000000000006044820152606490fd5b631e4fbdf760e01b5f525f60045260245ffd5b5f80fd5b634e487b7160e01b5f52604160045260245ffdfe60806040526004361015610011575f80fd5b5f5f3560e01c80624fbbb014611ff35780630f0c3fc414611faa57806313cdf2cb14611ecc5780631df06e9314611eaf5780633526931514611e925780634ade7ad314611d1c578063560fd1b614611ca45780635b7baf6414611abf57806361c4cc1514611a34578063715018a6146119dd5780637a9ec417146118495780637bd7bd8a1461179b578063897871e3146116a75780638da5cb5b14611680578063966be075146115ae5780639b5c83cd14610d2f578063ae169a5014610afb578063c3350c0814610869578063c45a015514610840578063c8834cda14610822578063d8d9292e14610804578063e71c96971461046d578063f2fde38b146103e7578063fa744dd3146102c05763fefac3db1461012c575f80fd5b346102bd5761013a3661227d565b8183526006602052604083206101528154151561232c565b60018101546001600160a01b03163303610278576009810160ff81541660078110156102645760010361021f57837f3366b5e49b723f848938ef04d03edcd6045dd1c6379376df364c6a12bcecd55460607f486938a17cdff5c87b3072bb5062576f69eaa4622ec7857a2cfbdcdbfc3775859585600b956101da600560209901548410612378565b82600a830155600260ff198254161790554260088201556101fd6002544261240a565b9586910155604051908152600286820152426040820152a2604051908152a280f35b60405162461bcd60e51b815260206004820152601960248201527f50726564696374696f6e206d75737420626520636c6f736564000000000000006044820152606490fd5b634e487b7160e01b86526021600452602486fd5b60405162461bcd60e51b815260206004820152601860248201527f4f6e6c792063726561746f722063616e207265736f6c766500000000000000006044820152606490fd5b80fd5b50346102bd5760403660031901126102bd576102da612251565b60043582526007602052604082209060018060a01b03165f5260205260405f20805461030581612315565b90610313604051928361215f565b80825260208201809385526020852085915b83831061039a57868587604051928392602084019060208552518091526040840192915b818110610357575050500390f35b919350916020608060019260608751858060a01b038151168352848101518584015260408101516040840152015115156060820152019401910191849392610349565b600460206001926040516103ad81612130565b848060a01b03865416815284860154838201526002860154604082015260ff60038701541615156060820152815201920192019190610325565b50346102bd5760203660031901126102bd57610401612267565b6104096124ef565b6001600160a01b031680156104595781546001600160a01b03198116821783556001600160a01b03167f8be0079c531659141344cd1fd0a4f28419497f9722a3daafe3b4186f6b6457e08380a380f35b631e4fbdf760e01b82526004829052602482fd5b50346102bd5760603660031901126102bd57602435600435604435610490612515565b8184526006602052604084206104a88154151561232c565b60ff6009820154166007811015610264576104c3901561249d565b60078101544210156107cb57600581016104df81548610612378565b8215610786576005546001830154604051637096920b60e11b81526001600160a01b0391821660048201529160209183916024918391165afa908115610723578791610767575b501561072e5760028201546040516323b872dd60e01b81523360048201523060248201526044810185905290602090829060649082908b906001600160a01b03165af18015610723576105809188916106f4575b50612443565b83865260076020526040862060018060a01b0333165f5260205260405f206040516105aa81612130565b33815260208101878152604082019086825260608301938a8552805490600160401b8210156106e057906105e391600182018155612293565b9390936106cc5789936002969361065d969360039360018060a01b039060018060a01b03905116166bffffffffffffffffffffffff60a01b8454161783555160018301555187820155019051151560ff80198354169116179055600161064983836123b5565b500161065687825461240a565b90556123b5565b5001805490600182018092116106b85755600d01805461067e90839061240a565b905560405192835260208301527f1b8a9031cb9351278d70a994f81536e9e08c91162e64f92b2fe4766fb7a891b460403393a36001805580f35b634e487b7160e01b87526011600452602487fd5b634e487b7160e01b8b5260048b905260248bfd5b634e487b7160e01b8c52604160045260248cfd5b610716915060203d60201161071c575b61070e818361215f565b81019061242b565b5f61057a565b503d610704565b6040513d89823e3d90fd5b60405162461bcd60e51b815260206004820152601160248201527010dc99585d1bdc881a5cc818985b9b9959607a1b6044820152606490fd5b610780915060203d60201161071c5761070e818361215f565b5f610526565b60405162461bcd60e51b815260206004820152601d60248201527f416d6f756e74206d7573742062652067726561746572207468616e20300000006044820152606490fd5b60405162461bcd60e51b8152602060048201526011602482015270141c99591a58dd1a5bdb8818db1bdcd959607a1b6044820152606490fd5b50346102bd57806003193601126102bd576020600954604051908152f35b50346102bd57806003193601126102bd576020600354604051908152f35b50346102bd57806003193601126102bd576005546040516001600160a01b039091168152602090f35b50346102bd5760203660031901126102bd576004358082526006602052604082206108968154151561232c565b600981019060ff8254166007811015610ae757600203610aa957600b810154421015610a6c57828452600860209081526040808620335f908152925290205460ff16610a3457828452600760209081526040808620335f9081529252902054156109f657828452600860209081526040808620335f90815292529020805460ff19166001179055600c01805461092b906124e1565b809155604051818152426020820152837fb48ebc950becd9344035b41efadaa0c158680988f06fe7c33def914fac00d2b460403393a38284526006602052604084208460058692018054905b8184106109cf57505061098a91506125e1565b1115610994578280f35b600360ff198254161790557f0502c603c65ded55ed0e1828307bcc449cead97c05f0abd2eb22b242e834b5346020604051428152a25f808280f35b90916109ec60019160026109e387866123b5565b5001549061240a565b9301929190610977565b60405162461bcd60e51b8152602060048201526016602482015275135d5cdd081a185d99481c185c9d1a58da5c185d195960521b6044820152606490fd5b60405162461bcd60e51b815260206004820152601060248201526f105b1c9958591e481c995c1bdc9d195960821b6044820152606490fd5b60405162461bcd60e51b815260206004820152601560248201527410dbdbdb191bdddb881c195c9a5bd908195b991959605a1b6044820152606490fd5b60405162461bcd60e51b8152602060048201526016602482015275139bdd081a5b8818dbdbdb191bdddb881c195c9a5bd960521b6044820152606490fd5b634e487b7160e01b85526021600452602485fd5b50346102bd5760203660031901126102bd57600435610b18612515565b80825260066020526040822090610b318254151561232c565b60ff6009830154166007811015610d1b57600403610cd65780835260076020526040832060018060a01b0333165f5260205260405f2090610b74825415156123ce565b8392845b8354811015610c075760ff6003610b8f8387612293565b500154161580610bec575b610ba7575b600101610b78565b93610be46001916003610bba8888612293565b5001805460ff191684179055610bde6002610bd58989612293565b50015486612555565b9061240a565b949050610b9f565b506001610bf98286612293565b500154600a83015414610b9a565b509091508215610c9b576002015460405163a9059cbb60e01b815233600482015260248101849052906020908290604490829088906001600160a01b03165af18015610c9057610c5d9185916106f45750612443565b6040519182527f24b5efa61dd1cfc659205a97fb8ed868f3cb8c81922bab2b96423e5de1de2cb760203393a36001805580f35b6040513d86823e3d90fd5b60405162461bcd60e51b81526020600482015260136024820152724e6f207265776172647320746f20636c61696d60681b6044820152606490fd5b60405162461bcd60e51b815260206004820152601860248201527f50726564696374696f6e206e6f7420636f6e6669726d656400000000000000006044820152606490fd5b634e487b7160e01b84526021600452602484fd5b50346102bd5760c03660031901126102bd57610d49612267565b6024356001600160401b0381116115a657610d689036906004016122c0565b916044356001600160401b0381116115aa57610d889036906004016122c0565b91606435906001600160401b0382116115a657366023830112156115a657816004013591610db583612315565b92610dc3604051948561215f565b80845260051b8101602401602084013682116113ca5760248301905b82821061157357505050506084359060a43595600284511061152e57600a8451116114f657603c83106114bc576301e13380831161148357600a871161144557600554604051637096920b60e11b81523360048201526001600160a01b039091169290602081602481875afa908115610723578791611426575b50156113e1576020602493604051948580926334e4aef160e21b82523360048301525afa9283156113d657869361138e575b506001600160a01b03908116921682900361134a5760095492610ead846124e1565b6009558386526006602052604086208481556001810180546001600160a01b0319908116331790915560028201805490911685179055825190979060038901906001600160401b03811161118757610f0582546120f8565b601f8111611305575b50806020601f82116001146112a5578a9161129a575b508160011b915f199060031b1c19161790555b805160048901916001600160401b03821161118757610f5683546120f8565b601f8111611255575b50602090601f83116001146111eb57610fa0949392918a91836111e0575b50508160011b915f199060031b1c19161790559796975b4260068a01554261240a565b95600788019687556009880160ff198154169055600e8801556005859701965b845181101561119b5760208160051b8601015160405190606082018281106001600160401b038211176111875760405281526020810187815260408201908882528a54600160401b8110156111735780600161101f92018d558c6123b5565b93909361115f57518051906001600160401b03821161114b5761104285546120f8565b601f8111611106575b506020908b601f841160011461109b579260029492819260019998979592611090575b50505f19600383901b1c191690871b1784555b51858401555191015501610fc0565b015190505f8061106e565b50858c52818c209190601f1984168d5b8181106110ee575092600198979694919289938360029896106110d6575b505050811b018455611081565b01515f1960f88460031b161c191690555f80806110c9565b929360206001819287860151815501950193016110ab565b858c5260208c20601f840160051c81019160208510611141575b601f0160051c01905b818110611136575061104b565b8c8155600101611129565b9091508190611120565b634e487b7160e01b8b52604160045260248bfd5b634e487b7160e01b8a5260048a905260248afd5b634e487b7160e01b8a52604160045260248afd5b634e487b7160e01b89526041600452602489fd5b5060209350827f787f00290a41b221b4899b23875d007d077fc4f6d26cf853f8cc820455edd2096111d58854604051918291339683612481565b0390a4604051908152f35b015190505f80610f7d565b838a52818a209190601f1984168b5b81811061123d5750916001939185610fa09897969410611225575b505050811b019055979697610f94565b01515f1960f88460031b161c191690555f8080611215565b929360206001819287860151815501950193016111fa565b838a5260208a20601f840160051c81019160208510611290575b601f0160051c01905b8181106112855750610f5f565b8a8155600101611278565b909150819061126f565b90508501515f610f24565b838b52808b209150601f1983168b5b8181106112ed575090836001949392106112d5575b5050811b019055610f37565b8701515f1960f88460031b161c191690555f806112c9565b9192602060018192868c0151815501940192016112b4565b828a5260208a20601f830160051c81019160208410611340575b601f0160051c01905b8181106113355750610f0e565b8a8155600101611328565b909150819061131f565b606460405162461bcd60e51b815260206004820152602060248201527f546f6b656e20646f6573206e6f742062656c6f6e6720746f2063726561746f726044820152fd5b9092506020813d6020116113ce575b816113aa6020938361215f565b810103126113ca57516001600160a01b03811681036113ca57915f610e8b565b8580fd5b3d915061139d565b6040513d88823e3d90fd5b60405162461bcd60e51b815260206004820152601f60248201527f43726561746f72206973206e6f7420616374697665206f722062616e6e6564006044820152606490fd5b61143f915060203d60201161071c5761070e818361215f565b5f610e59565b60405162461bcd60e51b815260206004820152601660248201527546656520746f6f206869676820286d6178203130252960501b6044820152606490fd5b60405162461bcd60e51b81526020600482015260116024820152704475726174696f6e20746f6f206c6f6e6760781b6044820152606490fd5b60405162461bcd60e51b8152602060048201526012602482015271111d5c985d1a5bdb881d1bdbc81cda1bdc9d60721b6044820152606490fd5b60405162461bcd60e51b815260206004820152601060248201526f546f6f206d616e79206f7074696f6e7360801b6044820152606490fd5b60405162461bcd60e51b815260206004820152601760248201527f4e656564206174206c656173742032206f7074696f6e730000000000000000006044820152606490fd5b81356001600160401b0381116115a2576020916115978392602436918901016122c0565b815201910190610ddf565b8780fd5b8280fd5b5080fd5b50346102bd5760203660031901126102bd576004356115cb6124ef565b603c81101580611673575b1561163b577fd7474166e78731bc168caca1fe1ccebbd6f3c95baee64997902e6b48f442b81a60a06002546040519060608252601060608301526f31b7b7b63237bbb7223ab930ba34b7b760811b60808301526020820152836040820152a160025580f35b60405162461bcd60e51b815260206004820152601060248201526f24b73b30b634b210323ab930ba34b7b760811b6044820152606490fd5b50620151808111156115d6565b50346102bd57806003193601126102bd57546040516001600160a01b039091168152602090f35b50346102bd5760203660031901126102bd576004358082526006602052604082206116d48154151561232c565b600981019060ff8254166007811015610ae7576116f1901561249d565b60018101546001600160a01b0316331490811561178c575b501561174757600160ff198254161790557f82693e388c8d513cb77ae3ac8629e266a93d2feb906dbfde93569303e42dba736020604051428152a280f35b60405162461bcd60e51b815260206004820152601d60248201527f4e6f7420617574686f72697a6564206f72206e6f7420657870697265640000006044820152606490fd5b6007915001544210155f611709565b50346102bd5760203660031901126102bd5760409060043581526006602052206117c78154151561232c565b60018060a01b0360018201541660018060a01b036002830154169160ff60098201541690600d81015460078201549061183661182b61180d600360058701549601612180565b6040519889988952602089015260e0604089015260e0880190612220565b946060870190612244565b608085015260a084015260c08301520390f35b5034611984576040366003190112611984576004356024356001600160401b0381116119845761187d9036906004016122c0565b6118856124ef565b815f52600660205260405f2061189d8154151561232c565b6009810160ff81541660078110156119c957600281149081156119be575b501561198857805460ff1916600590811790915554600191909101546001600160a01b039182169116813b15611984575f90604051928391639d96cce160e01b83526004830152604060248301528183816119196044820189612220565b03925af1801561197957611962575b5061195c7f6943247f53fee31d04cf61d98ead2c3c6c3fc7b53cf37288a4f4f6849557c78f91604051918291429083612481565b0390a280f35b61196f9193505f9061215f565b5f9161195c611928565b6040513d5f823e3d90fd5b5f80fd5b60405162461bcd60e51b815260206004820152600e60248201526d496e76616c69642073746174757360901b6044820152606490fd5b60039150145f6118bb565b634e487b7160e01b5f52602160045260245ffd5b34611984575f366003190112611984576119f56124ef565b5f80546001600160a01b0319811682556001600160a01b03167f8be0079c531659141344cd1fd0a4f28419497f9722a3daafe3b4186f6b6457e08280a3005b3461198457606036600319011261198457611a4d612251565b604435906004355f52600760205260405f209060018060a01b03165f5260205260405f20805482101561198457608091611a8691612293565b5060018060a01b038154169060018101549060ff6003600283015492015416916040519384526020840152604083015215156060820152f35b3461198457602036600319011261198457600435611adb612515565b805f52600660205260405f20611af38154151561232c565b60ff60098201541660078110156119c957600503611c70575f82815260076020908152604080832033845290915290208054611b309015156123ce565b5f925f5b8254811015611b905760ff6003611b4b8386612293565b5001541615611b5d575b600101611b34565b93611b886001916003611b708887612293565b5001805460ff19168417905560026109e38887612293565b949050611b55565b8482858215611c36576002015460405163a9059cbb60e01b81523360048201526024810184905290602090829060449082905f906001600160a01b03165af1801561197957611be5915f91611c175750612443565b6040519182527f24b5efa61dd1cfc659205a97fb8ed868f3cb8c81922bab2b96423e5de1de2cb760203393a360018055005b611c30915060203d60201161071c5761070e818361215f565b8461057a565b60405162461bcd60e51b81526020600482015260126024820152714e6f20726566756e6420746f20636c61696d60701b6044820152606490fd5b60405162461bcd60e51b815260206004820152600c60248201526b139bdd08191a5cdc1d5d195960a21b6044820152606490fd5b3461198457611d0d611ce4611cb83661227d565b905f526006602052600560405f20611cd28154151561232c565b01611cdf81548310612378565b6123b5565b506001810154611cf8600283015492612180565b91604051938493606085526060850190612220565b91602084015260408301520390f35b3461198457611d2a3661227d565b90611d336124ef565b80151580611e87575b15611e4d578115611e12577fd7474166e78731bc168caca1fe1ccebbd6f3c95baee64997902e6b48f442b81a60a06003546040519060608252601960608301527f7265706f72745468726573686f6c6450657263656e746167650000000000000060808301526020820152836040820152a17fd7474166e78731bc168caca1fe1ccebbd6f3c95baee64997902e6b48f442b81a60a0600454604051906060825260126060830152711b5a5b94995c1bdc9d1cd4995c5d5a5c995960721b60808301526020820152846040820152a1600355600455005b60405162461bcd60e51b8152602060048201526013602482015272496e76616c6964206d696e207265706f72747360681b6044820152606490fd5b60405162461bcd60e51b8152602060048201526012602482015271496e76616c69642070657263656e7461676560701b6044820152606490fd5b506032811115611d3c565b34611984575f366003190112611984576020600254604051908152f35b34611984575f366003190112611984576020600454604051908152f35b3461198457602036600319011261198457600435611ee86124ef565b805f526006602052600960405f20611f028154151561232c565b0160ff81541660078110156119c95760028114908115611f9f575b5015611f5a57600460ff198254161790557fe2b706b8648ea80c9163fd6008ae036cc642e95470d8e7671a457d87528c1b696020604051428152a2005b60405162461bcd60e51b815260206004820152601f60248201527f496e76616c69642073746174757320666f7220636f6e6669726d6174696f6e006044820152606490fd5b600391501483611f1d565b3461198457604036600319011261198457611fc3612251565b6004355f52600860205260405f209060018060a01b03165f52602052602060ff60405f2054166040519015158152f35b34611984576020366003190112611984576004355f9081526006602052604090208054600182015460028301546001600160a01b0391821693911661203a60038301612180565b9161204760048201612180565b9260068201549360078301546008840154600985015460ff1690600a86015492600b87015494600c88015496600d89015498600e0154996040519d8e809e81526020015260408d015260608c016101c090526101c08c016120a791612220565b8b810360808d01526120b891612220565b9860a08b015260c08a015260e089015261010088016120d691612244565b6101208701526101408601526101608501526101808401526101a08301520390f35b90600182811c92168015612126575b602083101461211257565b634e487b7160e01b5f52602260045260245ffd5b91607f1691612107565b608081019081106001600160401b0382111761214b57604052565b634e487b7160e01b5f52604160045260245ffd5b90601f801991011681019081106001600160401b0382111761214b57604052565b9060405191825f825492612193846120f8565b80845293600181169081156121fe57506001146121ba575b506121b89250038361215f565b565b90505f9291925260205f20905f915b8183106121e25750509060206121b8928201015f6121ab565b60209193508060019154838589010152019101909184926121c9565b9050602092506121b894915060ff191682840152151560051b8201015f6121ab565b805180835260209291819084018484015e5f828201840152601f01601f1916010190565b9060078210156119c95752565b602435906001600160a01b038216820361198457565b600435906001600160a01b038216820361198457565b6040906003190112611984576004359060243590565b80548210156122ac575f5260205f209060021b01905f90565b634e487b7160e01b5f52603260045260245ffd5b81601f82011215611984578035906001600160401b03821161214b57604051926122f4601f8401601f19166020018561215f565b8284526020838301011161198457815f926020809301838601378301015290565b6001600160401b03811161214b5760051b60200190565b1561233357565b60405162461bcd60e51b815260206004820152601960248201527f50726564696374696f6e20646f6573206e6f74206578697374000000000000006044820152606490fd5b1561237f57565b60405162461bcd60e51b815260206004820152600e60248201526d24b73b30b634b21037b83a34b7b760911b6044820152606490fd5b80548210156122ac575f52600360205f20910201905f90565b156123d557565b60405162461bcd60e51b815260206004820152600d60248201526c139bc818995d1cc8199bdd5b99609a1b6044820152606490fd5b9190820180921161241757565b634e487b7160e01b5f52601160045260245ffd5b90816020910312611984575180151581036119845790565b1561244a57565b60405162461bcd60e51b815260206004820152600f60248201526e151c985b9cd9995c8819985a5b1959608a1b6044820152606490fd5b929190612498602091604086526040860190612220565b930152565b156124a457565b60405162461bcd60e51b815260206004820152601560248201527450726564696374696f6e206e6f742061637469766560581b6044820152606490fd5b5f1981146124175760010190565b5f546001600160a01b0316330361250257565b63118cdaa760e01b5f523360045260245ffd5b600260015414612526576002600155565b633ee5aeb560e01b5f5260045ffd5b9190820391821161241757565b8181029291811591840414171561241757565b5f52600660205260405f20906001612574600a840154600585016123b5565b5001549161258683600d830154612535565b9081156125da576125b19160646125a4600e6125ab94015483612542565b0490612535565b82612542565b9180156125c6576125c392049061240a565b90565b634e487b7160e01b5f52601260045260245ffd5b5050905090565b6125f060649160035490612542565b046004548082106125ff575090565b90509056fea264697066735822122075285f214593ef9c6bfdc772dc8d24073b224a0068fd4f59239f3a4fae2dd17064736f6c634300081c0033",
  "linkReferences": {},
  "deployedLinkReferences": {},
  "immutableReferences": {},
  "inputSourceName": "project/contracts/PredictionMarket.sol",
  "buildInfoId": "solc-0_8_28-a530d3b01d9e397e186670f6fbf4ed866d7aae9a"
}