{
  "_format": "hh3-artifact-1",
  "contractName": "TokenExchange",
  "sourceName": "contracts/TokenExchange.sol",
  "abi": [
    {
      "inputs": [
        {
          "internalType": "address",
          "name": "factoryAddress",
          "type": "address"
        }
      ],
      "stateMutability": "nonpayable",
      "type": "constructor"
    },
    {
      "inputs": [
        {
          "internalType": "address",
          "name": "owner",
          "type": "address"
        }
      ],
      "name": "OwnableInvalidOwner",
      "type": "error"
    },
    {
      "inputs": [
        {
          "internalType": "address",
          "name": "account",
          "type": "address"
        }
      ],
      "name": "OwnableUnauthorizedAccount",
      "type": "error"
    },
    {
      "inputs": [],
      "name": "ReentrancyGuardReentrantCall",
      "type": "error"
    },
    {
      "anonymous": false,
      "inputs": [
        {
          "indexed": true,
          "internalType": "address",
          "name": "recipient",
          "type": "address"
        },
        {
          "indexed": false,
          "internalType": "uint256",
          "name": "amount",
          "type": "uint256"
        }
      ],
      "name": "FeesWithdrawn",
      "type": "event"
    },
    {
      "anonymous": false,
      "inputs": [
        {
          "indexed": true,
          "internalType": "address",
          "name": "previousOwner",
          "type": "address"
        },
        {
          "indexed": true,
          "internalType": "address",
          "name": "newOwner",
          "type": "address"
        }
      ],
      "name": "OwnershipTransferred",
      "type": "event"
    },
    {
      "anonymous": false,
      "inputs": [
        {
          "indexed": false,
          "internalType": "uint256",
          "name": "oldFee",
          "type": "uint256"
        },
        {
          "indexed": false,
          "internalType": "uint256",
          "name": "newFee",
          "type": "uint256"
        }
      ],
      "name": "PlatformFeeUpdated",
      "type": "event"
    },
    {
      "anonymous": false,
      "inputs": [
        {
          "indexed": true,
          "internalType": "address",
          "name": "buyer",
          "type": "address"
        },
        {
          "indexed": true,
          "internalType": "address",
          "name": "creatorToken",
          "type": "address"
        },
        {
          "indexed": false,
          "internalType": "uint256",
          "name": "tokensAmount",
          "type": "uint256"
        },
        {
          "indexed": false,
          "internalType": "uint256",
          "name": "nativeAmount",
          "type": "uint256"
        },
        {
          "indexed": false,
          "internalType": "uint256",
          "name": "fee",
          "type": "uint256"
        }
      ],
      "name": "TokensPurchased",
      "type": "event"
    },
    {
      "anonymous": false,
      "inputs": [
        {
          "indexed": true,
          "internalType": "address",
          "name": "seller",
          "type": "address"
        },
        {
          "indexed": true,
          "internalType": "address",
          "name": "creatorToken",
          "type": "address"
        },
        {
          "indexed": false,
          "internalType": "uint256",
          "name": "tokensAmount",
          "type": "uint256"
        },
        {
          "indexed": false,
          "internalType": "uint256",
          "name": "nativeAmount",
          "type": "uint256"
        },
        {
          "indexed": false,
          "internalType": "uint256",
          "name": "fee",
          "type": "uint256"
        }
      ],
      "name": "TokensSold",
      "type": "event"
    },
    {
      "inputs": [],
      "name": "accumulatedFees",
      "outputs": [
        {
          "internalType": "uint256",
          "name": "",
          "type": "uint256"
        }
      ],
      "stateMutability": "view",
      "type": "function"
    },
    {
      "inputs": [
        {
          "internalType": "address",
          "name": "creatorToken",
          "type": "address"
        }
      ],
      "name": "buyTokens",
      "outputs": [],
      "stateMutability": "payable",
      "type": "function"
    },
    {
      "inputs": [
        {
          "internalType": "address",
          "name": "creatorToken",
          "type": "address"
        },
        {
          "internalType": "uint256",
          "name": "nativeAmount",
          "type": "uint256"
        }
      ],
      "name": "calculateBuyAmount",
      "outputs": [
        {
          "internalType": "uint256",
          "name": "tokensAmount",
          "type": "uint256"
        },
        {
          "internalType": "uint256",
          "name": "fee",
          "type": "uint256"
        }
      ],
      "stateMutability": "view",
      "type": "function"
    },
    {
      "inputs": [
        {
          "internalType": "address",
          "name": "creatorToken",
          "type": "address"
        },
        {
          "internalType": "uint256",
          "name": "tokenAmount",
          "type": "uint256"
        }
      ],
      "name": "calculateSellAmount",
      "outputs": [
        {
          "internalType": "uint256",
          "name": "nativeAmount",
          "type": "uint256"
        },
        {
          "internalType": "uint256",
          "name": "fee",
          "type": "uint256"
        }
      ],
      "stateMutability": "view",
      "type": "function"
    },
    {
      "inputs": [
        {
          "internalType": "address payable",
          "name": "recipient",
          "type": "address"
        },
        {
          "internalType": "uint256",
          "name": "amount",
          "type": "uint256"
        }
      ],
      "name": "emergencyWithdraw",
      "outputs": [],
      "stateMutability": "nonpayable",
      "type": "function"
    },
    {
      "inputs": [],
      "name": "factory",
      "outputs": [
        {
          "internalType": "contract CreatorTokenFactory",
          "name": "",
          "type": "address"
        }
      ],
      "stateMutability": "view",
      "type": "function"
    },
    {
      "inputs": [],
      "name": "getContractBalance",
      "outputs": [
        {
          "internalType": "uint256",
          "name": "",
          "type": "uint256"
        }
      ],
      "stateMutability": "view",
      "type": "function"
    },
    {
      "inputs": [],
      "name": "owner",
      "outputs": [
        {
          "internalType": "address",
          "name": "",
          "type": "address"
        }
      ],
      "stateMutability": "view",
      "type": "function"
    },
    {
      "inputs": [],
      "name": "platformFee",
      "outputs": [
        {
          "internalType": "uint256",
          "name": "",
          "type": "uint256"
        }
      ],
      "stateMutability": "view",
      "type": "function"
    },
    {
      "inputs": [],
      "name": "renounceOwnership",
      "outputs": [],
      "stateMutability": "nonpayable",
      "type": "function"
    },
    {
      "inputs": [
        {
          "internalType": "address",
          "name": "creatorToken",
          "type": "address"
        },
        {
          "internalType": "uint256",
          "name": "tokenAmount",
          "type": "uint256"
        }
      ],
      "name": "sellTokens",
      "outputs": [],
      "stateMutability": "nonpayable",
      "type": "function"
    },
    {
      "inputs": [
        {
          "internalType": "uint256",
          "name": "newFee",
          "type": "uint256"
        }
      ],
      "name": "setPlatformFee",
      "outputs": [],
      "stateMutability": "nonpayable",
      "type": "function"
    },
    {
      "inputs": [
        {
          "internalType": "address",
          "name": "newOwner",
          "type": "address"
        }
      ],
      "name": "transferOwnership",
      "outputs": [],
      "stateMutability": "nonpayable",
      "type": "function"
    },
    {
      "inputs": [
        {
          "internalType": "address payable",
          "name": "recipient",
          "type": "address"
        }
      ],
      "name": "withdrawFees",
      "outputs": [],
      "stateMutability": "nonpayable",
      "type": "function"
    },
    {
      "stateMutability": "payable",
      "type": "receive"
    }
  ],
  "bytecode": "0x60803461012657601f61100938819003918201601f19168301916001600160401b0383118484101761012a5780849260209460405283398101031261012657516001600160a01b03811690819003610126573315610113575f8054336001600160a01b03198216811783556040519290916001600160a01b0316907f8be0079c531659141344cd1fd0a4f28419497f9722a3daafe3b4186f6b6457e09080a360018055600160035581156100d15750600280546001600160a01b031916919091179055604051610eca908161013f8239f35b62461bcd60e51b815260206004820152601760248201527f496e76616c696420666163746f727920616464726573730000000000000000006044820152606490fd5b631e4fbdf760e01b5f525f60045260245ffd5b5f80fd5b634e487b7160e01b5f52604160045260245ffdfe6080604052600436101561001a575b3615610018575f80fd5b005b5f5f3560e01c806312e8e2c314610ae3578063164e68de14610a2657806326232a2e14610a09578063573a5b6b1461094f578063587f5ed7146109325780636f9fb98a14610917578063715018a6146108c05780638da5cb5b1461089957806395ccea6714610838578063c45a015514610810578063c464fe65146104a9578063ec8ac4d814610215578063f2f2c5c4146101475763f2fde38b146100bf575061000e565b34610144576020366003190112610144576100d8610b7c565b6100e0610e4e565b6001600160a01b031680156101305781546001600160a01b03198116821783556001600160a01b03167f8be0079c531659141344cd1fd0a4f28419497f9722a3daafe3b4186f6b6457e08380a380f35b631e4fbdf760e01b82526004829052602482fd5b80fd5b503461014457604036600319011261014457610161610b7c565b90602435610170811515610c85565b602061018b606461018360035485610cd1565b048093610cf8565b6040516360d1f85760e11b8152600481019190915293849060249082906001600160a01b03165afa91821561020957916101d0575b6040809350519182526020820152f35b90506020823d602011610201575b816101eb60209383610bd2565b810103126101fd5760409151906101c0565b5f80fd5b3d91506101de565b604051903d90823e3d90fd5b5060203660031901126101445761022a610b7c565b610232610e74565b34156104645760025460405163c78418b960e01b81526001600160a01b03928316600482018190529290911690602081602481855afa80156103f2576020918591610437575b506001600160a01b031661028d811515610d67565b602460405180948193637096920b60e11b835260048301525afa801561042c576102be9184916103fd575b50610dc2565b60646102cc60035434610cd1565b046102d78134610cf8565b90604051916360d1f85760e11b83526004830152602082602481865afa9182156103f25784926103be575b5061030e821515610e02565b61031a81600454610e41565b600455823b156103af576040516340c10f1960e01b8152336004820152602481018390528490818160448183895af180156103b35761039a575b50506040805192835234602084015282015233907f377aadedb6b2a771959584d10a6a36eccb5f56b4eb3a48525f76108d2660d8d49080606081015b0390a36001805580f35b816103a491610bd2565b6103af57835f610354565b8380fd5b6040513d84823e3d90fd5b9091506020813d6020116103ea575b816103da60209383610bd2565b810103126101fd5751905f610302565b3d91506103cd565b6040513d86823e3d90fd5b61041f915060203d602011610425575b6104178183610bd2565b810190610daa565b5f6102b8565b503d61040d565b6040513d85823e3d90fd5b6104579150823d841161045d575b61044f8183610bd2565b810190610d48565b5f610278565b503d610445565b60405162461bcd60e51b815260206004820152601960248201527f4d7573742073656e64206e61746976652063757272656e6379000000000000006044820152606490fd5b50346101fd5760403660031901126101fd576104c3610b7c565b6024356104ce610e74565b6104d9811515610c85565b60025460405163c78418b960e01b81526001600160a01b03938416600482018190529390911690602081602481855afa801561071c576020915f916107f3575b506001600160a01b031661052e811515610d67565b602460405180948193637096920b60e11b835260048301525afa801561071c5761055e915f916103fd5750610dc2565b6040516370a0823160e01b8152336004820152602081602481865afa801561071c5782905f906107bd575b61059592501015610d05565b604051631562a7f160e31b815260048101829052602081602481865afa90811561071c575f9161078b575b506105cc811515610e02565b60646105da60035483610cd1565b046105e58183610cf8565b804710610746576040516323b872dd60e01b8152336004820152306024820152604481018590526020816064815f8a5af1801561071c5761062d915f91610727575b50610c47565b843b156101fd57604051632770a7eb60e21b8152306004820152602481018590525f81604481838a5af1801561071c57610707575b50858080809361067486600454610e41565b600455335af1610682610c08565b50156106c9576040805193845260208401929092529082015233907fa0fe9740856690637d999c103293d3c823fc3b81443c34c6004bb582ab4b6166908060608101610390565b60405162461bcd60e51b815260206004820152601660248201527513985d1a5d99481d1c985b9cd9995c8819985a5b195960521b6044820152606490fd5b6107149196505f90610bd2565b5f945f610662565b6040513d5f823e3d90fd5b610740915060203d602011610425576104178183610bd2565b5f610627565b60405162461bcd60e51b815260206004820152601d60248201527f496e73756666696369656e7420636f6e74726163742062616c616e63650000006044820152606490fd5b90506020813d6020116107b5575b816107a660209383610bd2565b810103126101fd57515f6105c0565b3d9150610799565b50506020813d6020116107eb575b816107d860209383610bd2565b810103126101fd57816105959151610589565b3d91506107cb565b61080a9150823d841161045d5761044f8183610bd2565b5f610519565b346101fd575f3660031901126101fd576002546040516001600160a01b039091168152602090f35b346101fd5760403660031901126101fd576100185f808080610858610b7c565b60243590610864610e4e565b6001600160a01b0316610878811515610b92565b610883821515610c85565b61088f82471015610d05565b5af1610627610c08565b346101fd575f3660031901126101fd575f546040516001600160a01b039091168152602090f35b346101fd575f3660031901126101fd576108d8610e4e565b5f80546001600160a01b0319811682556001600160a01b03167f8be0079c531659141344cd1fd0a4f28419497f9722a3daafe3b4186f6b6457e08280a3005b346101fd575f3660031901126101fd57602047604051908152f35b346101fd575f3660031901126101fd576020600454604051908152f35b346101fd5760403660031901126101fd57610968610b7c565b6020602435610978811515610c85565b604051631562a7f160e31b8152600481019190915291829060249082906001600160a01b03165afa801561071c575f906109d6575b6040906109c960646109c160035484610cd1565b048092610cf8565b9082519182526020820152f35b506020813d602011610a01575b816109f060209383610bd2565b810103126101fd57604090516109ad565b3d91506109e3565b346101fd575f3660031901126101fd576020600354604051908152f35b346101fd5760203660031901126101fd57610a3f610b7c565b610a47610e4e565b6001600160a01b0316610a5b811515610b92565b6004548015610aa85760207fc0819c13be868895eb93e40eaceb96de976442fa1d404e5c55f14bb65a8c489a915f600455610a9f5f80808085895af1610627610c08565b604051908152a2005b60405162461bcd60e51b81526020600482015260136024820152724e6f206665657320746f20776974686472617760681b6044820152606490fd5b346101fd5760203660031901126101fd57600435610aff610e4e565b600a8111610b3e577fd347e206f25a89b917fc9482f1a2d294d749baa4dc9bde7fb495ee11fe49164360406003548151908152836020820152a1600355005b60405162461bcd60e51b815260206004820152601660248201527546656520746f6f206869676820286d6178203130252960501b6044820152606490fd5b600435906001600160a01b03821682036101fd57565b15610b9957565b60405162461bcd60e51b8152602060048201526011602482015270125b9d985b1a59081c9958da5c1a595b9d607a1b6044820152606490fd5b90601f8019910116810190811067ffffffffffffffff821117610bf457604052565b634e487b7160e01b5f52604160045260245ffd5b3d15610c42573d9067ffffffffffffffff8211610bf45760405191610c37601f8201601f191660200184610bd2565b82523d5f602084013e565b606090565b15610c4e57565b60405162461bcd60e51b815260206004820152600f60248201526e151c985b9cd9995c8819985a5b1959608a1b6044820152606490fd5b15610c8c57565b60405162461bcd60e51b815260206004820152601d60248201527f416d6f756e74206d7573742062652067726561746572207468616e20300000006044820152606490fd5b81810292918115918404141715610ce457565b634e487b7160e01b5f52601160045260245ffd5b91908203918211610ce457565b15610d0c57565b60405162461bcd60e51b8152602060048201526014602482015273496e73756666696369656e742062616c616e636560601b6044820152606490fd5b908160209103126101fd57516001600160a01b03811681036101fd5790565b15610d6e57565b60405162461bcd60e51b8152602060048201526014602482015273151bdad95b881b9bdd081c9959da5cdd195c995960621b6044820152606490fd5b908160209103126101fd575180151581036101fd5790565b15610dc957565b60405162461bcd60e51b815260206004820152601160248201527010dc99585d1bdc881a5cc818985b9b9959607a1b6044820152606490fd5b15610e0957565b60405162461bcd60e51b815260206004820152601060248201526f105b5bdd5b9d081d1bdbc81cdb585b1b60821b6044820152606490fd5b91908201809211610ce457565b5f546001600160a01b03163303610e6157565b63118cdaa760e01b5f523360045260245ffd5b600260015414610e85576002600155565b633ee5aeb560e01b5f5260045ffdfea26469706673582212206cf2141afc66cfe73035288ddfe03bb80ab917c893914614d82417eccee2348764736f6c634300081c0033",
  "linkReferences": {},
  "deployedLinkReferences": {},
  "immutableReferences": {},
  "inputSourceName": "project/contracts/TokenExchange.sol",
  "buildInfoId": "solc-0_8_28-f3d3554b6530b9026cad17656bddd348886a5dc7"
}