{
  "_format": "hh3-artifact-1",
  "contractName": "TokenExchange",
  "sourceName": "contracts/TokenExchange.sol",
  "abi": [
    {
      "inputs": [
        {
          "internalType": "address",
          "name": "factoryAddress",
          "type": "address"
        }
      ],
      "stateMutability": "nonpayable",
      "type": "constructor"
    },
    {
      "inputs": [
        {
          "internalType": "address",
          "name": "owner",
          "type": "address"
        }
      ],
      "name": "OwnableInvalidOwner",
      "type": "error"
    },
    {
      "inputs": [
        {
          "internalType": "address",
          "name": "account",
          "type": "address"
        }
      ],
      "name": "OwnableUnauthorizedAccount",
      "type": "error"
    },
    {
      "inputs": [],
      "name": "ReentrancyGuardReentrantCall",
      "type": "error"
    },
    {
      "anonymous": false,
      "inputs": [
        {
          "indexed": true,
          "internalType": "address",
          "name": "creator",
          "type": "address"
        },
        {
          "indexed": true,
          "internalType": "address",
          "name": "creatorToken",
          "type": "address"
        },
        {
          "indexed": false,
          "internalType": "uint256",
          "name": "amount",
          "type": "uint256"
        },
        {
          "indexed": false,
          "internalType": "uint256",
          "name": "totalReserve",
          "type": "uint256"
        }
      ],
      "name": "CreatorReserveAdded",
      "type": "event"
    },
    {
      "anonymous": false,
      "inputs": [
        {
          "indexed": true,
          "internalType": "address",
          "name": "creator",
          "type": "address"
        },
        {
          "indexed": false,
          "internalType": "uint256",
          "name": "amount",
          "type": "uint256"
        }
      ],
      "name": "CreatorReserveWithdrawn",
      "type": "event"
    },
    {
      "anonymous": false,
      "inputs": [
        {
          "indexed": true,
          "internalType": "address",
          "name": "recipient",
          "type": "address"
        },
        {
          "indexed": false,
          "internalType": "uint256",
          "name": "amount",
          "type": "uint256"
        }
      ],
      "name": "FeesWithdrawn",
      "type": "event"
    },
    {
      "anonymous": false,
      "inputs": [
        {
          "indexed": true,
          "internalType": "address",
          "name": "creatorToken",
          "type": "address"
        },
        {
          "indexed": false,
          "internalType": "uint256",
          "name": "amount",
          "type": "uint256"
        },
        {
          "indexed": false,
          "internalType": "uint256",
          "name": "totalReserve",
          "type": "uint256"
        }
      ],
      "name": "LiquidityReserved",
      "type": "event"
    },
    {
      "anonymous": false,
      "inputs": [
        {
          "indexed": true,
          "internalType": "address",
          "name": "previousOwner",
          "type": "address"
        },
        {
          "indexed": true,
          "internalType": "address",
          "name": "newOwner",
          "type": "address"
        }
      ],
      "name": "OwnershipTransferred",
      "type": "event"
    },
    {
      "anonymous": false,
      "inputs": [
        {
          "indexed": false,
          "internalType": "uint256",
          "name": "oldFee",
          "type": "uint256"
        },
        {
          "indexed": false,
          "internalType": "uint256",
          "name": "newFee",
          "type": "uint256"
        }
      ],
      "name": "PlatformFeeUpdated",
      "type": "event"
    },
    {
      "anonymous": false,
      "inputs": [
        {
          "indexed": true,
          "internalType": "address",
          "name": "buyer",
          "type": "address"
        },
        {
          "indexed": true,
          "internalType": "address",
          "name": "creatorToken",
          "type": "address"
        },
        {
          "indexed": false,
          "internalType": "uint256",
          "name": "tokensAmount",
          "type": "uint256"
        },
        {
          "indexed": false,
          "internalType": "uint256",
          "name": "nativeAmount",
          "type": "uint256"
        },
        {
          "indexed": false,
          "internalType": "uint256",
          "name": "fee",
          "type": "uint256"
        }
      ],
      "name": "TokensPurchased",
      "type": "event"
    },
    {
      "anonymous": false,
      "inputs": [
        {
          "indexed": true,
          "internalType": "address",
          "name": "seller",
          "type": "address"
        },
        {
          "indexed": true,
          "internalType": "address",
          "name": "creatorToken",
          "type": "address"
        },
        {
          "indexed": false,
          "internalType": "uint256",
          "name": "tokensAmount",
          "type": "uint256"
        },
        {
          "indexed": false,
          "internalType": "uint256",
          "name": "nativeAmount",
          "type": "uint256"
        },
        {
          "indexed": false,
          "internalType": "uint256",
          "name": "fee",
          "type": "uint256"
        }
      ],
      "name": "TokensSold",
      "type": "event"
    },
    {
      "inputs": [],
      "name": "CREATOR_SHARE",
      "outputs": [
        {
          "internalType": "uint256",
          "name": "",
          "type": "uint256"
        }
      ],
      "stateMutability": "view",
      "type": "function"
    },
    {
      "inputs": [],
      "name": "LIQUIDITY_SHARE",
      "outputs": [
        {
          "internalType": "uint256",
          "name": "",
          "type": "uint256"
        }
      ],
      "stateMutability": "view",
      "type": "function"
    },
    {
      "inputs": [],
      "name": "PLATFORM_SHARE",
      "outputs": [
        {
          "internalType": "uint256",
          "name": "",
          "type": "uint256"
        }
      ],
      "stateMutability": "view",
      "type": "function"
    },
    {
      "inputs": [],
      "name": "accumulatedFees",
      "outputs": [
        {
          "internalType": "uint256",
          "name": "",
          "type": "uint256"
        }
      ],
      "stateMutability": "view",
      "type": "function"
    },
    {
      "inputs": [
        {
          "internalType": "address",
          "name": "creatorToken",
          "type": "address"
        }
      ],
      "name": "buyTokens",
      "outputs": [],
      "stateMutability": "payable",
      "type": "function"
    },
    {
      "inputs": [
        {
          "internalType": "address",
          "name": "creatorToken",
          "type": "address"
        },
        {
          "internalType": "uint256",
          "name": "nativeAmount",
          "type": "uint256"
        }
      ],
      "name": "calculateBuyAmount",
      "outputs": [
        {
          "internalType": "uint256",
          "name": "tokensAmount",
          "type": "uint256"
        },
        {
          "internalType": "uint256",
          "name": "fee",
          "type": "uint256"
        }
      ],
      "stateMutability": "view",
      "type": "function"
    },
    {
      "inputs": [
        {
          "internalType": "address",
          "name": "creatorToken",
          "type": "address"
        },
        {
          "internalType": "uint256",
          "name": "tokenAmount",
          "type": "uint256"
        }
      ],
      "name": "calculateSellAmount",
      "outputs": [
        {
          "internalType": "uint256",
          "name": "nativeAmount",
          "type": "uint256"
        },
        {
          "internalType": "uint256",
          "name": "fee",
          "type": "uint256"
        }
      ],
      "stateMutability": "view",
      "type": "function"
    },
    {
      "inputs": [
        {
          "internalType": "address",
          "name": "",
          "type": "address"
        }
      ],
      "name": "creatorEarnings",
      "outputs": [
        {
          "internalType": "uint256",
          "name": "",
          "type": "uint256"
        }
      ],
      "stateMutability": "view",
      "type": "function"
    },
    {
      "inputs": [
        {
          "internalType": "address",
          "name": "",
          "type": "address"
        }
      ],
      "name": "creatorReserve",
      "outputs": [
        {
          "internalType": "uint256",
          "name": "",
          "type": "uint256"
        }
      ],
      "stateMutability": "view",
      "type": "function"
    },
    {
      "inputs": [
        {
          "internalType": "address payable",
          "name": "recipient",
          "type": "address"
        },
        {
          "internalType": "uint256",
          "name": "amount",
          "type": "uint256"
        }
      ],
      "name": "emergencyWithdraw",
      "outputs": [],
      "stateMutability": "nonpayable",
      "type": "function"
    },
    {
      "inputs": [],
      "name": "factory",
      "outputs": [
        {
          "internalType": "contract CreatorTokenFactory",
          "name": "",
          "type": "address"
        }
      ],
      "stateMutability": "view",
      "type": "function"
    },
    {
      "inputs": [],
      "name": "getContractBalance",
      "outputs": [
        {
          "internalType": "uint256",
          "name": "",
          "type": "uint256"
        }
      ],
      "stateMutability": "view",
      "type": "function"
    },
    {
      "inputs": [
        {
          "internalType": "address",
          "name": "creator",
          "type": "address"
        }
      ],
      "name": "getCreatorReserve",
      "outputs": [
        {
          "internalType": "uint256",
          "name": "",
          "type": "uint256"
        }
      ],
      "stateMutability": "view",
      "type": "function"
    },
    {
      "inputs": [
        {
          "internalType": "address",
          "name": "creatorToken",
          "type": "address"
        }
      ],
      "name": "getTokenLiquidityReserve",
      "outputs": [
        {
          "internalType": "uint256",
          "name": "",
          "type": "uint256"
        }
      ],
      "stateMutability": "view",
      "type": "function"
    },
    {
      "inputs": [],
      "name": "owner",
      "outputs": [
        {
          "internalType": "address",
          "name": "",
          "type": "address"
        }
      ],
      "stateMutability": "view",
      "type": "function"
    },
    {
      "inputs": [],
      "name": "platformFee",
      "outputs": [
        {
          "internalType": "uint256",
          "name": "",
          "type": "uint256"
        }
      ],
      "stateMutability": "view",
      "type": "function"
    },
    {
      "inputs": [],
      "name": "renounceOwnership",
      "outputs": [],
      "stateMutability": "nonpayable",
      "type": "function"
    },
    {
      "inputs": [
        {
          "internalType": "address",
          "name": "creatorToken",
          "type": "address"
        },
        {
          "internalType": "uint256",
          "name": "tokenAmount",
          "type": "uint256"
        }
      ],
      "name": "sellTokens",
      "outputs": [],
      "stateMutability": "nonpayable",
      "type": "function"
    },
    {
      "inputs": [
        {
          "internalType": "uint256",
          "name": "newFee",
          "type": "uint256"
        }
      ],
      "name": "setPlatformFee",
      "outputs": [],
      "stateMutability": "nonpayable",
      "type": "function"
    },
    {
      "inputs": [
        {
          "internalType": "address",
          "name": "",
          "type": "address"
        }
      ],
      "name": "tokenLiquidityReserve",
      "outputs": [
        {
          "internalType": "uint256",
          "name": "",
          "type": "uint256"
        }
      ],
      "stateMutability": "view",
      "type": "function"
    },
    {
      "inputs": [
        {
          "internalType": "address",
          "name": "newOwner",
          "type": "address"
        }
      ],
      "name": "transferOwnership",
      "outputs": [],
      "stateMutability": "nonpayable",
      "type": "function"
    },
    {
      "inputs": [
        {
          "internalType": "uint256",
          "name": "amount",
          "type": "uint256"
        }
      ],
      "name": "withdrawCreatorReserve",
      "outputs": [],
      "stateMutability": "nonpayable",
      "type": "function"
    },
    {
      "inputs": [
        {
          "internalType": "address payable",
          "name": "recipient",
          "type": "address"
        }
      ],
      "name": "withdrawFees",
      "outputs": [],
      "stateMutability": "nonpayable",
      "type": "function"
    },
    {
      "stateMutability": "payable",
      "type": "receive"
    }
  ],
  "bytecode": "0x60803461012657601f6116af38819003918201601f19168301916001600160401b0383118484101761012a5780849260209460405283398101031261012657516001600160a01b03811690819003610126573315610113575f8054336001600160a01b03198216811783556040519290916001600160a01b0316907f8be0079c531659141344cd1fd0a4f28419497f9722a3daafe3b4186f6b6457e09080a360018055606460035581156100d15750600280546001600160a01b031916919091179055604051611570908161013f8239f35b62461bcd60e51b815260206004820152601760248201527f496e76616c696420666163746f727920616464726573730000000000000000006044820152606490fd5b631e4fbdf760e01b5f525f60045260245ffd5b5f80fd5b634e487b7160e01b5f52604160045260245ffdfe6080604052600436101561001a575b3615610018575f80fd5b005b5f5f3560e01c806312e8e2c31461116e578063164e68de146110b157806326232a2e1461109457806343270d5614611078578063573a5b6b14610fbd578063587f5ed714610fa057806366fab57c14610f855780636f9fb98a14610f6a578063715018a614610f135780637cee5cd014610e535780638da5cb5b14610eec57806395ccea6714610e8b578063a0de193814610e53578063a5fa77ed14610e1b578063c3e11ca714610e1b578063c45a015514610df3578063c464fe65146109a9578063cc0c30391461098d578063dc354a6f14610721578063ec8ac4d8146102c4578063f2f2c5c4146101e3578063f2fde38b1461015d5763fa3c30a814610122575061000e565b3461015a57602036600319011261015a576020906040906001600160a01b03610149611222565b168152600583522054604051908152f35b80fd5b503461015a57602036600319011261015a57610177611222565b61017f6114f4565b6001600160a01b031680156101cf5781546001600160a01b03198116821783556001600160a01b03167f8be0079c531659141344cd1fd0a4f28419497f9722a3daafe3b4186f6b6457e08380a380f35b631e4fbdf760e01b82526004829052602482fd5b503461015a57604036600319011261015a576101fd611222565b6024359081159161020e831561132b565b606481029281840460641417156102b0576040516360d1f85760e11b8152600481019190915290602090829060249082906001600160a01b03165afa9283156102a4579261026a575b6040805184815261271084046020820152f35b91506020823d60201161029c575b8161028560209383611278565b8101031261029857905190612710610257565b5f80fd5b3d9150610278565b604051903d90823e3d90fd5b634e487b7160e01b84526011600452602484fd5b50602036600319011261015a576102d9611222565b6102e161151a565b34156106dc5760025460405163c78418b960e01b81526001600160a01b03928316600482018190529290911690602081602481855afa9081156106a45760249160209186916106af575b506001600160a01b03169261034184151561140d565b60405192838092637096920b60e11b82528660048301525afa80156106a457610371918591610675575b50611468565b60c8340234810460c8036102b057612710900460643402348104606403610661576127109004906125e434023481046125e40361064d57612710900492346103c2856103bd86866114e7565b6114e7565b11610608576040516360d1f85760e11b815234600482015293602085602481895afa9485156105fd5787956105c9575b506103fe8515156114a8565b61040a846004546114e7565b6004558680808086865af161041d6112ae565b50156105845760407f7598a462d40c83e00c1a65c21c4bede9e6478e28fece447e38d4557150505597918794848a52600560205261045f838b209182546114e7565b905583895260076020528189206104778282546114e7565b9055848952600660205281892061048f8282546114e7565b90558489526006602052847f77189e13d551c35b1e30aef3c4fcfb59c61a15754bf7b8a1f98730aa2c1e416883808c20548151908582526020820152a283895260076020528189205482519182526020820152a3823b15610575576040516340c10f1960e01b8152336004820152602481018390528490818160448183895af1801561057957610560575b50506040805192835234602084015282015233907f377aadedb6b2a771959584d10a6a36eccb5f56b4eb3a48525f76108d2660d8d49080606081015b0390a36001805580f35b8161056a91611278565b61057557835f61051a565b8380fd5b6040513d84823e3d90fd5b60405162461bcd60e51b815260206004820152601a60248201527f5472616e7366657220746f2063726561746f72206661696c65640000000000006044820152606490fd5b9094506020813d6020116105f5575b816105e560209383611278565b810103126102985751935f6103f2565b3d91506105d8565b6040513d89823e3d90fd5b60405162461bcd60e51b815260206004820152601e60248201527f446973747269627574696f6e2063616c63756c6174696f6e206572726f7200006044820152606490fd5b634e487b7160e01b86526011600452602486fd5b634e487b7160e01b85526011600452602485fd5b610697915060203d60201161069d575b61068f8183611278565b810190611450565b5f61036b565b503d610685565b6040513d86823e3d90fd5b6106cf9150823d84116106d5575b6106c78183611278565b8101906113ee565b5f61032b565b503d6106bd565b60405162461bcd60e51b815260206004820152601960248201527f4d7573742073656e64206e61746976652063757272656e6379000000000000006044820152606490fd5b503461015a57602036600319011261015a5760043561073e61151a565b3382526007602052604082205415610951576002546040516334e4aef160e21b815233600482015290602090829060249082906001600160a01b03165afa908115610946578391610927575b506001600160a01b031680156108eb573383526007602052604083205491806108e65750815b80926107bd82151561132b565b81116108aa57804710610865578184526006602052604084205480911161085d575b503383526007602052604083206107f783825461139e565b9055825260066020526040822061080f82825461139e565b905561082a8280808085335af16108246112ae565b506112ed565b6040519081527fe690a8b437bac1069509f61eb3191a82f817f269d7567f9d382d056a37c92b9d60203392a26001805580f35b91505f6107df565b60405162461bcd60e51b815260206004820152601d60248201527f496e73756666696369656e7420636f6e74726163742062616c616e63650000006044820152606490fd5b60405162461bcd60e51b8152602060048201526014602482015273496e73756666696369656e74207265736572766560601b6044820152606490fd5b6107b0565b60405162461bcd60e51b815260206004820152601460248201527321b932b0ba37b9103430b9903737903a37b5b2b760611b6044820152606490fd5b610940915060203d6020116106d5576106c78183611278565b5f61078a565b6040513d85823e3d90fd5b60405162461bcd60e51b81526020600482015260146024820152734e6f207265736572766520617661696c61626c6560601b6044820152606490fd5b503461015a578060031936011261015a57602060405160c88152f35b5034610298576040366003190112610298576109c3611222565b6024356109ce61151a565b6109d981151561132b565b60025460405163c78418b960e01b81526001600160a01b03938416600482018190529390911690602081602481855afa908115610cfd576024916020915f91610dd6575b506001600160a01b031692610a3384151561140d565b60405192838092637096920b60e11b82528660048301525afa8015610cfd57610a62915f916106755750611468565b6040516370a0823160e01b8152336004820152602081602481875afa8015610cfd5783905f90610da0575b610a99925010156113ab565b604051631562a7f160e31b81526004810183905290602082602481875afa918215610cfd575f92610d6c575b50610ad18215156114a8565b612710610ae060035484611377565b0490610aec828461139e565b90855f5260066020528160405f205410610d27576040516323b872dd60e01b8152336004820152306024820152604481018690526020816064815f8b5af18015610cfd57610b40915f91610d0857506112ed565b853b1561029857604051632770a7eb60e21b8152306004820152602481018690525f81604481838b5af18015610cfd57610ce8575b508690610b84846004546114e7565b60045586825260066020526040822054878352600660205260408320610bab85825461139e565b905581835260076020526040832054151580610cdf575b610c5d575b505080808093335af1610bd86112ae565b5015610c1f576040805193845260208401929092529082015233907fa0fe9740856690637d999c103293d3c823fc3b81443c34c6004bb582ab4b6166908060608101610556565b60405162461bcd60e51b815260206004820152601660248201527513985d1a5d99481d1c985b9cd9995c8819985a5b195960521b6044820152606490fd5b908092526007602052610c748360408a2054611377565b8115610ccb5788938493849384930490818185526007602052604085205410610cb7575b83526007602052610cae6040842091825461139e565b90559350610bc7565b808452600760205260408420549150610c98565b634e487b7160e01b89526012600452602489fd5b50801515610bc2565b610cf59197505f90611278565b5f955f610b75565b6040513d5f823e3d90fd5b610d21915060203d60201161069d5761068f8183611278565b5f610824565b60405162461bcd60e51b815260206004820152601e60248201527f496e73756666696369656e74206c6971756964697479207265736572766500006044820152606490fd5b9091506020813d602011610d98575b81610d8860209383611278565b810103126102985751905f610ac5565b3d9150610d7b565b50506020813d602011610dce575b81610dbb60209383611278565b810103126102985782610a999151610a8d565b3d9150610dae565b610ded9150823d84116106d5576106c78183611278565b5f610a1d565b34610298575f366003190112610298576002546040516001600160a01b039091168152602090f35b34610298576020366003190112610298576001600160a01b03610e3c611222565b165f526006602052602060405f2054604051908152f35b34610298576020366003190112610298576001600160a01b03610e74611222565b165f526007602052602060405f2054604051908152f35b34610298576040366003190112610298576100185f808080610eab611222565b60243590610eb76114f4565b6001600160a01b0316610ecb811515611238565b610ed682151561132b565b610ee2824710156113ab565b5af16108246112ae565b34610298575f366003190112610298575f546040516001600160a01b039091168152602090f35b34610298575f36600319011261029857610f2b6114f4565b5f80546001600160a01b0319811682556001600160a01b03167f8be0079c531659141344cd1fd0a4f28419497f9722a3daafe3b4186f6b6457e08280a3005b34610298575f36600319011261029857602047604051908152f35b34610298575f36600319011261029857602060405160648152f35b34610298575f366003190112610298576020600454604051908152f35b3461029857604036600319011261029857610fd6611222565b6020602435610fe681151561132b565b604051631562a7f160e31b8152600481019190915291829060249082906001600160a01b03165afa8015610cfd575f90611045575b60409061103861271061103060035484611377565b04809261139e565b9082519182526020820152f35b506020813d602011611070575b8161105f60209383611278565b81010312610298576040905161101b565b3d9150611052565b34610298575f3660031901126102985760206040516125e48152f35b34610298575f366003190112610298576020600354604051908152f35b34610298576020366003190112610298576110ca611222565b6110d26114f4565b6001600160a01b03166110e6811515611238565b60045480156111335760207fc0819c13be868895eb93e40eaceb96de976442fa1d404e5c55f14bb65a8c489a915f60045561112a5f80808085895af16108246112ae565b604051908152a2005b60405162461bcd60e51b81526020600482015260136024820152724e6f206665657320746f20776974686472617760681b6044820152606490fd5b346102985760203660031901126102985760043561118a6114f4565b6103e881116111ca577fd347e206f25a89b917fc9482f1a2d294d749baa4dc9bde7fb495ee11fe49164360406003548151908152836020820152a1600355005b60405162461bcd60e51b815260206004820152602a60248201527f46656520746f6f206869676820286d617820313025203d203130303020626173604482015269697320706f696e74732960b01b6064820152608490fd5b600435906001600160a01b038216820361029857565b1561123f57565b60405162461bcd60e51b8152602060048201526011602482015270125b9d985b1a59081c9958da5c1a595b9d607a1b6044820152606490fd5b90601f8019910116810190811067ffffffffffffffff82111761129a57604052565b634e487b7160e01b5f52604160045260245ffd5b3d156112e8573d9067ffffffffffffffff821161129a57604051916112dd601f8201601f191660200184611278565b82523d5f602084013e565b606090565b156112f457565b60405162461bcd60e51b815260206004820152600f60248201526e151c985b9cd9995c8819985a5b1959608a1b6044820152606490fd5b1561133257565b60405162461bcd60e51b815260206004820152601d60248201527f416d6f756e74206d7573742062652067726561746572207468616e20300000006044820152606490fd5b8181029291811591840414171561138a57565b634e487b7160e01b5f52601160045260245ffd5b9190820391821161138a57565b156113b257565b60405162461bcd60e51b8152602060048201526014602482015273496e73756666696369656e742062616c616e636560601b6044820152606490fd5b9081602091031261029857516001600160a01b03811681036102985790565b1561141457565b60405162461bcd60e51b8152602060048201526014602482015273151bdad95b881b9bdd081c9959da5cdd195c995960621b6044820152606490fd5b90816020910312610298575180151581036102985790565b1561146f57565b60405162461bcd60e51b815260206004820152601160248201527010dc99585d1bdc881a5cc818985b9b9959607a1b6044820152606490fd5b156114af57565b60405162461bcd60e51b815260206004820152601060248201526f105b5bdd5b9d081d1bdbc81cdb585b1b60821b6044820152606490fd5b9190820180921161138a57565b5f546001600160a01b0316330361150757565b63118cdaa760e01b5f523360045260245ffd5b60026001541461152b576002600155565b633ee5aeb560e01b5f5260045ffdfea2646970667358221220040542f768e6a506d184f1a392f0157a62fff11789aa206e11ea067f0e0a16e464736f6c634300081c0033",
  "linkReferences": {},
  "deployedLinkReferences": {},
  "immutableReferences": {},
  "inputSourceName": "project/contracts/TokenExchange.sol",
  "buildInfoId": "solc-0_8_28-a6b61d01024370c5f9c8b41751c6004c1a248c58"
}