{
  "_format": "hh3-artifact-1",
  "contractName": "PredictionMarket",
  "sourceName": "contracts/PredictionMarket.sol",
  "abi": [
    {
      "inputs": [
        {
          "internalType": "address",
          "name": "factoryAddress",
          "type": "address"
        }
      ],
      "stateMutability": "nonpayable",
      "type": "constructor"
    },
    {
      "inputs": [
        {
          "internalType": "address",
          "name": "owner",
          "type": "address"
        }
      ],
      "name": "OwnableInvalidOwner",
      "type": "error"
    },
    {
      "inputs": [
        {
          "internalType": "address",
          "name": "account",
          "type": "address"
        }
      ],
      "name": "OwnableUnauthorizedAccount",
      "type": "error"
    },
    {
      "inputs": [],
      "name": "ReentrancyGuardReentrantCall",
      "type": "error"
    },
    {
      "anonymous": false,
      "inputs": [
        {
          "indexed": true,
          "internalType": "uint256",
          "name": "predictionId",
          "type": "uint256"
        },
        {
          "indexed": true,
          "internalType": "address",
          "name": "bettor",
          "type": "address"
        },
        {
          "indexed": false,
          "internalType": "uint256",
          "name": "optionIndex",
          "type": "uint256"
        },
        {
          "indexed": false,
          "internalType": "uint256",
          "name": "amount",
          "type": "uint256"
        }
      ],
      "name": "BetPlaced",
      "type": "event"
    },
    {
      "anonymous": false,
      "inputs": [
        {
          "indexed": false,
          "internalType": "string",
          "name": "parameter",
          "type": "string"
        },
        {
          "indexed": false,
          "internalType": "uint256",
          "name": "oldValue",
          "type": "uint256"
        },
        {
          "indexed": false,
          "internalType": "uint256",
          "name": "newValue",
          "type": "uint256"
        }
      ],
      "name": "ConfigUpdated",
      "type": "event"
    },
    {
      "anonymous": false,
      "inputs": [
        {
          "indexed": true,
          "internalType": "uint256",
          "name": "predictionId",
          "type": "uint256"
        },
        {
          "indexed": false,
          "internalType": "uint256",
          "name": "endsAt",
          "type": "uint256"
        }
      ],
      "name": "CooldownStarted",
      "type": "event"
    },
    {
      "anonymous": false,
      "inputs": [
        {
          "indexed": true,
          "internalType": "uint256",
          "name": "predictionId",
          "type": "uint256"
        },
        {
          "indexed": false,
          "internalType": "uint256",
          "name": "timestamp",
          "type": "uint256"
        }
      ],
      "name": "OutcomeConfirmed",
      "type": "event"
    },
    {
      "anonymous": false,
      "inputs": [
        {
          "indexed": true,
          "internalType": "uint256",
          "name": "predictionId",
          "type": "uint256"
        },
        {
          "indexed": false,
          "internalType": "string",
          "name": "reason",
          "type": "string"
        },
        {
          "indexed": false,
          "internalType": "uint256",
          "name": "timestamp",
          "type": "uint256"
        }
      ],
      "name": "OutcomeDisputed",
      "type": "event"
    },
    {
      "anonymous": false,
      "inputs": [
        {
          "indexed": true,
          "internalType": "uint256",
          "name": "predictionId",
          "type": "uint256"
        },
        {
          "indexed": true,
          "internalType": "address",
          "name": "reporter",
          "type": "address"
        },
        {
          "indexed": false,
          "internalType": "uint256",
          "name": "reportCount",
          "type": "uint256"
        },
        {
          "indexed": false,
          "internalType": "uint256",
          "name": "timestamp",
          "type": "uint256"
        }
      ],
      "name": "OutcomeReported",
      "type": "event"
    },
    {
      "anonymous": false,
      "inputs": [
        {
          "indexed": true,
          "internalType": "address",
          "name": "previousOwner",
          "type": "address"
        },
        {
          "indexed": true,
          "internalType": "address",
          "name": "newOwner",
          "type": "address"
        }
      ],
      "name": "OwnershipTransferred",
      "type": "event"
    },
    {
      "anonymous": false,
      "inputs": [
        {
          "indexed": true,
          "internalType": "uint256",
          "name": "predictionId",
          "type": "uint256"
        },
        {
          "indexed": false,
          "internalType": "uint256",
          "name": "timestamp",
          "type": "uint256"
        }
      ],
      "name": "PredictionClosed",
      "type": "event"
    },
    {
      "anonymous": false,
      "inputs": [
        {
          "indexed": true,
          "internalType": "uint256",
          "name": "predictionId",
          "type": "uint256"
        },
        {
          "indexed": true,
          "internalType": "address",
          "name": "creator",
          "type": "address"
        },
        {
          "indexed": true,
          "internalType": "address",
          "name": "creatorToken",
          "type": "address"
        },
        {
          "indexed": false,
          "internalType": "string",
          "name": "title",
          "type": "string"
        },
        {
          "indexed": false,
          "internalType": "uint256",
          "name": "closesAt",
          "type": "uint256"
        }
      ],
      "name": "PredictionCreated",
      "type": "event"
    },
    {
      "anonymous": false,
      "inputs": [
        {
          "indexed": true,
          "internalType": "uint256",
          "name": "predictionId",
          "type": "uint256"
        },
        {
          "indexed": false,
          "internalType": "uint256",
          "name": "winningOption",
          "type": "uint256"
        },
        {
          "indexed": false,
          "internalType": "enum PredictionMarket.PredictionStatus",
          "name": "status",
          "type": "uint8"
        },
        {
          "indexed": false,
          "internalType": "uint256",
          "name": "timestamp",
          "type": "uint256"
        }
      ],
      "name": "PredictionResolved",
      "type": "event"
    },
    {
      "anonymous": false,
      "inputs": [
        {
          "indexed": true,
          "internalType": "uint256",
          "name": "predictionId",
          "type": "uint256"
        },
        {
          "indexed": true,
          "internalType": "address",
          "name": "winner",
          "type": "address"
        },
        {
          "indexed": false,
          "internalType": "uint256",
          "name": "amount",
          "type": "uint256"
        }
      ],
      "name": "RewardClaimed",
      "type": "event"
    },
    {
      "anonymous": false,
      "inputs": [
        {
          "indexed": true,
          "internalType": "uint256",
          "name": "predictionId",
          "type": "uint256"
        },
        {
          "indexed": false,
          "internalType": "uint256",
          "name": "timestamp",
          "type": "uint256"
        }
      ],
      "name": "UnderReview",
      "type": "event"
    },
    {
      "inputs": [
        {
          "internalType": "uint256",
          "name": "predictionId",
          "type": "uint256"
        }
      ],
      "name": "autoConfirmOutcome",
      "outputs": [],
      "stateMutability": "nonpayable",
      "type": "function"
    },
    {
      "inputs": [
        {
          "internalType": "uint256",
          "name": "predictionId",
          "type": "uint256"
        }
      ],
      "name": "claimRefund",
      "outputs": [],
      "stateMutability": "nonpayable",
      "type": "function"
    },
    {
      "inputs": [
        {
          "internalType": "uint256",
          "name": "predictionId",
          "type": "uint256"
        }
      ],
      "name": "claimReward",
      "outputs": [],
      "stateMutability": "nonpayable",
      "type": "function"
    },
    {
      "inputs": [
        {
          "internalType": "uint256",
          "name": "predictionId",
          "type": "uint256"
        }
      ],
      "name": "closePrediction",
      "outputs": [],
      "stateMutability": "nonpayable",
      "type": "function"
    },
    {
      "inputs": [
        {
          "internalType": "uint256",
          "name": "predictionId",
          "type": "uint256"
        }
      ],
      "name": "confirmOutcome",
      "outputs": [],
      "stateMutability": "nonpayable",
      "type": "function"
    },
    {
      "inputs": [],
      "name": "cooldownDuration",
      "outputs": [
        {
          "internalType": "uint256",
          "name": "",
          "type": "uint256"
        }
      ],
      "stateMutability": "view",
      "type": "function"
    },
    {
      "inputs": [
        {
          "internalType": "address",
          "name": "creatorToken",
          "type": "address"
        },
        {
          "internalType": "string",
          "name": "title",
          "type": "string"
        },
        {
          "internalType": "string",
          "name": "description",
          "type": "string"
        },
        {
          "internalType": "string[]",
          "name": "optionDescriptions",
          "type": "string[]"
        },
        {
          "internalType": "uint256",
          "name": "duration",
          "type": "uint256"
        }
      ],
      "name": "createPrediction",
      "outputs": [
        {
          "internalType": "uint256",
          "name": "",
          "type": "uint256"
        }
      ],
      "stateMutability": "nonpayable",
      "type": "function"
    },
    {
      "inputs": [],
      "name": "factory",
      "outputs": [
        {
          "internalType": "contract CreatorTokenFactory",
          "name": "",
          "type": "address"
        }
      ],
      "stateMutability": "view",
      "type": "function"
    },
    {
      "inputs": [
        {
          "internalType": "uint256",
          "name": "predictionId",
          "type": "uint256"
        },
        {
          "internalType": "string",
          "name": "reason",
          "type": "string"
        }
      ],
      "name": "flagFraud",
      "outputs": [],
      "stateMutability": "nonpayable",
      "type": "function"
    },
    {
      "inputs": [
        {
          "internalType": "uint256",
          "name": "predictionId",
          "type": "uint256"
        },
        {
          "internalType": "uint256",
          "name": "optionIndex",
          "type": "uint256"
        }
      ],
      "name": "getBetOption",
      "outputs": [
        {
          "internalType": "string",
          "name": "description",
          "type": "string"
        },
        {
          "internalType": "uint256",
          "name": "totalAmount",
          "type": "uint256"
        },
        {
          "internalType": "uint256",
          "name": "totalBettors",
          "type": "uint256"
        }
      ],
      "stateMutability": "view",
      "type": "function"
    },
    {
      "inputs": [
        {
          "internalType": "uint256",
          "name": "predictionId",
          "type": "uint256"
        }
      ],
      "name": "getPredictionInfo",
      "outputs": [
        {
          "internalType": "address",
          "name": "creator",
          "type": "address"
        },
        {
          "internalType": "address",
          "name": "creatorToken",
          "type": "address"
        },
        {
          "internalType": "string",
          "name": "title",
          "type": "string"
        },
        {
          "internalType": "enum PredictionMarket.PredictionStatus",
          "name": "status",
          "type": "uint8"
        },
        {
          "internalType": "uint256",
          "name": "totalPool",
          "type": "uint256"
        },
        {
          "internalType": "uint256",
          "name": "closesAt",
          "type": "uint256"
        },
        {
          "internalType": "uint256",
          "name": "optionsCount",
          "type": "uint256"
        }
      ],
      "stateMutability": "view",
      "type": "function"
    },
    {
      "inputs": [
        {
          "internalType": "uint256",
          "name": "predictionId",
          "type": "uint256"
        },
        {
          "internalType": "address",
          "name": "user",
          "type": "address"
        }
      ],
      "name": "getUserBets",
      "outputs": [
        {
          "components": [
            {
              "internalType": "address",
              "name": "bettor",
              "type": "address"
            },
            {
              "internalType": "uint256",
              "name": "optionIndex",
              "type": "uint256"
            },
            {
              "internalType": "uint256",
              "name": "amount",
              "type": "uint256"
            },
            {
              "internalType": "bool",
              "name": "claimed",
              "type": "bool"
            }
          ],
          "internalType": "struct PredictionMarket.Bet[]",
          "name": "",
          "type": "tuple[]"
        }
      ],
      "stateMutability": "view",
      "type": "function"
    },
    {
      "inputs": [
        {
          "internalType": "uint256",
          "name": "",
          "type": "uint256"
        },
        {
          "internalType": "address",
          "name": "",
          "type": "address"
        }
      ],
      "name": "hasReported",
      "outputs": [
        {
          "internalType": "bool",
          "name": "",
          "type": "bool"
        }
      ],
      "stateMutability": "view",
      "type": "function"
    },
    {
      "inputs": [],
      "name": "minReportsRequired",
      "outputs": [
        {
          "internalType": "uint256",
          "name": "",
          "type": "uint256"
        }
      ],
      "stateMutability": "view",
      "type": "function"
    },
    {
      "inputs": [],
      "name": "nextPredictionId",
      "outputs": [
        {
          "internalType": "uint256",
          "name": "",
          "type": "uint256"
        }
      ],
      "stateMutability": "view",
      "type": "function"
    },
    {
      "inputs": [],
      "name": "owner",
      "outputs": [
        {
          "internalType": "address",
          "name": "",
          "type": "address"
        }
      ],
      "stateMutability": "view",
      "type": "function"
    },
    {
      "inputs": [
        {
          "internalType": "uint256",
          "name": "predictionId",
          "type": "uint256"
        },
        {
          "internalType": "uint256",
          "name": "optionIndex",
          "type": "uint256"
        },
        {
          "internalType": "uint256",
          "name": "amount",
          "type": "uint256"
        }
      ],
      "name": "placeBet",
      "outputs": [],
      "stateMutability": "nonpayable",
      "type": "function"
    },
    {
      "inputs": [
        {
          "internalType": "uint256",
          "name": "",
          "type": "uint256"
        }
      ],
      "name": "predictions",
      "outputs": [
        {
          "internalType": "uint256",
          "name": "id",
          "type": "uint256"
        },
        {
          "internalType": "address",
          "name": "creator",
          "type": "address"
        },
        {
          "internalType": "address",
          "name": "creatorToken",
          "type": "address"
        },
        {
          "internalType": "string",
          "name": "title",
          "type": "string"
        },
        {
          "internalType": "string",
          "name": "description",
          "type": "string"
        },
        {
          "internalType": "uint256",
          "name": "createdAt",
          "type": "uint256"
        },
        {
          "internalType": "uint256",
          "name": "closesAt",
          "type": "uint256"
        },
        {
          "internalType": "uint256",
          "name": "resolvedAt",
          "type": "uint256"
        },
        {
          "internalType": "enum PredictionMarket.PredictionStatus",
          "name": "status",
          "type": "uint8"
        },
        {
          "internalType": "uint256",
          "name": "winningOption",
          "type": "uint256"
        },
        {
          "internalType": "uint256",
          "name": "cooldownEndsAt",
          "type": "uint256"
        },
        {
          "internalType": "uint256",
          "name": "reportCount",
          "type": "uint256"
        },
        {
          "internalType": "uint256",
          "name": "totalPool",
          "type": "uint256"
        }
      ],
      "stateMutability": "view",
      "type": "function"
    },
    {
      "inputs": [],
      "name": "renounceOwnership",
      "outputs": [],
      "stateMutability": "nonpayable",
      "type": "function"
    },
    {
      "inputs": [
        {
          "internalType": "uint256",
          "name": "predictionId",
          "type": "uint256"
        }
      ],
      "name": "reportOutcome",
      "outputs": [],
      "stateMutability": "nonpayable",
      "type": "function"
    },
    {
      "inputs": [],
      "name": "reportThresholdPercentage",
      "outputs": [
        {
          "internalType": "uint256",
          "name": "",
          "type": "uint256"
        }
      ],
      "stateMutability": "view",
      "type": "function"
    },
    {
      "inputs": [
        {
          "internalType": "uint256",
          "name": "predictionId",
          "type": "uint256"
        },
        {
          "internalType": "uint256",
          "name": "winningOptionIndex",
          "type": "uint256"
        }
      ],
      "name": "resolvePrediction",
      "outputs": [],
      "stateMutability": "nonpayable",
      "type": "function"
    },
    {
      "inputs": [
        {
          "internalType": "uint256",
          "name": "newDuration",
          "type": "uint256"
        }
      ],
      "name": "setCooldownDuration",
      "outputs": [],
      "stateMutability": "nonpayable",
      "type": "function"
    },
    {
      "inputs": [
        {
          "internalType": "uint256",
          "name": "newPercentage",
          "type": "uint256"
        },
        {
          "internalType": "uint256",
          "name": "newMinReports",
          "type": "uint256"
        }
      ],
      "name": "setReportThreshold",
      "outputs": [],
      "stateMutability": "nonpayable",
      "type": "function"
    },
    {
      "inputs": [
        {
          "internalType": "address",
          "name": "newOwner",
          "type": "address"
        }
      ],
      "name": "transferOwnership",
      "outputs": [],
      "stateMutability": "nonpayable",
      "type": "function"
    },
    {
      "inputs": [
        {
          "internalType": "uint256",
          "name": "",
          "type": "uint256"
        },
        {
          "internalType": "address",
          "name": "",
          "type": "address"
        },
        {
          "internalType": "uint256",
          "name": "",
          "type": "uint256"
        }
      ],
      "name": "userBets",
      "outputs": [
        {
          "internalType": "address",
          "name": "bettor",
          "type": "address"
        },
        {
          "internalType": "uint256",
          "name": "optionIndex",
          "type": "uint256"
        },
        {
          "internalType": "uint256",
          "name": "amount",
          "type": "uint256"
        },
        {
          "internalType": "bool",
          "name": "claimed",
          "type": "bool"
        }
      ],
      "stateMutability": "view",
      "type": "function"
    }
  ],
  "bytecode": "0x60803461013657601f6128c038819003918201601f19168301916001600160401b0383118484101761013a5780849260209460405283398101031261013657516001600160a01b03811690819003610136573315610123575f8054336001600160a01b03198216811783556040519290916001600160a01b0316907f8be0079c531659141344cd1fd0a4f28419497f9722a3daafe3b4186f6b6457e09080a36001805561025860025560076003556005600455600160095581156100e15750600580546001600160a01b031916919091179055604051612771908161014f8239f35b62461bcd60e51b815260206004820152601760248201527f496e76616c696420666163746f727920616464726573730000000000000000006044820152606490fd5b631e4fbdf760e01b5f525f60045260245ffd5b5f80fd5b634e487b7160e01b5f52604160045260245ffdfe60806040526004361015610011575f80fd5b5f5f3560e01c80624fbbb01461211f5780630f0c3fc4146120d657806313cdf2cb14611ff85780631df06e9314611fdb5780633526931514611fbe5780634ade7ad314611e48578063560fd1b614611dd05780635b7baf6414611beb5780635f917a7614611af057806361c4cc1514611a65578063715018a614611a0e5780637a9ec4171461187a5780637bd7bd8a146117cc578063897871e3146116c45780638da5cb5b1461169d578063966be075146115ff578063ae169a5014611365578063c3350c08146110d3578063c45a0155146110aa578063c8834cda1461108c578063d0d04691146108a2578063d8d9292e14610884578063e71c969714610478578063f2fde38b146103f2578063fa744dd3146102cb5763fefac3db14610137575f80fd5b346102c8576101453661239d565b81835260066020526040832061015d8154151561244c565b60018101546001600160a01b03163303610283576009810160ff815416600781101561026f5760010361022a57837f3366b5e49b723f848938ef04d03edcd6045dd1c6379376df364c6a12bcecd55460607f486938a17cdff5c87b3072bb5062576f69eaa4622ec7857a2cfbdcdbfc3775859585600b956101e5600560209901548410612498565b82600a830155600260ff198254161790554260088201556102086002544261252a565b9586910155604051908152600286820152426040820152a2604051908152a280f35b60405162461bcd60e51b815260206004820152601960248201527f50726564696374696f6e206d75737420626520636c6f736564000000000000006044820152606490fd5b634e487b7160e01b86526021600452602486fd5b60405162461bcd60e51b815260206004820152601860248201527f4f6e6c792063726561746f722063616e207265736f6c766500000000000000006044820152606490fd5b80fd5b50346102c85760403660031901126102c8576102e5612371565b60043582526007602052604082209060018060a01b03165f5260205260405f20805461031081612435565b9061031e604051928361227f565b80825260208201809385526020852085915b8383106103a557868587604051928392602084019060208552518091526040840192915b818110610362575050500390f35b919350916020608060019260608751858060a01b038151168352848101518584015260408101516040840152015115156060820152019401910191849392610354565b600460206001926040516103b881612250565b848060a01b03865416815284860154838201526002860154604082015260ff60038701541615156060820152815201920192019190610330565b50346102c85760203660031901126102c85761040c612387565b61041461264e565b6001600160a01b031680156104645781546001600160a01b03198116821783556001600160a01b03167f8be0079c531659141344cd1fd0a4f28419497f9722a3daafe3b4186f6b6457e08380a380f35b631e4fbdf760e01b82526004829052602482fd5b50346102c85760603660031901126102c85760243560043560443561049b612674565b8184526006602052604084206104b38154151561244c565b60ff600982015416600781101561026f576104ce90156125bd565b60078101545f19811490811561087a575b501561084157600581016104f581548610612498565b82156107fc5760018201546001600160a01b03163381146107ab57600554604051637096920b60e11b81526004810192909252602090829060249082906001600160a01b03165afa90811561074857879161078c575b50156107535760028201546040516323b872dd60e01b81523360048201523060248201526044810185905290602090829060649082908b906001600160a01b03165af18015610748576105a5918891610719575b50612563565b83865260076020526040862060018060a01b0333165f5260205260405f206040516105cf81612250565b33815260208101878152604082019086825260608301938a8552805490600160401b8210156107055790610608916001820181556123b3565b9390936106f157899360029693610682969360039360018060a01b039060018060a01b03905116166bffffffffffffffffffffffff60a01b8454161783555160018301555187820155019051151560ff80198354169116179055600161066e83836124d5565b500161067b87825461252a565b90556124d5565b5001805490600182018092116106dd5755600d0180546106a390839061252a565b905560405192835260208301527f1b8a9031cb9351278d70a994f81536e9e08c91162e64f92b2fe4766fb7a891b460403393a36001805580f35b634e487b7160e01b87526011600452602487fd5b634e487b7160e01b8b5260048b905260248bfd5b634e487b7160e01b8c52604160045260248cfd5b61073b915060203d602011610741575b610733818361227f565b81019061254b565b5f61059f565b503d610729565b6040513d89823e3d90fd5b60405162461bcd60e51b815260206004820152601160248201527010dc99585d1bdc881a5cc818985b9b9959607a1b6044820152606490fd5b6107a5915060203d60201161074157610733818361227f565b5f61054b565b60405162461bcd60e51b8152602060048201526024808201527f43726561746f722063616e6e6f7420626574206f6e206f776e207072656469636044820152633a34b7b760e11b6064820152608490fd5b60405162461bcd60e51b815260206004820152601d60248201527f416d6f756e74206d7573742062652067726561746572207468616e20300000006044820152606490fd5b60405162461bcd60e51b8152602060048201526011602482015270141c99591a58dd1a5bdb8818db1bdcd959607a1b6044820152606490fd5b905042105f6104df565b50346102c857806003193601126102c8576020600954604051908152f35b50346102c85760a03660031901126102c8576108bc612387565b6024356001600160401b038111611084576108db9036906004016123e0565b916044356001600160401b038111611088576108fb9036906004016123e0565b91606435906001600160401b03821161108457366023830112156110845781600401359161092883612435565b92610936604051948561227f565b80845260051b810160240160208401368211610f3f5760248301905b828210611051575050505060843590600283511061100c57600a835111610fd457811591828015610fba575b61098790612601565b600554604051637096920b60e11b81523360048201526001600160a01b039091169290602081602481875afa908115610748578791610f9b575b5015610f56576020602493604051948580926334e4aef160e21b82523360048301525afa928315610f4b578693610f03575b506001600160a01b039081169216829003610ebf5760095492610a1584612640565b6009558386526006602052604086208481556001810180546001600160a01b0319908116331790915560028201805490911685179055885190979060038901906001600160401b038111610ce557610a6d8254612218565b601f8111610e7a575b50806020601f8211600114610e17578a91610e0c575b508160011b915f199060031b1c19161790555b805160048901916001600160401b038211610ce5578190610ac08454612218565b601f8111610dbc575b50602090601f8311600114610d5a578a92610d4f575b50508160011b915f199060031b1c19161790555b42600688015515610d3e57505f1994955b600787019586556009870160ff1981541690556005859701965b8451811015610cf95760208160051b8601015160405190606082018281106001600160401b03821117610ce55760405281526020810187815260408201908882528a54600160401b811015610cd157806001610b7d92018d558c6124d5565b939093610cbd57518051906001600160401b038211610ca957610ba08554612218565b601f8111610c64575b506020908b601f8411600114610bf9579260029492819260019998979592610bee575b50505f19600383901b1c191690871b1784555b51858401555191015501610b1e565b015190505f80610bcc565b50858c52818c209190601f1984168d5b818110610c4c57509260019897969491928993836002989610610c34575b505050811b018455610bdf565b01515f1960f88460031b161c191690555f8080610c27565b92936020600181928786015181550195019301610c09565b858c5260208c20601f840160051c81019160208510610c9f575b601f0160051c01905b818110610c945750610ba9565b8c8155600101610c87565b9091508190610c7e565b634e487b7160e01b8b52604160045260248bfd5b634e487b7160e01b8a5260048a905260248afd5b634e487b7160e01b8a52604160045260248afd5b634e487b7160e01b89526041600452602489fd5b5060209350827f787f00290a41b221b4899b23875d007d077fc4f6d26cf853f8cc820455edd209610d3388546040519182913396836125a1565b0390a4604051908152f35b610d48904261252a565b9495610b04565b015190505f80610adf565b848b52818b209250601f1984168b5b818110610da45750908460019594939210610d8c575b505050811b019055610af3565b01515f1960f88460031b161c191690555f8080610d7f565b92936020600181928786015181550195019301610d69565b909150838a5260208a20601f840160051c81019160208510610e02575b90601f859493920160051c01905b818110610df45750610ac9565b8b8155849350600101610de7565b9091508190610dd9565b90508b01515f610a8c565b838b52808b209150601f1983168b8e5b828210610e615750509083600194939210610e49575b5050811b019055610a9f565b8d01515f1960f88460031b161c191690555f80610e3d565b600184956020939584930151815501940192018e610e27565b828a5260208a20601f830160051c81019160208410610eb5575b601f0160051c01905b818110610eaa5750610a76565b8a8155600101610e9d565b9091508190610e94565b606460405162461bcd60e51b815260206004820152602060248201527f546f6b656e20646f6573206e6f742062656c6f6e6720746f2063726561746f726044820152fd5b9092506020813d602011610f43575b81610f1f6020938361227f565b81010312610f3f57516001600160a01b0381168103610f3f57915f6109f3565b8580fd5b3d9150610f12565b6040513d88823e3d90fd5b60405162461bcd60e51b815260206004820152601f60248201527f43726561746f72206973206e6f7420616374697665206f722062616e6e6564006044820152606490fd5b610fb4915060203d60201161074157610733818361227f565b5f6109c1565b50603c811015801561097e57506301e1338081111561097e565b60405162461bcd60e51b815260206004820152601060248201526f546f6f206d616e79206f7074696f6e7360801b6044820152606490fd5b60405162461bcd60e51b815260206004820152601760248201527f4e656564206174206c656173742032206f7074696f6e730000000000000000006044820152606490fd5b81356001600160401b038111611080576020916110758392602436918901016123e0565b815201910190610952565b8780fd5b8280fd5b5080fd5b50346102c857806003193601126102c8576020600354604051908152f35b50346102c857806003193601126102c8576005546040516001600160a01b039091168152602090f35b50346102c85760203660031901126102c8576004358082526006602052604082206111008154151561244c565b600981019060ff82541660078110156113515760020361131357600b8101544210156112d657828452600860209081526040808620335f908152925290205460ff1661129e57828452600760209081526040808620335f90815292529020541561126057828452600860209081526040808620335f90815292529020805460ff19166001179055600c01805461119590612640565b809155604051818152426020820152837fb48ebc950becd9344035b41efadaa0c158680988f06fe7c33def914fac00d2b460403393a38284526006602052604084208460058692018054905b8184106112395750506111f49150612718565b11156111fe578280f35b600360ff198254161790557f0502c603c65ded55ed0e1828307bcc449cead97c05f0abd2eb22b242e834b5346020604051428152a25f808280f35b9091611256600191600261124d87866124d5565b5001549061252a565b93019291906111e1565b60405162461bcd60e51b8152602060048201526016602482015275135d5cdd081a185d99481c185c9d1a58da5c185d195960521b6044820152606490fd5b60405162461bcd60e51b815260206004820152601060248201526f105b1c9958591e481c995c1bdc9d195960821b6044820152606490fd5b60405162461bcd60e51b815260206004820152601560248201527410dbdbdb191bdddb881c195c9a5bd908195b991959605a1b6044820152606490fd5b60405162461bcd60e51b8152602060048201526016602482015275139bdd081a5b8818dbdbdb191bdddb881c195c9a5bd960521b6044820152606490fd5b634e487b7160e01b85526021600452602485fd5b50346102c85760203660031901126102c857600435611382612674565b8082526006602052604082209061139b8254151561244c565b6009820160ff81541660078110156113515790600260ff9214806115f1575b6115b7575b541660078110156115a35760040361155e5780835260076020526040832060018060a01b0333165f5260205260405f20906113fc825415156124ee565b8392845b835481101561148f5760ff600361141783876123b3565b500154161580611474575b61142f575b600101611400565b9361146c600191600361144288886123b3565b5001805460ff191684179055611466600261145d89896123b3565b500154866126a7565b9061252a565b949050611427565b50600161148182866123b3565b500154600a83015414611422565b509091508215611523576002015460405163a9059cbb60e01b815233600482015260248101849052906020908290604490829088906001600160a01b03165af18015611518576114e59185916107195750612563565b6040519182527f24b5efa61dd1cfc659205a97fb8ed868f3cb8c81922bab2b96423e5de1de2cb760203393a36001805580f35b6040513d86823e3d90fd5b60405162461bcd60e51b81526020600482015260136024820152724e6f207265776172647320746f20636c61696d60681b6044820152606490fd5b60405162461bcd60e51b815260206004820152601860248201527f50726564696374696f6e206e6f7420636f6e6669726d656400000000000000006044820152606490fd5b634e487b7160e01b84526021600452602484fd5b60048219825416178155827fe2b706b8648ea80c9163fd6008ae036cc642e95470d8e7671a457d87528c1b696020604051428152a26113bf565b50600b8401544210156113ba565b50346102c85760203660031901126102c85760043561161c61264e565b603c81101580611690575b61163090612601565b7fd7474166e78731bc168caca1fe1ccebbd6f3c95baee64997902e6b48f442b81a60a06002546040519060608252601060608301526f31b7b7b63237bbb7223ab930ba34b7b760811b60808301526020820152836040820152a160025580f35b5062015180811115611627565b50346102c857806003193601126102c857546040516001600160a01b039091168152602090f35b50346102c85760203660031901126102c8576004358082526006602052604082206116f18154151561244c565b600981019060ff82541660078110156113515761170e90156125bd565b60018101546001600160a01b031633149081156117a9575b501561176457600160ff198254161790557f82693e388c8d513cb77ae3ac8629e266a93d2feb906dbfde93569303e42dba736020604051428152a280f35b60405162461bcd60e51b815260206004820152601d60248201527f4e6f7420617574686f72697a6564206f72206e6f7420657870697265640000006044820152606490fd5b600701545f198114159150816117c1575b505f611726565b90504210155f6117ba565b50346102c85760203660031901126102c85760409060043581526006602052206117f88154151561244c565b60018060a01b0360018201541660018060a01b036002830154169160ff60098201541690600d81015460078201549061186761185c61183e6003600587015496016122a0565b6040519889988952602089015260e0604089015260e0880190612340565b946060870190612364565b608085015260a084015260c08301520390f35b50346119b55760403660031901126119b5576004356024356001600160401b0381116119b5576118ae9036906004016123e0565b6118b661264e565b815f52600660205260405f206118ce8154151561244c565b6009810160ff81541660078110156119fa57600281149081156119ef575b50156119b957805460ff1916600590811790915554600191909101546001600160a01b039182169116813b156119b5575f90604051928391639d96cce160e01b835260048301526040602483015281838161194a6044820189612340565b03925af180156119aa57611993575b5061198d7f6943247f53fee31d04cf61d98ead2c3c6c3fc7b53cf37288a4f4f6849557c78f916040519182914290836125a1565b0390a280f35b6119a09193505f9061227f565b5f9161198d611959565b6040513d5f823e3d90fd5b5f80fd5b60405162461bcd60e51b815260206004820152600e60248201526d496e76616c69642073746174757360901b6044820152606490fd5b60039150145f6118ec565b634e487b7160e01b5f52602160045260245ffd5b346119b5575f3660031901126119b557611a2661264e565b5f80546001600160a01b0319811682556001600160a01b03167f8be0079c531659141344cd1fd0a4f28419497f9722a3daafe3b4186f6b6457e08280a3005b346119b55760603660031901126119b557611a7e612371565b604435906004355f52600760205260405f209060018060a01b03165f5260205260405f2080548210156119b557608091611ab7916123b3565b5060018060a01b038154169060018101549060ff6003600283015492015416916040519384526020840152604083015215156060820152f35b346119b55760203660031901126119b557600435805f52600660205260405f20611b1c8154151561244c565b600981019060ff82541660078110156119fa57600203611bb457600b01544210611b7757600460ff198254161790557fe2b706b8648ea80c9163fd6008ae036cc642e95470d8e7671a457d87528c1b696020604051428152a2005b60405162461bcd60e51b815260206004820152601560248201527410dbdbdb191bdddb881b9bdd08199a5b9a5cda1959605a1b6044820152606490fd5b60405162461bcd60e51b815260206004820152600f60248201526e2737ba1034b71031b7b7b63237bbb760891b6044820152606490fd5b346119b55760203660031901126119b557600435611c07612674565b805f52600660205260405f20611c1f8154151561244c565b60ff60098201541660078110156119fa57600503611d9c575f82815260076020908152604080832033845290915290208054611c5c9015156124ee565b5f925f5b8254811015611cbc5760ff6003611c7783866123b3565b5001541615611c89575b600101611c60565b93611cb46001916003611c9c88876123b3565b5001805460ff191684179055600261124d88876123b3565b949050611c81565b8482858215611d62576002015460405163a9059cbb60e01b81523360048201526024810184905290602090829060449082905f906001600160a01b03165af180156119aa57611d11915f91611d435750612563565b6040519182527f24b5efa61dd1cfc659205a97fb8ed868f3cb8c81922bab2b96423e5de1de2cb760203393a360018055005b611d5c915060203d60201161074157610733818361227f565b8461059f565b60405162461bcd60e51b81526020600482015260126024820152714e6f20726566756e6420746f20636c61696d60701b6044820152606490fd5b60405162461bcd60e51b815260206004820152600c60248201526b139bdd08191a5cdc1d5d195960a21b6044820152606490fd5b346119b557611e39611e10611de43661239d565b905f526006602052600560405f20611dfe8154151561244c565b01611e0b81548310612498565b6124d5565b506001810154611e246002830154926122a0565b91604051938493606085526060850190612340565b91602084015260408301520390f35b346119b557611e563661239d565b90611e5f61264e565b80151580611fb3575b15611f79578115611f3e577fd7474166e78731bc168caca1fe1ccebbd6f3c95baee64997902e6b48f442b81a60a06003546040519060608252601960608301527f7265706f72745468726573686f6c6450657263656e746167650000000000000060808301526020820152836040820152a17fd7474166e78731bc168caca1fe1ccebbd6f3c95baee64997902e6b48f442b81a60a0600454604051906060825260126060830152711b5a5b94995c1bdc9d1cd4995c5d5a5c995960721b60808301526020820152846040820152a1600355600455005b60405162461bcd60e51b8152602060048201526013602482015272496e76616c6964206d696e207265706f72747360681b6044820152606490fd5b60405162461bcd60e51b8152602060048201526012602482015271496e76616c69642070657263656e7461676560701b6044820152606490fd5b506032811115611e68565b346119b5575f3660031901126119b5576020600254604051908152f35b346119b5575f3660031901126119b5576020600454604051908152f35b346119b55760203660031901126119b55760043561201461264e565b805f526006602052600960405f2061202e8154151561244c565b0160ff81541660078110156119fa57600281149081156120cb575b501561208657600460ff198254161790557fe2b706b8648ea80c9163fd6008ae036cc642e95470d8e7671a457d87528c1b696020604051428152a2005b60405162461bcd60e51b815260206004820152601f60248201527f496e76616c69642073746174757320666f7220636f6e6669726d6174696f6e006044820152606490fd5b600391501483612049565b346119b55760403660031901126119b5576120ef612371565b6004355f52600860205260405f209060018060a01b03165f52602052602060ff60405f2054166040519015158152f35b346119b55760203660031901126119b5576004355f9081526006602052604090208054600182015460028301546001600160a01b03918216939116612166600383016122a0565b91612173600482016122a0565b9260068201549360078301546008840154600985015460ff1691600a86015493600b87015495600c88015497600d0154986040519c8d9c8d5260208d015260408c015260608b016101a090526101a08b016121cd91612340565b8a810360808c01526121de91612340565b9760a08a015260c089015260e088015261010087016121fc91612364565b6101208601526101408501526101608401526101808301520390f35b90600182811c92168015612246575b602083101461223257565b634e487b7160e01b5f52602260045260245ffd5b91607f1691612227565b608081019081106001600160401b0382111761226b57604052565b634e487b7160e01b5f52604160045260245ffd5b90601f801991011681019081106001600160401b0382111761226b57604052565b9060405191825f8254926122b384612218565b808452936001811690811561231e57506001146122da575b506122d89250038361227f565b565b90505f9291925260205f20905f915b8183106123025750509060206122d8928201015f6122cb565b60209193508060019154838589010152019101909184926122e9565b9050602092506122d894915060ff191682840152151560051b8201015f6122cb565b805180835260209291819084018484015e5f828201840152601f01601f1916010190565b9060078210156119fa5752565b602435906001600160a01b03821682036119b557565b600435906001600160a01b03821682036119b557565b60409060031901126119b5576004359060243590565b80548210156123cc575f5260205f209060021b01905f90565b634e487b7160e01b5f52603260045260245ffd5b81601f820112156119b5578035906001600160401b03821161226b5760405192612414601f8401601f19166020018561227f565b828452602083830101116119b557815f926020809301838601378301015290565b6001600160401b03811161226b5760051b60200190565b1561245357565b60405162461bcd60e51b815260206004820152601960248201527f50726564696374696f6e20646f6573206e6f74206578697374000000000000006044820152606490fd5b1561249f57565b60405162461bcd60e51b815260206004820152600e60248201526d24b73b30b634b21037b83a34b7b760911b6044820152606490fd5b80548210156123cc575f52600360205f20910201905f90565b156124f557565b60405162461bcd60e51b815260206004820152600d60248201526c139bc818995d1cc8199bdd5b99609a1b6044820152606490fd5b9190820180921161253757565b634e487b7160e01b5f52601160045260245ffd5b908160209103126119b5575180151581036119b55790565b1561256a57565b60405162461bcd60e51b815260206004820152600f60248201526e151c985b9cd9995c8819985a5b1959608a1b6044820152606490fd5b9291906125b8602091604086526040860190612340565b930152565b156125c457565b60405162461bcd60e51b815260206004820152601560248201527450726564696374696f6e206e6f742061637469766560581b6044820152606490fd5b1561260857565b60405162461bcd60e51b815260206004820152601060248201526f24b73b30b634b210323ab930ba34b7b760811b6044820152606490fd5b5f1981146125375760010190565b5f546001600160a01b0316330361266157565b63118cdaa760e01b5f523360045260245ffd5b600260015414612685576002600155565b633ee5aeb560e01b5f5260045ffd5b8181029291811591840414171561253757565b5f52600660205260405f2090600d60016126c8600a850154600586016124d5565b50015492015482810390808211612537578314612712576126e99082612694565b9180156126fe576126fb92049061252a565b90565b634e487b7160e01b5f52601260045260245ffd5b50905090565b61272760649160035490612694565b04600454808210612736575090565b90509056fea2646970667358221220ac614eaf662d1671e9a7574db1bfb699c7071e3f7bb7db8f5f3cc0bc5d25f41864736f6c634300081c0033",
  "linkReferences": {},
  "deployedLinkReferences": {},
  "immutableReferences": {},
  "inputSourceName": "project/contracts/PredictionMarket.sol",
  "buildInfoId": "solc-0_8_28-9f648d4e79205c65fcf46538fde2dce41259822d"
}