{
  "_format": "hh3-artifact-1",
  "contractName": "TokenExchange",
  "sourceName": "contracts/TokenExchange.sol",
  "abi": [
    {
      "inputs": [
        {
          "internalType": "address",
          "name": "factoryAddress",
          "type": "address"
        }
      ],
      "stateMutability": "nonpayable",
      "type": "constructor"
    },
    {
      "inputs": [
        {
          "internalType": "address",
          "name": "owner",
          "type": "address"
        }
      ],
      "name": "OwnableInvalidOwner",
      "type": "error"
    },
    {
      "inputs": [
        {
          "internalType": "address",
          "name": "account",
          "type": "address"
        }
      ],
      "name": "OwnableUnauthorizedAccount",
      "type": "error"
    },
    {
      "inputs": [],
      "name": "ReentrancyGuardReentrantCall",
      "type": "error"
    },
    {
      "anonymous": false,
      "inputs": [
        {
          "indexed": true,
          "internalType": "address",
          "name": "creator",
          "type": "address"
        },
        {
          "indexed": true,
          "internalType": "address",
          "name": "creatorToken",
          "type": "address"
        },
        {
          "indexed": false,
          "internalType": "uint256",
          "name": "amount",
          "type": "uint256"
        },
        {
          "indexed": false,
          "internalType": "uint256",
          "name": "totalReserve",
          "type": "uint256"
        }
      ],
      "name": "CreatorReserveAdded",
      "type": "event"
    },
    {
      "anonymous": false,
      "inputs": [
        {
          "indexed": true,
          "internalType": "address",
          "name": "creator",
          "type": "address"
        },
        {
          "indexed": false,
          "internalType": "uint256",
          "name": "amount",
          "type": "uint256"
        }
      ],
      "name": "CreatorReserveWithdrawn",
      "type": "event"
    },
    {
      "anonymous": false,
      "inputs": [
        {
          "indexed": true,
          "internalType": "address",
          "name": "recipient",
          "type": "address"
        },
        {
          "indexed": false,
          "internalType": "uint256",
          "name": "amount",
          "type": "uint256"
        }
      ],
      "name": "FeesWithdrawn",
      "type": "event"
    },
    {
      "anonymous": false,
      "inputs": [
        {
          "indexed": true,
          "internalType": "address",
          "name": "creatorToken",
          "type": "address"
        },
        {
          "indexed": false,
          "internalType": "uint256",
          "name": "amount",
          "type": "uint256"
        },
        {
          "indexed": false,
          "internalType": "uint256",
          "name": "totalReserve",
          "type": "uint256"
        }
      ],
      "name": "LiquidityReserved",
      "type": "event"
    },
    {
      "anonymous": false,
      "inputs": [
        {
          "indexed": true,
          "internalType": "address",
          "name": "previousOwner",
          "type": "address"
        },
        {
          "indexed": true,
          "internalType": "address",
          "name": "newOwner",
          "type": "address"
        }
      ],
      "name": "OwnershipTransferred",
      "type": "event"
    },
    {
      "anonymous": false,
      "inputs": [
        {
          "indexed": false,
          "internalType": "uint256",
          "name": "oldFee",
          "type": "uint256"
        },
        {
          "indexed": false,
          "internalType": "uint256",
          "name": "newFee",
          "type": "uint256"
        }
      ],
      "name": "PlatformFeeUpdated",
      "type": "event"
    },
    {
      "anonymous": false,
      "inputs": [
        {
          "indexed": true,
          "internalType": "address",
          "name": "buyer",
          "type": "address"
        },
        {
          "indexed": true,
          "internalType": "address",
          "name": "creatorToken",
          "type": "address"
        },
        {
          "indexed": false,
          "internalType": "uint256",
          "name": "tokensAmount",
          "type": "uint256"
        },
        {
          "indexed": false,
          "internalType": "uint256",
          "name": "nativeAmount",
          "type": "uint256"
        },
        {
          "indexed": false,
          "internalType": "uint256",
          "name": "fee",
          "type": "uint256"
        }
      ],
      "name": "TokensPurchased",
      "type": "event"
    },
    {
      "anonymous": false,
      "inputs": [
        {
          "indexed": true,
          "internalType": "address",
          "name": "seller",
          "type": "address"
        },
        {
          "indexed": true,
          "internalType": "address",
          "name": "creatorToken",
          "type": "address"
        },
        {
          "indexed": false,
          "internalType": "uint256",
          "name": "tokensAmount",
          "type": "uint256"
        },
        {
          "indexed": false,
          "internalType": "uint256",
          "name": "nativeAmount",
          "type": "uint256"
        },
        {
          "indexed": false,
          "internalType": "uint256",
          "name": "fee",
          "type": "uint256"
        }
      ],
      "name": "TokensSold",
      "type": "event"
    },
    {
      "inputs": [],
      "name": "CREATOR_SHARE",
      "outputs": [
        {
          "internalType": "uint256",
          "name": "",
          "type": "uint256"
        }
      ],
      "stateMutability": "view",
      "type": "function"
    },
    {
      "inputs": [],
      "name": "LIQUIDITY_SHARE",
      "outputs": [
        {
          "internalType": "uint256",
          "name": "",
          "type": "uint256"
        }
      ],
      "stateMutability": "view",
      "type": "function"
    },
    {
      "inputs": [],
      "name": "PLATFORM_SHARE",
      "outputs": [
        {
          "internalType": "uint256",
          "name": "",
          "type": "uint256"
        }
      ],
      "stateMutability": "view",
      "type": "function"
    },
    {
      "inputs": [],
      "name": "accumulatedFees",
      "outputs": [
        {
          "internalType": "uint256",
          "name": "",
          "type": "uint256"
        }
      ],
      "stateMutability": "view",
      "type": "function"
    },
    {
      "inputs": [
        {
          "internalType": "address",
          "name": "creatorToken",
          "type": "address"
        }
      ],
      "name": "buyTokens",
      "outputs": [],
      "stateMutability": "payable",
      "type": "function"
    },
    {
      "inputs": [
        {
          "internalType": "address",
          "name": "creatorToken",
          "type": "address"
        },
        {
          "internalType": "uint256",
          "name": "nativeAmount",
          "type": "uint256"
        }
      ],
      "name": "calculateBuyAmount",
      "outputs": [
        {
          "internalType": "uint256",
          "name": "tokensAmount",
          "type": "uint256"
        },
        {
          "internalType": "uint256",
          "name": "fee",
          "type": "uint256"
        }
      ],
      "stateMutability": "view",
      "type": "function"
    },
    {
      "inputs": [
        {
          "internalType": "address",
          "name": "creatorToken",
          "type": "address"
        },
        {
          "internalType": "uint256",
          "name": "tokenAmount",
          "type": "uint256"
        }
      ],
      "name": "calculateSellAmount",
      "outputs": [
        {
          "internalType": "uint256",
          "name": "nativeAmount",
          "type": "uint256"
        },
        {
          "internalType": "uint256",
          "name": "fee",
          "type": "uint256"
        }
      ],
      "stateMutability": "view",
      "type": "function"
    },
    {
      "inputs": [
        {
          "internalType": "address",
          "name": "",
          "type": "address"
        }
      ],
      "name": "creatorEarnings",
      "outputs": [
        {
          "internalType": "uint256",
          "name": "",
          "type": "uint256"
        }
      ],
      "stateMutability": "view",
      "type": "function"
    },
    {
      "inputs": [
        {
          "internalType": "address",
          "name": "",
          "type": "address"
        }
      ],
      "name": "creatorReserve",
      "outputs": [
        {
          "internalType": "uint256",
          "name": "",
          "type": "uint256"
        }
      ],
      "stateMutability": "view",
      "type": "function"
    },
    {
      "inputs": [
        {
          "internalType": "address payable",
          "name": "recipient",
          "type": "address"
        },
        {
          "internalType": "uint256",
          "name": "amount",
          "type": "uint256"
        }
      ],
      "name": "emergencyWithdraw",
      "outputs": [],
      "stateMutability": "nonpayable",
      "type": "function"
    },
    {
      "inputs": [],
      "name": "factory",
      "outputs": [
        {
          "internalType": "contract CreatorTokenFactory",
          "name": "",
          "type": "address"
        }
      ],
      "stateMutability": "view",
      "type": "function"
    },
    {
      "inputs": [],
      "name": "getContractBalance",
      "outputs": [
        {
          "internalType": "uint256",
          "name": "",
          "type": "uint256"
        }
      ],
      "stateMutability": "view",
      "type": "function"
    },
    {
      "inputs": [
        {
          "internalType": "address",
          "name": "creator",
          "type": "address"
        }
      ],
      "name": "getCreatorReserve",
      "outputs": [
        {
          "internalType": "uint256",
          "name": "",
          "type": "uint256"
        }
      ],
      "stateMutability": "view",
      "type": "function"
    },
    {
      "inputs": [
        {
          "internalType": "address",
          "name": "creatorToken",
          "type": "address"
        }
      ],
      "name": "getTokenLiquidityReserve",
      "outputs": [
        {
          "internalType": "uint256",
          "name": "",
          "type": "uint256"
        }
      ],
      "stateMutability": "view",
      "type": "function"
    },
    {
      "inputs": [],
      "name": "owner",
      "outputs": [
        {
          "internalType": "address",
          "name": "",
          "type": "address"
        }
      ],
      "stateMutability": "view",
      "type": "function"
    },
    {
      "inputs": [],
      "name": "platformFee",
      "outputs": [
        {
          "internalType": "uint256",
          "name": "",
          "type": "uint256"
        }
      ],
      "stateMutability": "view",
      "type": "function"
    },
    {
      "inputs": [],
      "name": "renounceOwnership",
      "outputs": [],
      "stateMutability": "nonpayable",
      "type": "function"
    },
    {
      "inputs": [
        {
          "internalType": "address",
          "name": "creatorToken",
          "type": "address"
        },
        {
          "internalType": "uint256",
          "name": "tokenAmount",
          "type": "uint256"
        }
      ],
      "name": "sellTokens",
      "outputs": [],
      "stateMutability": "nonpayable",
      "type": "function"
    },
    {
      "inputs": [
        {
          "internalType": "uint256",
          "name": "newFee",
          "type": "uint256"
        }
      ],
      "name": "setPlatformFee",
      "outputs": [],
      "stateMutability": "nonpayable",
      "type": "function"
    },
    {
      "inputs": [
        {
          "internalType": "address",
          "name": "",
          "type": "address"
        }
      ],
      "name": "tokenLiquidityReserve",
      "outputs": [
        {
          "internalType": "uint256",
          "name": "",
          "type": "uint256"
        }
      ],
      "stateMutability": "view",
      "type": "function"
    },
    {
      "inputs": [
        {
          "internalType": "address",
          "name": "newOwner",
          "type": "address"
        }
      ],
      "name": "transferOwnership",
      "outputs": [],
      "stateMutability": "nonpayable",
      "type": "function"
    },
    {
      "inputs": [
        {
          "internalType": "uint256",
          "name": "amount",
          "type": "uint256"
        }
      ],
      "name": "withdrawCreatorReserve",
      "outputs": [],
      "stateMutability": "nonpayable",
      "type": "function"
    },
    {
      "inputs": [
        {
          "internalType": "address payable",
          "name": "recipient",
          "type": "address"
        }
      ],
      "name": "withdrawFees",
      "outputs": [],
      "stateMutability": "nonpayable",
      "type": "function"
    },
    {
      "stateMutability": "payable",
      "type": "receive"
    }
  ],
  "bytecode": "0x60806040526064600355348015610014575f5ffd5b50604051611bd6380380611bd683398101604081905261003391610131565b338061005957604051631e4fbdf760e01b81525f60048201526024015b60405180910390fd5b610062816100e2565b50600180556001600160a01b0381166100bd5760405162461bcd60e51b815260206004820152601760248201527f496e76616c696420666163746f727920616464726573730000000000000000006044820152606401610050565b600280546001600160a01b0319166001600160a01b039290921691909117905561015e565b5f80546001600160a01b038381166001600160a01b0319831681178455604051919092169283917f8be0079c531659141344cd1fd0a4f28419497f9722a3daafe3b4186f6b6457e09190a35050565b5f60208284031215610141575f5ffd5b81516001600160a01b0381168114610157575f5ffd5b9392505050565b611a6b8061016b5f395ff3fe608060405260043610610112575f3560e01c806312e8e2c31461011d578063164e68de1461013e57806326232a2e1461015d57806343270d5614610185578063573a5b6b1461019a578063587f5ed7146101c757806366fab57c146101dc5780636f9fb98a146101f0578063715018a6146102025780637cee5cd0146102165780638da5cb5b1461024a57806395ccea671461026b578063a0de19381461028a578063a5fa77ed146102b5578063c3e11ca7146102e9578063c45a015514610314578063c464fe6514610333578063cc0c303914610352578063dc354a6f14610366578063ec8ac4d814610385578063f2f2c5c414610398578063f2fde38b146103b7578063fa3c30a8146103d6575f5ffd5b3661011957005b5f5ffd5b348015610128575f5ffd5b5061013c61013736600461176a565b610401565b005b348015610149575f5ffd5b5061013c610158366004611795565b6104b3565b348015610168575f5ffd5b5061017260035481565b6040519081526020015b60405180910390f35b348015610190575f5ffd5b506101726125e481565b3480156101a5575f5ffd5b506101b96101b43660046117b7565b6105e8565b60405161017c9291906117e1565b3480156101d2575f5ffd5b5061017260045481565b3480156101e7575f5ffd5b50610172606481565b3480156101fb575f5ffd5b5047610172565b34801561020d575f5ffd5b5061013c6106a8565b348015610221575f5ffd5b50610172610230366004611795565b6001600160a01b03165f9081526007602052604090205490565b348015610255575f5ffd5b5061025e6106bb565b60405161017c91906117ef565b348015610276575f5ffd5b5061013c6102853660046117b7565b6106c9565b348015610295575f5ffd5b506101726102a4366004611795565b60076020525f908152604090205481565b3480156102c0575f5ffd5b506101726102cf366004611795565b6001600160a01b03165f9081526006602052604090205490565b3480156102f4575f5ffd5b50610172610303366004611795565b60066020525f908152604090205481565b34801561031f575f5ffd5b5060025461025e906001600160a01b031681565b34801561033e575f5ffd5b5061013c61034d3660046117b7565b6107aa565b34801561035d575f5ffd5b5061017260c881565b348015610371575f5ffd5b5061013c61038036600461176a565b610d7e565b61013c610393366004611795565b61108a565b3480156103a3575f5ffd5b506101b96103b23660046117b7565b6115d7565b3480156103c2575f5ffd5b5061013c6103d1366004611795565b611685565b3480156103e1575f5ffd5b506101726103f0366004611795565b60056020525f908152604090205481565b6104096116bf565b6103e88111156104735760405162461bcd60e51b815260206004820152602a60248201527f46656520746f6f206869676820286d617820313025203d203130303020626173604482015269697320706f696e74732960b01b60648201526084015b60405180910390fd5b7fd347e206f25a89b917fc9482f1a2d294d749baa4dc9bde7fb495ee11fe491643600354826040516104a69291906117e1565b60405180910390a1600355565b6104bb6116bf565b6001600160a01b0381166104e15760405162461bcd60e51b815260040161046a90611803565b5f600454116105285760405162461bcd60e51b81526020600482015260136024820152724e6f206665657320746f20776974686472617760681b604482015260640161046a565b600480545f918290556040519091906001600160a01b0384169083908381818185875af1925050503d805f811461057a576040519150601f19603f3d011682016040523d82523d5f602084013e61057f565b606091505b50509050806105a05760405162461bcd60e51b815260040161046a9061182e565b826001600160a01b03167fc0819c13be868895eb93e40eaceb96de976442fa1d404e5c55f14bb65a8c489a836040516105db91815260200190565b60405180910390a2505050565b5f5f5f83116106095760405162461bcd60e51b815260040161046a90611857565b604051631562a7f160e31b81526004810184905284905f906001600160a01b0383169063ab153f8890602401602060405180830381865afa158015610650573d5f5f3e3d5ffd5b505050506040513d601f19601f82011682018060405250810190610674919061188e565b90506127106003548261068791906118b9565b61069191906118d6565b925061069d83826118f5565b935050509250929050565b6106b06116bf565b6106b95f6116f1565b565b5f546001600160a01b031690565b6106d16116bf565b6001600160a01b0382166106f75760405162461bcd60e51b815260040161046a90611803565b5f81116107165760405162461bcd60e51b815260040161046a90611857565b804710156107365760405162461bcd60e51b815260040161046a90611908565b5f826001600160a01b0316826040515f6040518083038185875af1925050503d805f811461077f576040519150601f19603f3d011682016040523d82523d5f602084013e610784565b606091505b50509050806107a55760405162461bcd60e51b815260040161046a9061182e565b505050565b6107b2611740565b5f81116107d15760405162461bcd60e51b815260040161046a90611857565b60025460405163c78418b960e01b81525f916001600160a01b03169063c78418b9906108019086906004016117ef565b602060405180830381865afa15801561081c573d5f5f3e3d5ffd5b505050506040513d601f19601f820116820180604052508101906108409190611936565b90506001600160a01b0381166108685760405162461bcd60e51b815260040161046a90611951565b600254604051637096920b60e11b81526001600160a01b039091169063e12d2416906108989084906004016117ef565b602060405180830381865afa1580156108b3573d5f5f3e3d5ffd5b505050506040513d601f19601f820116820180604052508101906108d7919061197f565b6108f35760405162461bcd60e51b815260040161046a9061199e565b6040516370a0823160e01b8152839083906001600160a01b038316906370a08231906109239033906004016117ef565b602060405180830381865afa15801561093e573d5f5f3e3d5ffd5b505050506040513d601f19601f82011682018060405250810190610962919061188e565b10156109805760405162461bcd60e51b815260040161046a90611908565b604051631562a7f160e31b8152600481018490525f906001600160a01b0383169063ab153f8890602401602060405180830381865afa1580156109c5573d5f5f3e3d5ffd5b505050506040513d601f19601f820116820180604052508101906109e9919061188e565b90505f8111610a0a5760405162461bcd60e51b815260040161046a906119c9565b5f61271060035483610a1c91906118b9565b610a2691906118d6565b90505f610a3382846118f5565b6001600160a01b0388165f90815260066020526040902054909150811115610a9d5760405162461bcd60e51b815260206004820152601e60248201527f496e73756666696369656e74206c697175696469747920726573657276650000604482015260640161046a565b6040516323b872dd60e01b8152336004820152306024820152604481018790526001600160a01b038516906323b872dd906064016020604051808303815f875af1158015610aed573d5f5f3e3d5ffd5b505050506040513d601f19601f82011682018060405250810190610b11919061197f565b610b2d5760405162461bcd60e51b815260040161046a9061182e565b604051632770a7eb60e21b81526001600160a01b03851690639dc29fac90610b5b9030908a906004016119f3565b5f604051808303815f87803b158015610b72575f5ffd5b505af1158015610b84573d5f5f3e3d5ffd5b505050508160045f828254610b999190611a0c565b90915550506001600160a01b0387165f908152600660205260408120805491839190610bc583856118f5565b90915550506001600160a01b0386165f9081526007602052604090205415801590610bef57505f81115b15610c8d576001600160a01b0386165f908152600760205260408120548290610c199085906118b9565b610c2391906118d6565b6001600160a01b0388165f90815260076020526040902054909150811115610c5f57506001600160a01b0386165f908152600760205260409020545b6001600160a01b0387165f9081526007602052604081208054839290610c869084906118f5565b9091555050505b6040515f90339084908381818185875af1925050503d805f8114610ccc576040519150601f19603f3d011682016040523d82523d5f602084013e610cd1565b606091505b5050905080610d1b5760405162461bcd60e51b815260206004820152601660248201527513985d1a5d99481d1c985b9cd9995c8819985a5b195960521b604482015260640161046a565b886001600160a01b0316336001600160a01b03167fa0fe9740856690637d999c103293d3c823fc3b81443c34c6004bb582ab4b61668a8888604051610d6293929190611a1f565b60405180910390a350505050505050610d7a60018055565b5050565b610d86611740565b335f90815260076020526040902054610dd85760405162461bcd60e51b81526020600482015260146024820152734e6f207265736572766520617661696c61626c6560601b604482015260640161046a565b6002546040516334e4aef160e21b81525f916001600160a01b03169063d392bbc490610e089033906004016117ef565b602060405180830381865afa158015610e23573d5f5f3e3d5ffd5b505050506040513d601f19601f82011682018060405250810190610e479190611936565b90506001600160a01b038116610e965760405162461bcd60e51b815260206004820152601460248201527321b932b0ba37b9103430b9903737903a37b5b2b760611b604482015260640161046a565b335f90815260076020526040812054908315610eb25783610eb4565b815b90505f8111610ed55760405162461bcd60e51b815260040161046a90611857565b81811115610f1c5760405162461bcd60e51b8152602060048201526014602482015273496e73756666696369656e74207265736572766560601b604482015260640161046a565b80471015610f6c5760405162461bcd60e51b815260206004820152601d60248201527f496e73756666696369656e7420636f6e74726163742062616c616e6365000000604482015260640161046a565b6001600160a01b0383165f9081526006602052604090205480821115610f90578091505b335f9081526007602052604081208054849290610fae9084906118f5565b90915550506001600160a01b0384165f9081526006602052604081208054849290610fda9084906118f5565b90915550506040515f90339084908381818185875af1925050503d805f811461101e576040519150601f19603f3d011682016040523d82523d5f602084013e611023565b606091505b50509050806110445760405162461bcd60e51b815260040161046a9061182e565b60405183815233907fe690a8b437bac1069509f61eb3191a82f817f269d7567f9d382d056a37c92b9d9060200160405180910390a2505050505061108760018055565b50565b611092611740565b5f34116110dd5760405162461bcd60e51b81526020600482015260196024820152784d7573742073656e64206e61746976652063757272656e637960381b604482015260640161046a565b60025460405163c78418b960e01b81525f916001600160a01b03169063c78418b99061110d9085906004016117ef565b602060405180830381865afa158015611128573d5f5f3e3d5ffd5b505050506040513d601f19601f8201168201806040525081019061114c9190611936565b90506001600160a01b0381166111745760405162461bcd60e51b815260040161046a90611951565b600254604051637096920b60e11b81526001600160a01b039091169063e12d2416906111a49084906004016117ef565b602060405180830381865afa1580156111bf573d5f5f3e3d5ffd5b505050506040513d601f19601f820116820180604052508101906111e3919061197f565b6111ff5760405162461bcd60e51b815260040161046a9061199e565b815f61271061120f60c8346118b9565b61121991906118d6565b90505f61271061122a6064346118b9565b61123491906118d6565b90505f6127106112466125e4346118b9565b61125091906118d6565b9050348161125e8486611a0c565b6112689190611a0c565b11156112b65760405162461bcd60e51b815260206004820152601e60248201527f446973747269627574696f6e2063616c63756c6174696f6e206572726f720000604482015260640161046a565b6040516360d1f85760e11b81523460048201525f906001600160a01b0386169063c1a3f0ae90602401602060405180830381865afa1580156112fa573d5f5f3e3d5ffd5b505050506040513d601f19601f8201168201806040525081019061131e919061188e565b90505f811161133f5760405162461bcd60e51b815260040161046a906119c9565b8260045f8282546113509190611a0c565b90915550506040515f906001600160a01b0388169086908381818185875af1925050503d805f811461139d576040519150601f19603f3d011682016040523d82523d5f602084013e6113a2565b606091505b50509050806113f05760405162461bcd60e51b815260206004820152601a602482015279151c985b9cd9995c881d1bc818dc99585d1bdc8819985a5b195960321b604482015260640161046a565b6001600160a01b0387165f9081526005602052604081208054879290611417908490611a0c565b90915550506001600160a01b0387165f9081526007602052604081208054859290611443908490611a0c565b90915550506001600160a01b0388165f908152600660205260408120805485929061146f908490611a0c565b90915550506001600160a01b0388165f81815260066020526040908190205490517f77189e13d551c35b1e30aef3c4fcfb59c61a15754bf7b8a1f98730aa2c1e4168916114be918791906117e1565b60405180910390a26001600160a01b038781165f8181526007602052604090819020549051928b16927f7598a462d40c83e00c1a65c21c4bede9e6478e28fece447e38d455715050559791611515918891906117e1565b60405180910390a36040516340c10f1960e01b81526001600160a01b038716906340c10f199061154b90339086906004016119f3565b5f604051808303815f87803b158015611562575f5ffd5b505af1158015611574573d5f5f3e3d5ffd5b50505050876001600160a01b0316336001600160a01b03167f377aadedb6b2a771959584d10a6a36eccb5f56b4eb3a48525f76108d2660d8d48434886040516115bf93929190611a1f565b60405180910390a35050505050505061108760018055565b5f5f5f83116115f85760405162461bcd60e51b815260040161046a90611857565b836127106116076064866118b9565b61161191906118d6565b6040516360d1f85760e11b8152600481018690529092506001600160a01b0382169063c1a3f0ae90602401602060405180830381865afa158015611657573d5f5f3e3d5ffd5b505050506040513d601f19601f8201168201806040525081019061167b919061188e565b9250509250929050565b61168d6116bf565b6001600160a01b0381166116b6575f604051631e4fbdf760e01b815260040161046a91906117ef565b611087816116f1565b336116c86106bb565b6001600160a01b0316146106b9573360405163118cdaa760e01b815260040161046a91906117ef565b5f80546001600160a01b038381166001600160a01b0319831681178455604051919092169283917f8be0079c531659141344cd1fd0a4f28419497f9722a3daafe3b4186f6b6457e09190a35050565b60026001540361176357604051633ee5aeb560e01b815260040160405180910390fd5b6002600155565b5f6020828403121561177a575f5ffd5b5035919050565b6001600160a01b0381168114611087575f5ffd5b5f602082840312156117a5575f5ffd5b81356117b081611781565b9392505050565b5f5f604083850312156117c8575f5ffd5b82356117d381611781565b946020939093013593505050565b918252602082015260400190565b6001600160a01b0391909116815260200190565b602080825260119082015270125b9d985b1a59081c9958da5c1a595b9d607a1b604082015260600190565b6020808252600f908201526e151c985b9cd9995c8819985a5b1959608a1b604082015260600190565b6020808252601d908201527f416d6f756e74206d7573742062652067726561746572207468616e2030000000604082015260600190565b5f6020828403121561189e575f5ffd5b5051919050565b634e487b7160e01b5f52601160045260245ffd5b80820281158282048414176118d0576118d06118a5565b92915050565b5f826118f057634e487b7160e01b5f52601260045260245ffd5b500490565b818103818111156118d0576118d06118a5565b602080825260149082015273496e73756666696369656e742062616c616e636560601b604082015260600190565b5f60208284031215611946575f5ffd5b81516117b081611781565b602080825260149082015273151bdad95b881b9bdd081c9959da5cdd195c995960621b604082015260600190565b5f6020828403121561198f575f5ffd5b815180151581146117b0575f5ffd5b60208082526011908201527010dc99585d1bdc881a5cc818985b9b9959607a1b604082015260600190565b60208082526010908201526f105b5bdd5b9d081d1bdbc81cdb585b1b60821b604082015260600190565b6001600160a01b03929092168252602082015260400190565b808201808211156118d0576118d06118a5565b928352602083019190915260408201526060019056fea264697066735822122006b64ebc3d4f47e3ec7c74798749410ea8cc9a2bc363be1f61656801f699e3b264736f6c634300081c0033",
  "linkReferences": {},
  "deployedLinkReferences": {},
  "immutableReferences": {},
  "inputSourceName": "project/contracts/TokenExchange.sol",
  "buildInfoId": "solc-0_8_28-c7c3528e4cae2b0f0129c5d89acedb4374cba1d2"
}