{
  "_format": "hh3-artifact-1",
  "contractName": "CreatorTokenFactory",
  "sourceName": "contracts/CreatorTokenFactory.sol",
  "abi": [
    {
      "inputs": [],
      "stateMutability": "nonpayable",
      "type": "constructor"
    },
    {
      "inputs": [
        {
          "internalType": "address",
          "name": "owner",
          "type": "address"
        }
      ],
      "name": "OwnableInvalidOwner",
      "type": "error"
    },
    {
      "inputs": [
        {
          "internalType": "address",
          "name": "account",
          "type": "address"
        }
      ],
      "name": "OwnableUnauthorizedAccount",
      "type": "error"
    },
    {
      "anonymous": false,
      "inputs": [
        {
          "indexed": true,
          "internalType": "address",
          "name": "contractAddress",
          "type": "address"
        },
        {
          "indexed": false,
          "internalType": "bool",
          "name": "authorized",
          "type": "bool"
        }
      ],
      "name": "ContractAuthorized",
      "type": "event"
    },
    {
      "anonymous": false,
      "inputs": [
        {
          "indexed": true,
          "internalType": "address",
          "name": "creator",
          "type": "address"
        },
        {
          "indexed": true,
          "internalType": "address",
          "name": "tokenAddress",
          "type": "address"
        },
        {
          "indexed": false,
          "internalType": "string",
          "name": "reason",
          "type": "string"
        },
        {
          "indexed": false,
          "internalType": "uint256",
          "name": "timestamp",
          "type": "uint256"
        }
      ],
      "name": "CreatorBanned",
      "type": "event"
    },
    {
      "anonymous": false,
      "inputs": [
        {
          "indexed": true,
          "internalType": "address",
          "name": "creator",
          "type": "address"
        },
        {
          "indexed": true,
          "internalType": "address",
          "name": "tokenAddress",
          "type": "address"
        },
        {
          "indexed": false,
          "internalType": "string",
          "name": "name",
          "type": "string"
        },
        {
          "indexed": false,
          "internalType": "string",
          "name": "symbol",
          "type": "string"
        },
        {
          "indexed": false,
          "internalType": "uint256",
          "name": "initialPrice",
          "type": "uint256"
        },
        {
          "indexed": false,
          "internalType": "uint256",
          "name": "timestamp",
          "type": "uint256"
        }
      ],
      "name": "CreatorTokenCreated",
      "type": "event"
    },
    {
      "anonymous": false,
      "inputs": [
        {
          "indexed": true,
          "internalType": "address",
          "name": "creator",
          "type": "address"
        },
        {
          "indexed": true,
          "internalType": "address",
          "name": "tokenAddress",
          "type": "address"
        },
        {
          "indexed": false,
          "internalType": "uint256",
          "name": "timestamp",
          "type": "uint256"
        }
      ],
      "name": "CreatorUnbanned",
      "type": "event"
    },
    {
      "anonymous": false,
      "inputs": [
        {
          "indexed": false,
          "internalType": "uint256",
          "name": "oldInterval",
          "type": "uint256"
        },
        {
          "indexed": false,
          "internalType": "uint256",
          "name": "newInterval",
          "type": "uint256"
        }
      ],
      "name": "DefaultPriceUpdateIntervalChanged",
      "type": "event"
    },
    {
      "anonymous": false,
      "inputs": [
        {
          "indexed": true,
          "internalType": "address",
          "name": "previousOwner",
          "type": "address"
        },
        {
          "indexed": true,
          "internalType": "address",
          "name": "newOwner",
          "type": "address"
        }
      ],
      "name": "OwnershipTransferred",
      "type": "event"
    },
    {
      "inputs": [
        {
          "internalType": "uint256",
          "name": "",
          "type": "uint256"
        }
      ],
      "name": "allTokens",
      "outputs": [
        {
          "internalType": "address",
          "name": "",
          "type": "address"
        }
      ],
      "stateMutability": "view",
      "type": "function"
    },
    {
      "inputs": [
        {
          "internalType": "address",
          "name": "",
          "type": "address"
        }
      ],
      "name": "authorizedContracts",
      "outputs": [
        {
          "internalType": "bool",
          "name": "",
          "type": "bool"
        }
      ],
      "stateMutability": "view",
      "type": "function"
    },
    {
      "inputs": [
        {
          "internalType": "address",
          "name": "creator",
          "type": "address"
        },
        {
          "internalType": "string",
          "name": "reason",
          "type": "string"
        }
      ],
      "name": "banCreator",
      "outputs": [],
      "stateMutability": "nonpayable",
      "type": "function"
    },
    {
      "inputs": [
        {
          "internalType": "string",
          "name": "name",
          "type": "string"
        },
        {
          "internalType": "string",
          "name": "symbol",
          "type": "string"
        },
        {
          "internalType": "uint256",
          "name": "initialPrice",
          "type": "uint256"
        }
      ],
      "name": "createCreatorToken",
      "outputs": [
        {
          "internalType": "address",
          "name": "",
          "type": "address"
        }
      ],
      "stateMutability": "nonpayable",
      "type": "function"
    },
    {
      "inputs": [
        {
          "internalType": "address",
          "name": "",
          "type": "address"
        }
      ],
      "name": "creators",
      "outputs": [
        {
          "internalType": "address",
          "name": "tokenAddress",
          "type": "address"
        },
        {
          "internalType": "address",
          "name": "creatorAddress",
          "type": "address"
        },
        {
          "internalType": "bool",
          "name": "isActive",
          "type": "bool"
        },
        {
          "internalType": "bool",
          "name": "isBanned",
          "type": "bool"
        },
        {
          "internalType": "uint256",
          "name": "createdAt",
          "type": "uint256"
        },
        {
          "internalType": "uint256",
          "name": "bannedAt",
          "type": "uint256"
        },
        {
          "internalType": "string",
          "name": "reason",
          "type": "string"
        }
      ],
      "stateMutability": "view",
      "type": "function"
    },
    {
      "inputs": [],
      "name": "defaultPriceUpdateInterval",
      "outputs": [
        {
          "internalType": "uint256",
          "name": "",
          "type": "uint256"
        }
      ],
      "stateMutability": "view",
      "type": "function"
    },
    {
      "inputs": [
        {
          "internalType": "uint256",
          "name": "offset",
          "type": "uint256"
        },
        {
          "internalType": "uint256",
          "name": "limit",
          "type": "uint256"
        }
      ],
      "name": "getAllTokens",
      "outputs": [
        {
          "internalType": "address[]",
          "name": "",
          "type": "address[]"
        }
      ],
      "stateMutability": "view",
      "type": "function"
    },
    {
      "inputs": [
        {
          "internalType": "address",
          "name": "creator",
          "type": "address"
        }
      ],
      "name": "getCreatorInfo",
      "outputs": [
        {
          "internalType": "address",
          "name": "tokenAddress",
          "type": "address"
        },
        {
          "internalType": "bool",
          "name": "isActive",
          "type": "bool"
        },
        {
          "internalType": "bool",
          "name": "isBanned",
          "type": "bool"
        },
        {
          "internalType": "uint256",
          "name": "createdAt",
          "type": "uint256"
        },
        {
          "internalType": "uint256",
          "name": "bannedAt",
          "type": "uint256"
        },
        {
          "internalType": "string",
          "name": "reason",
          "type": "string"
        }
      ],
      "stateMutability": "view",
      "type": "function"
    },
    {
      "inputs": [
        {
          "internalType": "address",
          "name": "creator",
          "type": "address"
        }
      ],
      "name": "getCreatorToken",
      "outputs": [
        {
          "internalType": "address",
          "name": "",
          "type": "address"
        }
      ],
      "stateMutability": "view",
      "type": "function"
    },
    {
      "inputs": [
        {
          "internalType": "address",
          "name": "tokenAddress",
          "type": "address"
        }
      ],
      "name": "getTokenCreator",
      "outputs": [
        {
          "internalType": "address",
          "name": "",
          "type": "address"
        }
      ],
      "stateMutability": "view",
      "type": "function"
    },
    {
      "inputs": [],
      "name": "getTotalTokens",
      "outputs": [
        {
          "internalType": "uint256",
          "name": "",
          "type": "uint256"
        }
      ],
      "stateMutability": "view",
      "type": "function"
    },
    {
      "inputs": [
        {
          "internalType": "address",
          "name": "creator",
          "type": "address"
        }
      ],
      "name": "isCreatorActive",
      "outputs": [
        {
          "internalType": "bool",
          "name": "",
          "type": "bool"
        }
      ],
      "stateMutability": "view",
      "type": "function"
    },
    {
      "inputs": [],
      "name": "owner",
      "outputs": [
        {
          "internalType": "address",
          "name": "",
          "type": "address"
        }
      ],
      "stateMutability": "view",
      "type": "function"
    },
    {
      "inputs": [],
      "name": "renounceOwnership",
      "outputs": [],
      "stateMutability": "nonpayable",
      "type": "function"
    },
    {
      "inputs": [
        {
          "internalType": "address",
          "name": "contractAddress",
          "type": "address"
        },
        {
          "internalType": "bool",
          "name": "authorized",
          "type": "bool"
        }
      ],
      "name": "setAuthorizedContract",
      "outputs": [],
      "stateMutability": "nonpayable",
      "type": "function"
    },
    {
      "inputs": [
        {
          "internalType": "uint256",
          "name": "newInterval",
          "type": "uint256"
        }
      ],
      "name": "setDefaultPriceUpdateInterval",
      "outputs": [],
      "stateMutability": "nonpayable",
      "type": "function"
    },
    {
      "inputs": [
        {
          "internalType": "address",
          "name": "",
          "type": "address"
        }
      ],
      "name": "tokenToCreator",
      "outputs": [
        {
          "internalType": "address",
          "name": "",
          "type": "address"
        }
      ],
      "stateMutability": "view",
      "type": "function"
    },
    {
      "inputs": [
        {
          "internalType": "address",
          "name": "newOwner",
          "type": "address"
        }
      ],
      "name": "transferOwnership",
      "outputs": [],
      "stateMutability": "nonpayable",
      "type": "function"
    },
    {
      "inputs": [
        {
          "internalType": "address",
          "name": "creator",
          "type": "address"
        }
      ],
      "name": "unbanCreator",
      "outputs": [],
      "stateMutability": "nonpayable",
      "type": "function"
    }
  ],
  "bytecode": "0x608060405262278d006005553480156015575f5ffd5b503380603a57604051631e4fbdf760e01b81525f600482015260240160405180910390fd5b6041816046565b506095565b5f80546001600160a01b038381166001600160a01b0319831681178455604051919092169283917f8be0079c531659141344cd1fd0a4f28419497f9722a3daafe3b4186f6b6457e09190a35050565b612aa5806100a25f395ff3fe608060405234801561000f575f5ffd5b50600436106100ef575f3560e01c8063131fa123146100f35780631e88da311461010f578063634282af1461012f578063715018a6146101425780638da5cb5b1461014c578063933166e11461015457806393ac7c8f1461017a57806397d5c1ac1461018d5780639a043832146101b25780639d96cce1146101d2578063c78418b9146101e5578063d392bbc414610210578063d5b9221b14610223578063e12d241614610255578063e2a247db14610268578063f08b82e61461027b578063f27f801114610283578063f2fa7392146102ab578063f2fde38b146102be575b5f5ffd5b6100fc60055481565b6040519081526020015b60405180910390f35b61012261011d366004610f25565b6102d1565b6040516101069190610f91565b61012261013d366004610fa5565b61055b565b61014a610583565b005b610122610596565b610167610162366004610fd7565b6105a4565b6040516101069796959493929190611025565b61014a610188366004610fa5565b61067c565b6101a061019b366004610fd7565b610718565b6040516101069695949392919061107b565b6101c56101c03660046110c3565b610864565b60405161010691906110e3565b61014a6101e036600461112e565b61099d565b6101226101f3366004610fd7565b6001600160a01b039081165f908152600360205260409020541690565b61012261021e366004610fd7565b610af3565b610245610231366004610fd7565b60046020525f908152604090205460ff1681565b6040519015158152602001610106565b610245610263366004610fd7565b610b52565b61014a610276366004610fd7565b610ba8565b6002546100fc565b610122610291366004610fd7565b60036020525f90815260409020546001600160a01b031681565b61014a6102b9366004611178565b610d06565b61014a6102cc366004610fd7565b610dbd565b335f90815260016020819052604082200154600160a01b900460ff161561033d5760405162461bcd60e51b815260206004820152601b60248201527a21b932b0ba37b91030b63932b0b23c903430b99030903a37b5b2b760291b60448201526064015b60405180910390fd5b5f82116103985760405162461bcd60e51b8152602060048201526024808201527f496e697469616c207072696365206d75737420626520677265617465722074686044820152630616e20360e41b6064820152608401610334565b5f848484336005546040516103ac90610e7b565b6103ba9594939291906111b1565b604051809103905ff0801580156103d3573d5f5f3e3d5ffd5b506040805160e0810182526001600160a01b03838116825233602080840182815260018587018181525f606088018181524260808a0190815260a08a018381528b518089018d5284815260c08c019081529884529685905299909120885181546001600160a01b0319169089161781559351928401805492519151939097166001600160a81b031990921691909117600160a01b911515919091021760ff60a81b1916600160a81b911515919091021790935593516002830155925160038201559151929350839290919060048201906104ad9082611280565b505060028054600181019091557f405787fa12a823e0f2b7631cc41b3ba8828b3321ca811111fa75cd3aa3bb5ace0180546001600160a01b03199081166001600160a01b0385169081179092555f828152600360205260409081902080543393168317905551919250907fb670e0e115c324a66dd3321378417fc26a0e3b82ff60df23008340d5342a9dd79061054a908a908a908a90429061133a565b60405180910390a395945050505050565b6002818154811061056a575f80fd5b5f918252602090912001546001600160a01b0316905081565b61058b610dfa565b6105945f610e2c565b565b5f546001600160a01b031690565b600160208190525f9182526040909120805491810154600282015460038301546004840180546001600160a01b039687169685169560ff600160a01b8704811696600160a81b90041694939290916105fb906111fc565b80601f0160208091040260200160405190810160405280929190818152602001828054610627906111fc565b80156106725780601f1061064957610100808354040283529160200191610672565b820191905f5260205f20905b81548152906001019060200180831161065557829003601f168201915b5050505050905087565b610684610dfa565b5f81116106d35760405162461bcd60e51b815260206004820152601f60248201527f496e74657276616c206d7573742062652067726561746572207468616e2030006044820152606401610334565b600580549082905560408051828152602081018490527f5cec9dfdaeb4de65b38793c76192b463c035d60450f182a3416db6a916edcf6d910160405180910390a15050565b6001600160a01b038082165f908152600160208181526040808420815160e081018352815487168152938101549586169284019290925260ff600160a01b86048116151591840191909152600160a81b909404909316151560608281019190915260028401546080830152600384015460a08301526004840180549394859485948594859490938593909160c08401916107b1906111fc565b80601f01602080910402602001604051908101604052809291908181526020018280546107dd906111fc565b80156108285780601f106107ff57610100808354040283529160200191610828565b820191905f5260205f20905b81548152906001019060200180831161080b57829003601f168201915b505050919092525050815160408301516060840151608085015160a086015160c090960151939e929d50909b5099509297509550909350505050565b60025460609083106108af5760405162461bcd60e51b81526020600482015260146024820152734f6666736574206f7574206f6620626f756e647360601b6044820152606401610334565b5f6108ba8385611386565b6002549091508111156108cc57506002545b5f6108d78583611399565b90505f816001600160401b038111156108f2576108f2610e88565b60405190808252806020026020018201604052801561091b578160200160208202803683370190505b5090505f5b828110156109915760026109348289611386565b81548110610944576109446113ac565b905f5260205f20015f9054906101000a90046001600160a01b0316828281518110610971576109716113ac565b6001600160a01b0390921660209283029190910190910152600101610920565b50925050505b92915050565b6109a5610dfa565b6001600160a01b0382165f9081526001602081905260409091200154600160a01b900460ff166109e75760405162461bcd60e51b8152600401610334906113c0565b6001600160a01b0382165f9081526001602081905260409091200154600160a81b900460ff1615610a565760405162461bcd60e51b815260206004820152601960248201527810dc99585d1bdc881a5cc8185b1c9958591e4818985b9b9959603a1b6044820152606401610334565b6001600160a01b0382165f908152600160208190526040909120908101805460ff60a81b1916600160a81b179055426003820155600401610a978282611280565b506001600160a01b038083165f81815260016020526040908190205490519216917f0df753b7d47780691e5434029c1b6e9dca0aa6448cbf4f0eb7f7c6fe4c21d26a90610ae790859042906113f0565b60405180910390a35050565b6001600160a01b0381165f90815260016020819052604082200154600160a01b900460ff16610b345760405162461bcd60e51b8152600401610334906113c0565b506001600160a01b039081165f908152600160205260409020541690565b6001600160a01b0381165f90815260016020819052604082200154600160a01b900460ff1680156109975750506001600160a01b03165f9081526001602081905260409091200154600160a81b900460ff161590565b610bb0610dfa565b6001600160a01b0381165f9081526001602081905260409091200154600160a01b900460ff16610bf25760405162461bcd60e51b8152600401610334906113c0565b6001600160a01b0381165f9081526001602081905260409091200154600160a81b900460ff16610c5c5760405162461bcd60e51b815260206004820152601560248201527410dc99585d1bdc881a5cc81b9bdd0818985b9b9959605a1b6044820152606401610334565b6001600160a01b0381165f818152600160208181526040808420808401805460ff60a81b191690556003810185905581518084019092528482529490935252600490910190610cab9082611280565b506001600160a01b038082165f81815260016020526040908190205490519216917fa03081bd34eac131d67a865c76a37770773f81b111297544e390a86569f08c7e90610cfb9042815260200190565b60405180910390a350565b610d0e610dfa565b6001600160a01b038216610d5f5760405162461bcd60e51b8152602060048201526018602482015277496e76616c696420636f6e7472616374206164647265737360401b6044820152606401610334565b6001600160a01b0382165f81815260046020908152604091829020805460ff191685151590811790915591519182527f3213ab8ec2ed122402f038736b41878b69ae9f61f49a7edd0666bce891d29fc9910160405180910390a25050565b610dc5610dfa565b6001600160a01b038116610dee575f604051631e4fbdf760e01b81526004016103349190610f91565b610df781610e2c565b50565b33610e03610596565b6001600160a01b031614610594573360405163118cdaa760e01b81526004016103349190610f91565b5f80546001600160a01b038381166001600160a01b0319831681178455604051919092169283917f8be0079c531659141344cd1fd0a4f28419497f9722a3daafe3b4186f6b6457e09190a35050565b61165e8061141283390190565b634e487b7160e01b5f52604160045260245ffd5b5f82601f830112610eab575f5ffd5b81356001600160401b03811115610ec457610ec4610e88565b604051601f8201601f19908116603f011681016001600160401b0381118282101715610ef257610ef2610e88565b604052818152838201602001851015610f09575f5ffd5b816020850160208301375f918101602001919091529392505050565b5f5f5f60608486031215610f37575f5ffd5b83356001600160401b03811115610f4c575f5ffd5b610f5886828701610e9c565b93505060208401356001600160401b03811115610f73575f5ffd5b610f7f86828701610e9c565b93969395505050506040919091013590565b6001600160a01b0391909116815260200190565b5f60208284031215610fb5575f5ffd5b5035919050565b80356001600160a01b0381168114610fd2575f5ffd5b919050565b5f60208284031215610fe7575f5ffd5b610ff082610fbc565b9392505050565b5f81518084528060208401602086015e5f602082860101526020601f19601f83011685010191505092915050565b6001600160a01b03888116825287166020820152851515604082015284151560608201526080810184905260a0810183905260e060c082018190525f9061106e90830184610ff7565b9998505050505050505050565b60018060a01b03871681528515156020820152841515604082015283606082015282608082015260c060a08201525f6110b760c0830184610ff7565b98975050505050505050565b5f5f604083850312156110d4575f5ffd5b50508035926020909101359150565b602080825282518282018190525f918401906040840190835b818110156111235783516001600160a01b03168352602093840193909201916001016110fc565b509095945050505050565b5f5f6040838503121561113f575f5ffd5b61114883610fbc565b915060208301356001600160401b03811115611162575f5ffd5b61116e85828601610e9c565b9150509250929050565b5f5f60408385031215611189575f5ffd5b61119283610fbc565b9150602083013580151581146111a6575f5ffd5b809150509250929050565b60a081525f6111c360a0830188610ff7565b82810360208401526111d58188610ff7565b604084019690965250506001600160a01b0392909216606083015260809091015292915050565b600181811c9082168061121057607f821691505b60208210810361122e57634e487b7160e01b5f52602260045260245ffd5b50919050565b601f82111561127b57805f5260205f20601f840160051c810160208510156112595750805b601f840160051c820191505b81811015611278575f8155600101611265565b50505b505050565b81516001600160401b0381111561129957611299610e88565b6112ad816112a784546111fc565b84611234565b6020601f8211600181146112df575f83156112c85750848201515b5f19600385901b1c1916600184901b178455611278565b5f84815260208120601f198516915b8281101561130e57878501518255602094850194600190920191016112ee565b508482101561132b57868401515f19600387901b60f8161c191681555b50505050600190811b01905550565b608081525f61134c6080830187610ff7565b828103602084015261135e8187610ff7565b604084019590955250506060015292915050565b634e487b7160e01b5f52601160045260245ffd5b8082018082111561099757610997611372565b8181038181111561099757610997611372565b634e487b7160e01b5f52603260045260245ffd5b60208082526016908201527510dc99585d1bdc88191bd95cc81b9bdd08195e1a5cdd60521b604082015260600190565b604081525f6114026040830185610ff7565b9050826020830152939250505056fe608060405234801561000f575f5ffd5b5060405161165e38038061165e83398101604081905261002e9161028c565b818585600361003d83826103a8565b50600461004a82826103a8565b5050506001600160a01b03811661007b57604051631e4fbdf760e01b81525f60048201526024015b60405180910390fd5b6100848161019e565b505f83116100d45760405162461bcd60e51b815260206004820152601c60248201527f5072696365206d7573742062652067726561746572207468616e2030000000006044820152606401610072565b6001600160a01b03821661012a5760405162461bcd60e51b815260206004820152601760248201527f496e76616c69642063726561746f7220616464726573730000000000000000006044820152606401610072565b5f81116101885760405162461bcd60e51b815260206004820152602660248201527f55706461746520696e74657276616c206d75737420626520677265617465722060448201526507468616e20360d41b6064820152608401610072565b6006929092555042600855600955506104629050565b600580546001600160a01b038381166001600160a01b0319831681179093556040519116919082907f8be0079c531659141344cd1fd0a4f28419497f9722a3daafe3b4186f6b6457e0905f90a35050565b634e487b7160e01b5f52604160045260245ffd5b5f82601f830112610212575f5ffd5b81516001600160401b0381111561022b5761022b6101ef565b604051601f8201601f19908116603f011681016001600160401b0381118282101715610259576102596101ef565b604052818152838201602001851015610270575f5ffd5b8160208501602083015e5f918101602001919091529392505050565b5f5f5f5f5f60a086880312156102a0575f5ffd5b85516001600160401b038111156102b5575f5ffd5b6102c188828901610203565b602088015190965090506001600160401b038111156102de575f5ffd5b6102ea88828901610203565b60408801516060890151919650945090506001600160a01b038116811461030f575f5ffd5b60809690960151949793965091949392915050565b600181811c9082168061033857607f821691505b60208210810361035657634e487b7160e01b5f52602260045260245ffd5b50919050565b601f8211156103a357805f5260205f20601f840160051c810160208510156103815750805b601f840160051c820191505b818110156103a0575f815560010161038d565b50505b505050565b81516001600160401b038111156103c1576103c16101ef565b6103d5816103cf8454610324565b8461035c565b6020601f821160018114610407575f83156103f05750848201515b5f19600385901b1c1916600184901b1784556103a0565b5f84815260208120601f198516915b828110156104365787850151825560209485019460019092019101610416565b508482101561045357868401515f19600387901b60f8161c191681555b50505050600190811b01905550565b6111ef8061046f5f395ff3fe608060405234801561000f575f5ffd5b5060043610610131575f3560e01c806306fdde0314610135578063095ea7b31461015357806318160ddd1461017657806323b872dd14610188578063313ce5671461019b57806340c10f19146101aa5780634baa17aa146101bf5780635ffde7be146101de5780636949faeb146101e757806370a08231146101f0578063715018a6146102035780637ff9b5961461020b5780638d6cc56d146102145780638da5cb5b1461022757806395d89b411461023c5780639dc29fac14610244578063a9059cbb14610257578063aa2fe91b1461026a578063ab153f881461028c578063abb1dc441461029f578063adec07c7146102b8578063c1a3f0ae146102cb578063dd62ed3e146102de578063ed58bad8146102f1578063f2fde38b14610304575b5f5ffd5b61013d610317565b60405161014a9190610e39565b60405180910390f35b610166610161366004610e6d565b6103a7565b604051901515815260200161014a565b6002545b60405190815260200161014a565b610166610196366004610e95565b6103c0565b6040516012815260200161014a565b6101bd6101b8366004610e6d565b6103e3565b005b6101c76104c0565b60408051921515835260208301919091520161014a565b61017a60095481565b61017a60085481565b61017a6101fe366004610ecf565b6104fb565b6101bd610515565b61017a60065481565b6101bd610222366004610ee8565b610528565b61022f610681565b60405161014a9190610eff565b61013d610690565b6101bd610252366004610e6d565b61069f565b610166610265366004610e6d565b6107c4565b610166610278366004610ecf565b60076020525f908152604090205460ff1681565b61017a61029a366004610ee8565b6107d1565b6102a7610814565b60405161014a959493929190610f13565b6101bd6102c6366004610ee8565b610849565b61017a6102d9366004610ee8565b610926565b61017a6102ec366004610f5e565b61095f565b6101bd6102ff366004610f8f565b610989565b6101bd610312366004610ecf565b610a3e565b60606003805461032690610fc8565b80601f016020809104026020016040519081016040528092919081815260200182805461035290610fc8565b801561039d5780601f106103745761010080835404028352916020019161039d565b820191905f5260205f20905b81548152906001019060200180831161038057829003601f168201915b5050505050905090565b5f336103b4818585610a7b565b60019150505b92915050565b5f336103cd858285610a8d565b6103d8858585610ade565b506001949350505050565b335f9081526007602052604090205460ff1661043f5760405162461bcd60e51b8152602060048201526016602482015275139bdd08185d5d1a1bdc9a5e9959081d1bc81b5a5b9d60521b60448201526064015b60405180910390fd5b6001600160a01b0382166104935760405162461bcd60e51b815260206004820152601b60248201527a43616e6e6f74206d696e7420746f207a65726f206164647265737360281b6044820152606401610436565b5f81116104b25760405162461bcd60e51b815260040161043690611000565b6104bc8282610b3b565b5050565b5f5f5f6009546008546104d3919061104b565b90508042106104e757506001925f92509050565b5f6104f2428361105e565b92509250509091565b6001600160a01b03165f9081526020819052604090205490565b61051d610b6f565b6105265f610ba1565b565b610530610b6f565b5f811161057e5760405162461bcd60e51b815260206004820152601c60248201527b05072696365206d7573742062652067726561746572207468616e20360241b6044820152606401610436565b60065481036105c35760405162461bcd60e51b81526020600482015260116024820152705072696365206973207468652073616d6560781b6044820152606401610436565b6009546008546105d3919061104b565b42101561062c5760405162461bcd60e51b815260206004820152602160248201527f50726963652075706461746520636f6f6c646f776e206e6f7420656c617073656044820152601960fa1b6064820152608401610436565b60068054908290554260088190556040805183815260208101859052908101919091527f15819dd2fd9f6418b142e798d08a18d0bf06ea368f4480b7b0d3f75bd966bc48906060015b60405180910390a15050565b6005546001600160a01b031690565b60606004805461032690610fc8565b335f9081526007602052604090205460ff166106f65760405162461bcd60e51b81526020600482015260166024820152752737ba1030baba3437b934bd32b2103a3790313ab93760511b6044820152606401610436565b6001600160a01b03821661074c5760405162461bcd60e51b815260206004820152601d60248201527f43616e6e6f74206275726e2066726f6d207a65726f20616464726573730000006044820152606401610436565b5f811161076b5760405162461bcd60e51b815260040161043690611000565b80610775836104fb565b10156107ba5760405162461bcd60e51b8152602060048201526014602482015273496e73756666696369656e742062616c616e636560601b6044820152606401610436565b6104bc8282610bf2565b5f336103b4818585610ade565b5f5f82116107f15760405162461bcd60e51b815260040161043690611000565b6107fd6012600a611154565b60065461080a9084611162565b6103ba9190611179565b6060805f5f5f610822610317565b61082a610690565b600254600654610838610681565b945094509450945094509091929394565b610851610b6f565b5f81116108a05760405162461bcd60e51b815260206004820152601f60248201527f496e74657276616c206d7573742062652067726561746572207468616e2030006044820152606401610436565b60095481036108e85760405162461bcd60e51b8152602060048201526014602482015273496e74657276616c206973207468652073616d6560601b6044820152606401610436565b600980549082905560408051828152602081018490527fc06aa69f9b7f4011f8b65090e845fd0cbb4040ba7554d3a0f69455572ed8b5019101610675565b5f5f82116109465760405162461bcd60e51b815260040161043690611000565b6006546109556012600a611154565b61080a9084611162565b6001600160a01b039182165f90815260016020908152604080832093909416825291909152205490565b610991610b6f565b6001600160a01b0382166109e05760405162461bcd60e51b8152602060048201526016602482015275496e76616c6964206d696e746572206164647265737360501b6044820152606401610436565b6001600160a01b0382165f81815260076020908152604091829020805460ff191685151590811790915591519182527f9041c22ed79d1c19c69cc22fd9e38c93da4f2dd8cd32580594e232a8a18541cb910160405180910390a25050565b610a46610b6f565b6001600160a01b038116610a6f575f604051631e4fbdf760e01b81526004016104369190610eff565b610a7881610ba1565b50565b610a888383836001610c26565b505050565b5f610a98848461095f565b90505f19811015610ad85781811015610aca57828183604051637dc7a0d960e11b815260040161043693929190611198565b610ad884848484035f610c26565b50505050565b6001600160a01b038316610b07575f604051634b637e8f60e11b81526004016104369190610eff565b6001600160a01b038216610b30575f60405163ec442f0560e01b81526004016104369190610eff565b610a88838383610cf8565b6001600160a01b038216610b64575f60405163ec442f0560e01b81526004016104369190610eff565b6104bc5f8383610cf8565b33610b78610681565b6001600160a01b031614610526573360405163118cdaa760e01b81526004016104369190610eff565b600580546001600160a01b038381166001600160a01b0319831681179093556040519116919082907f8be0079c531659141344cd1fd0a4f28419497f9722a3daafe3b4186f6b6457e0905f90a35050565b6001600160a01b038216610c1b575f604051634b637e8f60e11b81526004016104369190610eff565b6104bc825f83610cf8565b6001600160a01b038416610c4f575f60405163e602df0560e01b81526004016104369190610eff565b6001600160a01b038316610c78575f604051634a1406b160e11b81526004016104369190610eff565b6001600160a01b038085165f9081526001602090815260408083209387168352929052208290558015610ad857826001600160a01b0316846001600160a01b03167f8c5be1e5ebec7d5bd14f71427d1e84f3dd0314c0f7b2291e5b200ac8c7c3b92584604051610cea91815260200190565b60405180910390a350505050565b6001600160a01b038316610d22578060025f828254610d17919061104b565b90915550610d7f9050565b6001600160a01b0383165f9081526020819052604090205481811015610d615783818360405163391434e360e21b815260040161043693929190611198565b6001600160a01b0384165f9081526020819052604090209082900390555b6001600160a01b038216610d9b57600280548290039055610db9565b6001600160a01b0382165f9081526020819052604090208054820190555b816001600160a01b0316836001600160a01b03167fddf252ad1be2c89b69c2b068fc378daa952ba7f163c4a11628f55a4df523b3ef83604051610dfe91815260200190565b60405180910390a3505050565b5f81518084528060208401602086015e5f602082860101526020601f19601f83011685010191505092915050565b602081525f610e4b6020830184610e0b565b9392505050565b80356001600160a01b0381168114610e68575f5ffd5b919050565b5f5f60408385031215610e7e575f5ffd5b610e8783610e52565b946020939093013593505050565b5f5f5f60608486031215610ea7575f5ffd5b610eb084610e52565b9250610ebe60208501610e52565b929592945050506040919091013590565b5f60208284031215610edf575f5ffd5b610e4b82610e52565b5f60208284031215610ef8575f5ffd5b5035919050565b6001600160a01b0391909116815260200190565b60a081525f610f2560a0830188610e0b565b8281036020840152610f378188610e0b565b6040840196909652505060608101929092526001600160a01b031660809091015292915050565b5f5f60408385031215610f6f575f5ffd5b610f7883610e52565b9150610f8660208401610e52565b90509250929050565b5f5f60408385031215610fa0575f5ffd5b610fa983610e52565b915060208301358015158114610fbd575f5ffd5b809150509250929050565b600181811c90821680610fdc57607f821691505b602082108103610ffa57634e487b7160e01b5f52602260045260245ffd5b50919050565b6020808252601d908201527f416d6f756e74206d7573742062652067726561746572207468616e2030000000604082015260600190565b634e487b7160e01b5f52601160045260245ffd5b808201808211156103ba576103ba611037565b818103818111156103ba576103ba611037565b6001815b60018411156110ac5780850481111561109057611090611037565b600184161561109e57908102905b60019390931c928002611075565b935093915050565b5f826110c2575060016103ba565b816110ce57505f6103ba565b81600181146110e457600281146110ee5761110a565b60019150506103ba565b60ff8411156110ff576110ff611037565b50506001821b6103ba565b5060208310610133831016604e8410600b841016171561112d575081810a6103ba565b6111395f198484611071565b805f190482111561114c5761114c611037565b029392505050565b5f610e4b60ff8416836110b4565b80820281158282048414176103ba576103ba611037565b5f8261119357634e487b7160e01b5f52601260045260245ffd5b500490565b6001600160a01b03939093168352602083019190915260408201526060019056fea2646970667358221220178215f9ddc41d7d27f85b9382cf5cb7fa0e3543aede713a6d16bec1782aeb2764736f6c634300081c0033a26469706673582212205aa4907fe4ea07a1d1b11fbf72dcb0ca0562bab25616a83e255afa004683de2064736f6c634300081c0033",
  "linkReferences": {},
  "deployedLinkReferences": {},
  "immutableReferences": {},
  "inputSourceName": "project/contracts/CreatorTokenFactory.sol",
  "buildInfoId": "solc-0_8_28-a7b125bc6f97985ce6bbee182731a52f2be8b699"
}